{
	"data": {
		"bytecode": {
			"linkReferences": {},
			"object": "60806040523480156200001157600080fd5b506040516200176c3803806200176c833981810160405281019062000037919062000156565b8585858585846000806101000a81548173ffffffffffffffffffffffffffffffffffffffff021916908373ffffffffffffffffffffffffffffffffffffffff16021790555083600160006101000a81548173ffffffffffffffffffffffffffffffffffffffff021916908373ffffffffffffffffffffffffffffffffffffffff16021790555082600281905550816003819055508042620000d99190620001f2565b600460006101000a81548163ffffffff021916908363ffffffff16021790555050505050508060088190555050505050505062000319565b6000815190506200012281620002cb565b92915050565b6000815190506200013981620002e5565b92915050565b6000815190506200015081620002ff565b92915050565b60008060008060008060c08789031215620001765762000175620002c6565b5b60006200018689828a0162000111565b96505060206200019989828a0162000111565b9550506040620001ac89828a016200013f565b9450506060620001bf89828a016200013f565b9350506080620001d289828a016200013f565b92505060a0620001e589828a0162000128565b9150509295509295509295565b6000620001ff826200028d565b91506200020c836200028d565b9250827fffffffffffffffffffffffffffffffffffffffffffffffffffffffffffffffff0382111562000244576200024362000297565b5b828201905092915050565b60006200025c826200026d565b9050919050565b6000819050919050565b600073ffffffffffffffffffffffffffffffffffffffff82169050919050565b6000819050919050565b7f4e487b7100000000000000000000000000000000000000000000000000000000600052601160045260246000fd5b600080fd5b620002d6816200024f565b8114620002e257600080fd5b50565b620002f08162000263565b8114620002fc57600080fd5b50565b6200030a816200028d565b81146200031657600080fd5b50565b61144380620003296000396000f3fe6080604052600436106100e85760003560e01c80635a9b0b891161008a578063839c54b211610059578063839c54b2146102a75780638d565c3f146102d2578063d65b860f146102fd578063de33cfb014610328576100e8565b80635a9b0b891461020f57806367c6de0b1461023a57806379a62bfc146102655780637b3529621461027c576100e8565b806339ff9f9c116100c657806339ff9f9c14610171578063481c6a75146101a257806350d4bd5b146101cd578063590e1ae3146101f8576100e8565b8063099e209e146100ed57806335052e1e1461012a57806336da446814610146575b600080fd5b3480156100f957600080fd5b50610114600480360381019061010f9190610bc6565b61033f565b60405161012191906110a2565b60405180910390f35b610144600480360381019061013f9190610bf3565b610362565b005b34801561015257600080fd5b5061015b61048e565b6040516101689190610ec5565b60405180910390f35b34801561017d57600080fd5b506101866104b4565b6040516101999796959493929190610ee0565b60405180910390f35b3480156101ae57600080fd5b506101b7610547565b6040516101c49190610ec5565b60405180910390f35b3480156101d957600080fd5b506101e261056b565b6040516101ef9190610f6a565b60405180910390f35b34801561020457600080fd5b5061020d610571565b005b34801561021b57600080fd5b5061022461075a565b6040516102319190611065565b60405180910390f35b34801561024657600080fd5b5061024f61082f565b60405161025c91906110a2565b60405180910390f35b34801561027157600080fd5b5061027a610845565b005b34801561028857600080fd5b50610291610924565b60405161029e9190610f4f565b60405180910390f35b3480156102b357600080fd5b506102bc610937565b6040516102c99190611087565b60405180910390f35b3480156102de57600080fd5b506102e761093d565b6040516102f49190611087565b60405180910390f35b34801561030957600080fd5b50610312610943565b60405161031f9190611087565b60405180910390f35b34801561033457600080fd5b5061033d610949565b005b60056020528060005260406000206000915054906101000a900463ffffffff1681565b600760009054906101000a900460ff16156103b2576040517f08c379a00000000000000000000000000000000000000000000000000000000081526004016103a990611005565b60405180910390fd5b60008163ffffffff166002546103c89190611140565b90503481111561040d576040517f08c379a000000000000000000000000000000000000000000000000000000000815260040161040490610fa5565b60405180910390fd5b81600560003373ffffffffffffffffffffffffffffffffffffffff1673ffffffffffffffffffffffffffffffffffffffff16815260200190815260200160002060006101000a81548163ffffffff021916908363ffffffff1602179055508163ffffffff166006600082825461048391906110ea565b925050819055505050565b600160009054906101000a900473ffffffffffffffffffffffffffffffffffffffff1681565b60008060008060008060008060009054906101000a900473ffffffffffffffffffffffffffffffffffffffff16600160009054906101000a900473ffffffffffffffffffffffffffffffffffffffff16600254600354600460009054906101000a900463ffffffff16600654600760009054906101000a900460ff16965096509650965096509650965090919293949596565b60008054906101000a900473ffffffffffffffffffffffffffffffffffffffff1681565b60085481565b6000600560003373ffffffffffffffffffffffffffffffffffffffff1673ffffffffffffffffffffffffffffffffffffffff16815260200190815260200160002060009054906101000a900463ffffffff1663ffffffff1611610609576040517f08c379a000000000000000000000000000000000000000000000000000000000815260040161060090611045565b60405180910390fd5b600460009054906101000a900463ffffffff1663ffffffff164211610663576040517f08c379a000000000000000000000000000000000000000000000000000000000815260040161065a90611025565b60405180910390fd5b600354600654106106a9576040517f08c379a00000000000000000000000000000000000000000000000000000000081526004016106a090610fe5565b60405180910390fd5b6000600254600560003373ffffffffffffffffffffffffffffffffffffffff1673ffffffffffffffffffffffffffffffffffffffff16815260200190815260200160002060009054906101000a900463ffffffff1663ffffffff1661070e9190611140565b90503373ffffffffffffffffffffffffffffffffffffffff166108fc829081150290604051600060405180830381858888f19350505050158015610756573d6000803e3d6000fd5b5050565b610762610b12565b60008060008060008060006107756104b4565b965096509650965096509650965060006040518061014001604052808973ffffffffffffffffffffffffffffffffffffffff1681526020018873ffffffffffffffffffffffffffffffffffffffff1681526020018781526020018681526020018563ffffffff16815260200184815260200183151581526020016008548152602001604051806020016040528060008152508152602001604051806020016040528060008152508152509050809850505050505050505090565b600460009054906101000a900463ffffffff1681565b600354600654101561088c576040517f08c379a000000000000000000000000000000000000000000000000000000000815260040161088390610f85565b60405180910390fd5b3373ffffffffffffffffffffffffffffffffffffffff1660008054906101000a900473ffffffffffffffffffffffffffffffffffffffff1673ffffffffffffffffffffffffffffffffffffffff161461091a576040517f08c379a000000000000000000000000000000000000000000000000000000000815260040161091190610fc5565b60405180910390fd5b610922610a8c565b565b600760009054906101000a900460ff1681565b60025481565b60065481565b60035481565b6000600560003373ffffffffffffffffffffffffffffffffffffffff1673ffffffffffffffffffffffffffffffffffffffff16815260200190815260200160002060009054906101000a900463ffffffff1663ffffffff16116109e1576040517f08c379a00000000000000000000000000000000000000000000000000000000081526004016109d890611045565b60405180910390fd5b600460009054906101000a900463ffffffff1663ffffffff164211610a3b576040517f08c379a0000000000000000000000000000000000000000000000000000000008152600401610a3290611025565b60405180910390fd5b6003546006541015610a82576040517f08c379a0000000000000000000000000000000000000000000000000000000008152600401610a7990610f85565b60405180910390fd5b610a8a610a8c565b565b600160009054906101000a900473ffffffffffffffffffffffffffffffffffffffff1673ffffffffffffffffffffffffffffffffffffffff166108fc479081150290604051600060405180830381858888f19350505050158015610af4573d6000803e3d6000fd5b506001600760006101000a81548160ff021916908315150217905550565b604051806101400160405280600073ffffffffffffffffffffffffffffffffffffffff168152602001600073ffffffffffffffffffffffffffffffffffffffff1681526020016000815260200160008152602001600063ffffffff168152602001600081526020016000151581526020016000801916815260200160608152602001606081525090565b600081359050610bab816113df565b92915050565b600081359050610bc0816113f6565b92915050565b600060208284031215610bdc57610bdb61125e565b5b6000610bea84828501610b9c565b91505092915050565b600060208284031215610c0957610c0861125e565b5b6000610c1784828501610bb1565b91505092915050565b610c298161119a565b82525050565b610c388161119a565b82525050565b610c47816111ac565b82525050565b610c56816111ac565b82525050565b610c65816111b8565b82525050565b610c74816111b8565b82525050565b6000610c85826110bd565b610c8f81856110c8565b9350610c9f8185602086016111fc565b610ca881611263565b840191505092915050565b6000610cc06010836110d9565b9150610ccb82611274565b602082019050919050565b6000610ce36011836110d9565b9150610cee8261129d565b602082019050919050565b6000610d066015836110d9565b9150610d11826112c6565b602082019050919050565b6000610d296037836110d9565b9150610d34826112ef565b604082019050919050565b6000610d4c6016836110d9565b9150610d578261133e565b602082019050919050565b6000610d6f601d836110d9565b9150610d7a82611367565b602082019050919050565b6000610d926028836110d9565b9150610d9d82611390565b604082019050919050565b600061014083016000830151610dc16000860182610c20565b506020830151610dd46020860182610c20565b506040830151610de76040860182610e89565b506060830151610dfa6060860182610e89565b506080830151610e0d6080860182610ea7565b5060a0830151610e2060a0860182610e89565b5060c0830151610e3360c0860182610c3e565b5060e0830151610e4660e0860182610c5c565b50610100830151848203610100860152610e608282610c7a565b915050610120830151848203610120860152610e7c8282610c7a565b9150508091505092915050565b610e92816111e2565b82525050565b610ea1816111e2565b82525050565b610eb0816111ec565b82525050565b610ebf816111ec565b82525050565b6000602082019050610eda6000830184610c2f565b92915050565b600060e082019050610ef5600083018a610c2f565b610f026020830189610c2f565b610f0f6040830188610e98565b610f1c6060830187610e98565b610f296080830186610eb6565b610f3660a0830185610e98565b610f4360c0830184610c4d565b98975050505050505050565b6000602082019050610f646000830184610c4d565b92915050565b6000602082019050610f7f6000830184610c6b565b92915050565b60006020820190508181036000830152610f9e81610cb3565b9050919050565b60006020820190508181036000830152610fbe81610cd6565b9050919050565b60006020820190508181036000830152610fde81610cf9565b9050919050565b60006020820190508181036000830152610ffe81610d1c565b9050919050565b6000602082019050818103600083015261101e81610d3f565b9050919050565b6000602082019050818103600083015261103e81610d62565b9050919050565b6000602082019050818103600083015261105e81610d85565b9050919050565b6000602082019050818103600083015261107f8184610da8565b905092915050565b600060208201905061109c6000830184610e98565b92915050565b60006020820190506110b76000830184610eb6565b92915050565b600081519050919050565b600082825260208201905092915050565b600082825260208201905092915050565b60006110f5826111e2565b9150611100836111e2565b9250827fffffffffffffffffffffffffffffffffffffffffffffffffffffffffffffffff038211156111355761113461122f565b5b828201905092915050565b600061114b826111e2565b9150611156836111e2565b9250817fffffffffffffffffffffffffffffffffffffffffffffffffffffffffffffffff048311821515161561118f5761118e61122f565b5b828202905092915050565b60006111a5826111c2565b9050919050565b60008115159050919050565b6000819050919050565b600073ffffffffffffffffffffffffffffffffffffffff82169050919050565b6000819050919050565b600063ffffffff82169050919050565b60005b8381101561121a5780820151818401526020810190506111ff565b83811115611229576000848401525b50505050565b7f4e487b7100000000000000000000000000000000000000000000000000000000600052601160045260246000fd5b600080fd5b6000601f19601f8301169050919050565b7f4e6f7420656e6f756768206d6f6e657900000000000000000000000000000000600082015250565b7f546f6f206c697474656c206d6f6e657921000000000000000000000000000000600082015250565b7f596f7520617265206e6f742061206d616e616765720000000000000000000000600082015250565b7f5468697320707572636861736520776173207375636365737366756c2c20796f60008201527f752063616e6e6f74206d616b65206120726566756e6421000000000000000000602082015250565b7f54686973207075726368617365206973206f7665722100000000000000000000600082015250565b7f46756e6472616973696e672074696d65206973206e6f74206f76657221000000600082015250565b7f596f7520617265206e6f74206120637573746f6d657220696e2074686973206360008201527f6f6e747261637421000000000000000000000000000000000000000000000000602082015250565b6113e88161119a565b81146113f357600080fd5b50565b6113ff816111ec565b811461140a57600080fd5b5056fea2646970667358221220467dec34ae2c1a913a7f9ba611eb8adfcd6dea888ac4441b04d115aa549ebde464736f6c63430008070033",
			"opcodes": "PUSH1 0x80 PUSH1 0x40 MSTORE CALLVALUE DUP1 ISZERO PUSH3 0x11 JUMPI PUSH1 0x0 DUP1 REVERT JUMPDEST POP PUSH1 0x40 MLOAD PUSH3 0x176C CODESIZE SUB DUP1 PUSH3 0x176C DUP4 CODECOPY DUP2 DUP2 ADD PUSH1 0x40 MSTORE DUP2 ADD SWAP1 PUSH3 0x37 SWAP2 SWAP1 PUSH3 0x156 JUMP JUMPDEST DUP6 DUP6 DUP6 DUP6 DUP6 DUP5 PUSH1 0x0 DUP1 PUSH2 0x100 EXP DUP2 SLOAD DUP2 PUSH20 0xFFFFFFFFFFFFFFFFFFFFFFFFFFFFFFFFFFFFFFFF MUL NOT AND SWAP1 DUP4 PUSH20 0xFFFFFFFFFFFFFFFFFFFFFFFFFFFFFFFFFFFFFFFF AND MUL OR SWAP1 SSTORE POP DUP4 PUSH1 0x1 PUSH1 0x0 PUSH2 0x100 EXP DUP2 SLOAD DUP2 PUSH20 0xFFFFFFFFFFFFFFFFFFFFFFFFFFFFFFFFFFFFFFFF MUL NOT AND SWAP1 DUP4 PUSH20 0xFFFFFFFFFFFFFFFFFFFFFFFFFFFFFFFFFFFFFFFF AND MUL OR SWAP1 SSTORE POP DUP3 PUSH1 0x2 DUP2 SWAP1 SSTORE POP DUP2 PUSH1 0x3 DUP2 SWAP1 SSTORE POP DUP1 TIMESTAMP PUSH3 0xD9 SWAP2 SWAP1 PUSH3 0x1F2 JUMP JUMPDEST PUSH1 0x4 PUSH1 0x0 PUSH2 0x100 EXP DUP2 SLOAD DUP2 PUSH4 0xFFFFFFFF MUL NOT AND SWAP1 DUP4 PUSH4 0xFFFFFFFF AND MUL OR SWAP1 SSTORE POP POP POP POP POP POP DUP1 PUSH1 0x8 DUP2 SWAP1 SSTORE POP POP POP POP POP POP POP PUSH3 0x319 JUMP JUMPDEST PUSH1 0x0 DUP2 MLOAD SWAP1 POP PUSH3 0x122 DUP2 PUSH3 0x2CB JUMP JUMPDEST SWAP3 SWAP2 POP POP JUMP JUMPDEST PUSH1 0x0 DUP2 MLOAD SWAP1 POP PUSH3 0x139 DUP2 PUSH3 0x2E5 JUMP JUMPDEST SWAP3 SWAP2 POP POP JUMP JUMPDEST PUSH1 0x0 DUP2 MLOAD SWAP1 POP PUSH3 0x150 DUP2 PUSH3 0x2FF JUMP JUMPDEST SWAP3 SWAP2 POP POP JUMP JUMPDEST PUSH1 0x0 DUP1 PUSH1 0x0 DUP1 PUSH1 0x0 DUP1 PUSH1 0xC0 DUP8 DUP10 SUB SLT ISZERO PUSH3 0x176 JUMPI PUSH3 0x175 PUSH3 0x2C6 JUMP JUMPDEST JUMPDEST PUSH1 0x0 PUSH3 0x186 DUP10 DUP3 DUP11 ADD PUSH3 0x111 JUMP JUMPDEST SWAP7 POP POP PUSH1 0x20 PUSH3 0x199 DUP10 DUP3 DUP11 ADD PUSH3 0x111 JUMP JUMPDEST SWAP6 POP POP PUSH1 0x40 PUSH3 0x1AC DUP10 DUP3 DUP11 ADD PUSH3 0x13F JUMP JUMPDEST SWAP5 POP POP PUSH1 0x60 PUSH3 0x1BF DUP10 DUP3 DUP11 ADD PUSH3 0x13F JUMP JUMPDEST SWAP4 POP POP PUSH1 0x80 PUSH3 0x1D2 DUP10 DUP3 DUP11 ADD PUSH3 0x13F JUMP JUMPDEST SWAP3 POP POP PUSH1 0xA0 PUSH3 0x1E5 DUP10 DUP3 DUP11 ADD PUSH3 0x128 JUMP JUMPDEST SWAP2 POP POP SWAP3 SWAP6 POP SWAP3 SWAP6 POP SWAP3 SWAP6 JUMP JUMPDEST PUSH1 0x0 PUSH3 0x1FF DUP3 PUSH3 0x28D JUMP JUMPDEST SWAP2 POP PUSH3 0x20C DUP4 PUSH3 0x28D JUMP JUMPDEST SWAP3 POP DUP3 PUSH32 0xFFFFFFFFFFFFFFFFFFFFFFFFFFFFFFFFFFFFFFFFFFFFFFFFFFFFFFFFFFFFFFFF SUB DUP3 GT ISZERO PUSH3 0x244 JUMPI PUSH3 0x243 PUSH3 0x297 JUMP JUMPDEST JUMPDEST DUP3 DUP3 ADD SWAP1 POP SWAP3 SWAP2 POP POP JUMP JUMPDEST PUSH1 0x0 PUSH3 0x25C DUP3 PUSH3 0x26D JUMP JUMPDEST SWAP1 POP SWAP2 SWAP1 POP JUMP JUMPDEST PUSH1 0x0 DUP2 SWAP1 POP SWAP2 SWAP1 POP JUMP JUMPDEST PUSH1 0x0 PUSH20 0xFFFFFFFFFFFFFFFFFFFFFFFFFFFFFFFFFFFFFFFF DUP3 AND SWAP1 POP SWAP2 SWAP1 POP JUMP JUMPDEST PUSH1 0x0 DUP2 SWAP1 POP SWAP2 SWAP1 POP JUMP JUMPDEST PUSH32 0x4E487B7100000000000000000000000000000000000000000000000000000000 PUSH1 0x0 MSTORE PUSH1 0x11 PUSH1 0x4 MSTORE PUSH1 0x24 PUSH1 0x0 REVERT JUMPDEST PUSH1 0x0 DUP1 REVERT JUMPDEST PUSH3 0x2D6 DUP2 PUSH3 0x24F JUMP JUMPDEST DUP2 EQ PUSH3 0x2E2 JUMPI PUSH1 0x0 DUP1 REVERT JUMPDEST POP JUMP JUMPDEST PUSH3 0x2F0 DUP2 PUSH3 0x263 JUMP JUMPDEST DUP2 EQ PUSH3 0x2FC JUMPI PUSH1 0x0 DUP1 REVERT JUMPDEST POP JUMP JUMPDEST PUSH3 0x30A DUP2 PUSH3 0x28D JUMP JUMPDEST DUP2 EQ PUSH3 0x316 JUMPI PUSH1 0x0 DUP1 REVERT JUMPDEST POP JUMP JUMPDEST PUSH2 0x1443 DUP1 PUSH3 0x329 PUSH1 0x0 CODECOPY PUSH1 0x0 RETURN INVALID PUSH1 0x80 PUSH1 0x40 MSTORE PUSH1 0x4 CALLDATASIZE LT PUSH2 0xE8 JUMPI PUSH1 0x0 CALLDATALOAD PUSH1 0xE0 SHR DUP1 PUSH4 0x5A9B0B89 GT PUSH2 0x8A JUMPI DUP1 PUSH4 0x839C54B2 GT PUSH2 0x59 JUMPI DUP1 PUSH4 0x839C54B2 EQ PUSH2 0x2A7 JUMPI DUP1 PUSH4 0x8D565C3F EQ PUSH2 0x2D2 JUMPI DUP1 PUSH4 0xD65B860F EQ PUSH2 0x2FD JUMPI DUP1 PUSH4 0xDE33CFB0 EQ PUSH2 0x328 JUMPI PUSH2 0xE8 JUMP JUMPDEST DUP1 PUSH4 0x5A9B0B89 EQ PUSH2 0x20F JUMPI DUP1 PUSH4 0x67C6DE0B EQ PUSH2 0x23A JUMPI DUP1 PUSH4 0x79A62BFC EQ PUSH2 0x265 JUMPI DUP1 PUSH4 0x7B352962 EQ PUSH2 0x27C JUMPI PUSH2 0xE8 JUMP JUMPDEST DUP1 PUSH4 0x39FF9F9C GT PUSH2 0xC6 JUMPI DUP1 PUSH4 0x39FF9F9C EQ PUSH2 0x171 JUMPI DUP1 PUSH4 0x481C6A75 EQ PUSH2 0x1A2 JUMPI DUP1 PUSH4 0x50D4BD5B EQ PUSH2 0x1CD JUMPI DUP1 PUSH4 0x590E1AE3 EQ PUSH2 0x1F8 JUMPI PUSH2 0xE8 JUMP JUMPDEST DUP1 PUSH4 0x99E209E EQ PUSH2 0xED JUMPI DUP1 PUSH4 0x35052E1E EQ PUSH2 0x12A JUMPI DUP1 PUSH4 0x36DA4468 EQ PUSH2 0x146 JUMPI JUMPDEST PUSH1 0x0 DUP1 REVERT JUMPDEST CALLVALUE DUP1 ISZERO PUSH2 0xF9 JUMPI PUSH1 0x0 DUP1 REVERT JUMPDEST POP PUSH2 0x114 PUSH1 0x4 DUP1 CALLDATASIZE SUB DUP2 ADD SWAP1 PUSH2 0x10F SWAP2 SWAP1 PUSH2 0xBC6 JUMP JUMPDEST PUSH2 0x33F JUMP JUMPDEST PUSH1 0x40 MLOAD PUSH2 0x121 SWAP2 SWAP1 PUSH2 0x10A2 JUMP JUMPDEST PUSH1 0x40 MLOAD DUP1 SWAP2 SUB SWAP1 RETURN JUMPDEST PUSH2 0x144 PUSH1 0x4 DUP1 CALLDATASIZE SUB DUP2 ADD SWAP1 PUSH2 0x13F SWAP2 SWAP1 PUSH2 0xBF3 JUMP JUMPDEST PUSH2 0x362 JUMP JUMPDEST STOP JUMPDEST CALLVALUE DUP1 ISZERO PUSH2 0x152 JUMPI PUSH1 0x0 DUP1 REVERT JUMPDEST POP PUSH2 0x15B PUSH2 0x48E JUMP JUMPDEST PUSH1 0x40 MLOAD PUSH2 0x168 SWAP2 SWAP1 PUSH2 0xEC5 JUMP JUMPDEST PUSH1 0x40 MLOAD DUP1 SWAP2 SUB SWAP1 RETURN JUMPDEST CALLVALUE DUP1 ISZERO PUSH2 0x17D JUMPI PUSH1 0x0 DUP1 REVERT JUMPDEST POP PUSH2 0x186 PUSH2 0x4B4 JUMP JUMPDEST PUSH1 0x40 MLOAD PUSH2 0x199 SWAP8 SWAP7 SWAP6 SWAP5 SWAP4 SWAP3 SWAP2 SWAP1 PUSH2 0xEE0 JUMP JUMPDEST PUSH1 0x40 MLOAD DUP1 SWAP2 SUB SWAP1 RETURN JUMPDEST CALLVALUE DUP1 ISZERO PUSH2 0x1AE JUMPI PUSH1 0x0 DUP1 REVERT JUMPDEST POP PUSH2 0x1B7 PUSH2 0x547 JUMP JUMPDEST PUSH1 0x40 MLOAD PUSH2 0x1C4 SWAP2 SWAP1 PUSH2 0xEC5 JUMP JUMPDEST PUSH1 0x40 MLOAD DUP1 SWAP2 SUB SWAP1 RETURN JUMPDEST CALLVALUE DUP1 ISZERO PUSH2 0x1D9 JUMPI PUSH1 0x0 DUP1 REVERT JUMPDEST POP PUSH2 0x1E2 PUSH2 0x56B JUMP JUMPDEST PUSH1 0x40 MLOAD PUSH2 0x1EF SWAP2 SWAP1 PUSH2 0xF6A JUMP JUMPDEST PUSH1 0x40 MLOAD DUP1 SWAP2 SUB SWAP1 RETURN JUMPDEST CALLVALUE DUP1 ISZERO PUSH2 0x204 JUMPI PUSH1 0x0 DUP1 REVERT JUMPDEST POP PUSH2 0x20D PUSH2 0x571 JUMP JUMPDEST STOP JUMPDEST CALLVALUE DUP1 ISZERO PUSH2 0x21B JUMPI PUSH1 0x0 DUP1 REVERT JUMPDEST POP PUSH2 0x224 PUSH2 0x75A JUMP JUMPDEST PUSH1 0x40 MLOAD PUSH2 0x231 SWAP2 SWAP1 PUSH2 0x1065 JUMP JUMPDEST PUSH1 0x40 MLOAD DUP1 SWAP2 SUB SWAP1 RETURN JUMPDEST CALLVALUE DUP1 ISZERO PUSH2 0x246 JUMPI PUSH1 0x0 DUP1 REVERT JUMPDEST POP PUSH2 0x24F PUSH2 0x82F JUMP JUMPDEST PUSH1 0x40 MLOAD PUSH2 0x25C SWAP2 SWAP1 PUSH2 0x10A2 JUMP JUMPDEST PUSH1 0x40 MLOAD DUP1 SWAP2 SUB SWAP1 RETURN JUMPDEST CALLVALUE DUP1 ISZERO PUSH2 0x271 JUMPI PUSH1 0x0 DUP1 REVERT JUMPDEST POP PUSH2 0x27A PUSH2 0x845 JUMP JUMPDEST STOP JUMPDEST CALLVALUE DUP1 ISZERO PUSH2 0x288 JUMPI PUSH1 0x0 DUP1 REVERT JUMPDEST POP PUSH2 0x291 PUSH2 0x924 JUMP JUMPDEST PUSH1 0x40 MLOAD PUSH2 0x29E SWAP2 SWAP1 PUSH2 0xF4F JUMP JUMPDEST PUSH1 0x40 MLOAD DUP1 SWAP2 SUB SWAP1 RETURN JUMPDEST CALLVALUE DUP1 ISZERO PUSH2 0x2B3 JUMPI PUSH1 0x0 DUP1 REVERT JUMPDEST POP PUSH2 0x2BC PUSH2 0x937 JUMP JUMPDEST PUSH1 0x40 MLOAD PUSH2 0x2C9 SWAP2 SWAP1 PUSH2 0x1087 JUMP JUMPDEST PUSH1 0x40 MLOAD DUP1 SWAP2 SUB SWAP1 RETURN JUMPDEST CALLVALUE DUP1 ISZERO PUSH2 0x2DE JUMPI PUSH1 0x0 DUP1 REVERT JUMPDEST POP PUSH2 0x2E7 PUSH2 0x93D JUMP JUMPDEST PUSH1 0x40 MLOAD PUSH2 0x2F4 SWAP2 SWAP1 PUSH2 0x1087 JUMP JUMPDEST PUSH1 0x40 MLOAD DUP1 SWAP2 SUB SWAP1 RETURN JUMPDEST CALLVALUE DUP1 ISZERO PUSH2 0x309 JUMPI PUSH1 0x0 DUP1 REVERT JUMPDEST POP PUSH2 0x312 PUSH2 0x943 JUMP JUMPDEST PUSH1 0x40 MLOAD PUSH2 0x31F SWAP2 SWAP1 PUSH2 0x1087 JUMP JUMPDEST PUSH1 0x40 MLOAD DUP1 SWAP2 SUB SWAP1 RETURN JUMPDEST CALLVALUE DUP1 ISZERO PUSH2 0x334 JUMPI PUSH1 0x0 DUP1 REVERT JUMPDEST POP PUSH2 0x33D PUSH2 0x949 JUMP JUMPDEST STOP JUMPDEST PUSH1 0x5 PUSH1 0x20 MSTORE DUP1 PUSH1 0x0 MSTORE PUSH1 0x40 PUSH1 0x0 KECCAK256 PUSH1 0x0 SWAP2 POP SLOAD SWAP1 PUSH2 0x100 EXP SWAP1 DIV PUSH4 0xFFFFFFFF AND DUP2 JUMP JUMPDEST PUSH1 0x7 PUSH1 0x0 SWAP1 SLOAD SWAP1 PUSH2 0x100 EXP SWAP1 DIV PUSH1 0xFF AND ISZERO PUSH2 0x3B2 JUMPI PUSH1 0x40 MLOAD PUSH32 0x8C379A000000000000000000000000000000000000000000000000000000000 DUP2 MSTORE PUSH1 0x4 ADD PUSH2 0x3A9 SWAP1 PUSH2 0x1005 JUMP JUMPDEST PUSH1 0x40 MLOAD DUP1 SWAP2 SUB SWAP1 REVERT JUMPDEST PUSH1 0x0 DUP2 PUSH4 0xFFFFFFFF AND PUSH1 0x2 SLOAD PUSH2 0x3C8 SWAP2 SWAP1 PUSH2 0x1140 JUMP JUMPDEST SWAP1 POP CALLVALUE DUP2 GT ISZERO PUSH2 0x40D JUMPI PUSH1 0x40 MLOAD PUSH32 0x8C379A000000000000000000000000000000000000000000000000000000000 DUP2 MSTORE PUSH1 0x4 ADD PUSH2 0x404 SWAP1 PUSH2 0xFA5 JUMP JUMPDEST PUSH1 0x40 MLOAD DUP1 SWAP2 SUB SWAP1 REVERT JUMPDEST DUP2 PUSH1 0x5 PUSH1 0x0 CALLER PUSH20 0xFFFFFFFFFFFFFFFFFFFFFFFFFFFFFFFFFFFFFFFF AND PUSH20 0xFFFFFFFFFFFFFFFFFFFFFFFFFFFFFFFFFFFFFFFF AND DUP2 MSTORE PUSH1 0x20 ADD SWAP1 DUP2 MSTORE PUSH1 0x20 ADD PUSH1 0x0 KECCAK256 PUSH1 0x0 PUSH2 0x100 EXP DUP2 SLOAD DUP2 PUSH4 0xFFFFFFFF MUL NOT AND SWAP1 DUP4 PUSH4 0xFFFFFFFF AND MUL OR SWAP1 SSTORE POP DUP2 PUSH4 0xFFFFFFFF AND PUSH1 0x6 PUSH1 0x0 DUP3 DUP3 SLOAD PUSH2 0x483 SWAP2 SWAP1 PUSH2 0x10EA JUMP JUMPDEST SWAP3 POP POP DUP2 SWAP1 SSTORE POP POP POP JUMP JUMPDEST PUSH1 0x1 PUSH1 0x0 SWAP1 SLOAD SWAP1 PUSH2 0x100 EXP SWAP1 DIV PUSH20 0xFFFFFFFFFFFFFFFFFFFFFFFFFFFFFFFFFFFFFFFF AND DUP2 JUMP JUMPDEST PUSH1 0x0 DUP1 PUSH1 0x0 DUP1 PUSH1 0x0 DUP1 PUSH1 0x0 DUP1 PUSH1 0x0 SWAP1 SLOAD SWAP1 PUSH2 0x100 EXP SWAP1 DIV PUSH20 0xFFFFFFFFFFFFFFFFFFFFFFFFFFFFFFFFFFFFFFFF AND PUSH1 0x1 PUSH1 0x0 SWAP1 SLOAD SWAP1 PUSH2 0x100 EXP SWAP1 DIV PUSH20 0xFFFFFFFFFFFFFFFFFFFFFFFFFFFFFFFFFFFFFFFF AND PUSH1 0x2 SLOAD PUSH1 0x3 SLOAD PUSH1 0x4 PUSH1 0x0 SWAP1 SLOAD SWAP1 PUSH2 0x100 EXP SWAP1 DIV PUSH4 0xFFFFFFFF AND PUSH1 0x6 SLOAD PUSH1 0x7 PUSH1 0x0 SWAP1 SLOAD SWAP1 PUSH2 0x100 EXP SWAP1 DIV PUSH1 0xFF AND SWAP7 POP SWAP7 POP SWAP7 POP SWAP7 POP SWAP7 POP SWAP7 POP SWAP7 POP SWAP1 SWAP2 SWAP3 SWAP4 SWAP5 SWAP6 SWAP7 JUMP JUMPDEST PUSH1 0x0 DUP1 SLOAD SWAP1 PUSH2 0x100 EXP SWAP1 DIV PUSH20 0xFFFFFFFFFFFFFFFFFFFFFFFFFFFFFFFFFFFFFFFF AND DUP2 JUMP JUMPDEST PUSH1 0x8 SLOAD DUP2 JUMP JUMPDEST PUSH1 0x0 PUSH1 0x5 PUSH1 0x0 CALLER PUSH20 0xFFFFFFFFFFFFFFFFFFFFFFFFFFFFFFFFFFFFFFFF AND PUSH20 0xFFFFFFFFFFFFFFFFFFFFFFFFFFFFFFFFFFFFFFFF AND DUP2 MSTORE PUSH1 0x20 ADD SWAP1 DUP2 MSTORE PUSH1 0x20 ADD PUSH1 0x0 KECCAK256 PUSH1 0x0 SWAP1 SLOAD SWAP1 PUSH2 0x100 EXP SWAP1 DIV PUSH4 0xFFFFFFFF AND PUSH4 0xFFFFFFFF AND GT PUSH2 0x609 JUMPI PUSH1 0x40 MLOAD PUSH32 0x8C379A000000000000000000000000000000000000000000000000000000000 DUP2 MSTORE PUSH1 0x4 ADD PUSH2 0x600 SWAP1 PUSH2 0x1045 JUMP JUMPDEST PUSH1 0x40 MLOAD DUP1 SWAP2 SUB SWAP1 REVERT JUMPDEST PUSH1 0x4 PUSH1 0x0 SWAP1 SLOAD SWAP1 PUSH2 0x100 EXP SWAP1 DIV PUSH4 0xFFFFFFFF AND PUSH4 0xFFFFFFFF AND TIMESTAMP GT PUSH2 0x663 JUMPI PUSH1 0x40 MLOAD PUSH32 0x8C379A000000000000000000000000000000000000000000000000000000000 DUP2 MSTORE PUSH1 0x4 ADD PUSH2 0x65A SWAP1 PUSH2 0x1025 JUMP JUMPDEST PUSH1 0x40 MLOAD DUP1 SWAP2 SUB SWAP1 REVERT JUMPDEST PUSH1 0x3 SLOAD PUSH1 0x6 SLOAD LT PUSH2 0x6A9 JUMPI PUSH1 0x40 MLOAD PUSH32 0x8C379A000000000000000000000000000000000000000000000000000000000 DUP2 MSTORE PUSH1 0x4 ADD PUSH2 0x6A0 SWAP1 PUSH2 0xFE5 JUMP JUMPDEST PUSH1 0x40 MLOAD DUP1 SWAP2 SUB SWAP1 REVERT JUMPDEST PUSH1 0x0 PUSH1 0x2 SLOAD PUSH1 0x5 PUSH1 0x0 CALLER PUSH20 0xFFFFFFFFFFFFFFFFFFFFFFFFFFFFFFFFFFFFFFFF AND PUSH20 0xFFFFFFFFFFFFFFFFFFFFFFFFFFFFFFFFFFFFFFFF AND DUP2 MSTORE PUSH1 0x20 ADD SWAP1 DUP2 MSTORE PUSH1 0x20 ADD PUSH1 0x0 KECCAK256 PUSH1 0x0 SWAP1 SLOAD SWAP1 PUSH2 0x100 EXP SWAP1 DIV PUSH4 0xFFFFFFFF AND PUSH4 0xFFFFFFFF AND PUSH2 0x70E SWAP2 SWAP1 PUSH2 0x1140 JUMP JUMPDEST SWAP1 POP CALLER PUSH20 0xFFFFFFFFFFFFFFFFFFFFFFFFFFFFFFFFFFFFFFFF AND PUSH2 0x8FC DUP3 SWAP1 DUP2 ISZERO MUL SWAP1 PUSH1 0x40 MLOAD PUSH1 0x0 PUSH1 0x40 MLOAD DUP1 DUP4 SUB DUP2 DUP6 DUP9 DUP9 CALL SWAP4 POP POP POP POP ISZERO DUP1 ISZERO PUSH2 0x756 JUMPI RETURNDATASIZE PUSH1 0x0 DUP1 RETURNDATACOPY RETURNDATASIZE PUSH1 0x0 REVERT JUMPDEST POP POP JUMP JUMPDEST PUSH2 0x762 PUSH2 0xB12 JUMP JUMPDEST PUSH1 0x0 DUP1 PUSH1 0x0 DUP1 PUSH1 0x0 DUP1 PUSH1 0x0 PUSH2 0x775 PUSH2 0x4B4 JUMP JUMPDEST SWAP7 POP SWAP7 POP SWAP7 POP SWAP7 POP SWAP7 POP SWAP7 POP SWAP7 POP PUSH1 0x0 PUSH1 0x40 MLOAD DUP1 PUSH2 0x140 ADD PUSH1 0x40 MSTORE DUP1 DUP10 PUSH20 0xFFFFFFFFFFFFFFFFFFFFFFFFFFFFFFFFFFFFFFFF AND DUP2 MSTORE PUSH1 0x20 ADD DUP9 PUSH20 0xFFFFFFFFFFFFFFFFFFFFFFFFFFFFFFFFFFFFFFFF AND DUP2 MSTORE PUSH1 0x20 ADD DUP8 DUP2 MSTORE PUSH1 0x20 ADD DUP7 DUP2 MSTORE PUSH1 0x20 ADD DUP6 PUSH4 0xFFFFFFFF AND DUP2 MSTORE PUSH1 0x20 ADD DUP5 DUP2 MSTORE PUSH1 0x20 ADD DUP4 ISZERO ISZERO DUP2 MSTORE PUSH1 0x20 ADD PUSH1 0x8 SLOAD DUP2 MSTORE PUSH1 0x20 ADD PUSH1 0x40 MLOAD DUP1 PUSH1 0x20 ADD PUSH1 0x40 MSTORE DUP1 PUSH1 0x0 DUP2 MSTORE POP DUP2 MSTORE PUSH1 0x20 ADD PUSH1 0x40 MLOAD DUP1 PUSH1 0x20 ADD PUSH1 0x40 MSTORE DUP1 PUSH1 0x0 DUP2 MSTORE POP DUP2 MSTORE POP SWAP1 POP DUP1 SWAP9 POP POP POP POP POP POP POP POP POP SWAP1 JUMP JUMPDEST PUSH1 0x4 PUSH1 0x0 SWAP1 SLOAD SWAP1 PUSH2 0x100 EXP SWAP1 DIV PUSH4 0xFFFFFFFF AND DUP2 JUMP JUMPDEST PUSH1 0x3 SLOAD PUSH1 0x6 SLOAD LT ISZERO PUSH2 0x88C JUMPI PUSH1 0x40 MLOAD PUSH32 0x8C379A000000000000000000000000000000000000000000000000000000000 DUP2 MSTORE PUSH1 0x4 ADD PUSH2 0x883 SWAP1 PUSH2 0xF85 JUMP JUMPDEST PUSH1 0x40 MLOAD DUP1 SWAP2 SUB SWAP1 REVERT JUMPDEST CALLER PUSH20 0xFFFFFFFFFFFFFFFFFFFFFFFFFFFFFFFFFFFFFFFF AND PUSH1 0x0 DUP1 SLOAD SWAP1 PUSH2 0x100 EXP SWAP1 DIV PUSH20 0xFFFFFFFFFFFFFFFFFFFFFFFFFFFFFFFFFFFFFFFF AND PUSH20 0xFFFFFFFFFFFFFFFFFFFFFFFFFFFFFFFFFFFFFFFF AND EQ PUSH2 0x91A JUMPI PUSH1 0x40 MLOAD PUSH32 0x8C379A000000000000000000000000000000000000000000000000000000000 DUP2 MSTORE PUSH1 0x4 ADD PUSH2 0x911 SWAP1 PUSH2 0xFC5 JUMP JUMPDEST PUSH1 0x40 MLOAD DUP1 SWAP2 SUB SWAP1 REVERT JUMPDEST PUSH2 0x922 PUSH2 0xA8C JUMP JUMPDEST JUMP JUMPDEST PUSH1 0x7 PUSH1 0x0 SWAP1 SLOAD SWAP1 PUSH2 0x100 EXP SWAP1 DIV PUSH1 0xFF AND DUP2 JUMP JUMPDEST PUSH1 0x2 SLOAD DUP2 JUMP JUMPDEST PUSH1 0x6 SLOAD DUP2 JUMP JUMPDEST PUSH1 0x3 SLOAD DUP2 JUMP JUMPDEST PUSH1 0x0 PUSH1 0x5 PUSH1 0x0 CALLER PUSH20 0xFFFFFFFFFFFFFFFFFFFFFFFFFFFFFFFFFFFFFFFF AND PUSH20 0xFFFFFFFFFFFFFFFFFFFFFFFFFFFFFFFFFFFFFFFF AND DUP2 MSTORE PUSH1 0x20 ADD SWAP1 DUP2 MSTORE PUSH1 0x20 ADD PUSH1 0x0 KECCAK256 PUSH1 0x0 SWAP1 SLOAD SWAP1 PUSH2 0x100 EXP SWAP1 DIV PUSH4 0xFFFFFFFF AND PUSH4 0xFFFFFFFF AND GT PUSH2 0x9E1 JUMPI PUSH1 0x40 MLOAD PUSH32 0x8C379A000000000000000000000000000000000000000000000000000000000 DUP2 MSTORE PUSH1 0x4 ADD PUSH2 0x9D8 SWAP1 PUSH2 0x1045 JUMP JUMPDEST PUSH1 0x40 MLOAD DUP1 SWAP2 SUB SWAP1 REVERT JUMPDEST PUSH1 0x4 PUSH1 0x0 SWAP1 SLOAD SWAP1 PUSH2 0x100 EXP SWAP1 DIV PUSH4 0xFFFFFFFF AND PUSH4 0xFFFFFFFF AND TIMESTAMP GT PUSH2 0xA3B JUMPI PUSH1 0x40 MLOAD PUSH32 0x8C379A000000000000000000000000000000000000000000000000000000000 DUP2 MSTORE PUSH1 0x4 ADD PUSH2 0xA32 SWAP1 PUSH2 0x1025 JUMP JUMPDEST PUSH1 0x40 MLOAD DUP1 SWAP2 SUB SWAP1 REVERT JUMPDEST PUSH1 0x3 SLOAD PUSH1 0x6 SLOAD LT ISZERO PUSH2 0xA82 JUMPI PUSH1 0x40 MLOAD PUSH32 0x8C379A000000000000000000000000000000000000000000000000000000000 DUP2 MSTORE PUSH1 0x4 ADD PUSH2 0xA79 SWAP1 PUSH2 0xF85 JUMP JUMPDEST PUSH1 0x40 MLOAD DUP1 SWAP2 SUB SWAP1 REVERT JUMPDEST PUSH2 0xA8A PUSH2 0xA8C JUMP JUMPDEST JUMP JUMPDEST PUSH1 0x1 PUSH1 0x0 SWAP1 SLOAD SWAP1 PUSH2 0x100 EXP SWAP1 DIV PUSH20 0xFFFFFFFFFFFFFFFFFFFFFFFFFFFFFFFFFFFFFFFF AND PUSH20 0xFFFFFFFFFFFFFFFFFFFFFFFFFFFFFFFFFFFFFFFF AND PUSH2 0x8FC SELFBALANCE SWAP1 DUP2 ISZERO MUL SWAP1 PUSH1 0x40 MLOAD PUSH1 0x0 PUSH1 0x40 MLOAD DUP1 DUP4 SUB DUP2 DUP6 DUP9 DUP9 CALL SWAP4 POP POP POP POP ISZERO DUP1 ISZERO PUSH2 0xAF4 JUMPI RETURNDATASIZE PUSH1 0x0 DUP1 RETURNDATACOPY RETURNDATASIZE PUSH1 0x0 REVERT JUMPDEST POP PUSH1 0x1 PUSH1 0x7 PUSH1 0x0 PUSH2 0x100 EXP DUP2 SLOAD DUP2 PUSH1 0xFF MUL NOT AND SWAP1 DUP4 ISZERO ISZERO MUL OR SWAP1 SSTORE POP JUMP JUMPDEST PUSH1 0x40 MLOAD DUP1 PUSH2 0x140 ADD PUSH1 0x40 MSTORE DUP1 PUSH1 0x0 PUSH20 0xFFFFFFFFFFFFFFFFFFFFFFFFFFFFFFFFFFFFFFFF AND DUP2 MSTORE PUSH1 0x20 ADD PUSH1 0x0 PUSH20 0xFFFFFFFFFFFFFFFFFFFFFFFFFFFFFFFFFFFFFFFF AND DUP2 MSTORE PUSH1 0x20 ADD PUSH1 0x0 DUP2 MSTORE PUSH1 0x20 ADD PUSH1 0x0 DUP2 MSTORE PUSH1 0x20 ADD PUSH1 0x0 PUSH4 0xFFFFFFFF AND DUP2 MSTORE PUSH1 0x20 ADD PUSH1 0x0 DUP2 MSTORE PUSH1 0x20 ADD PUSH1 0x0 ISZERO ISZERO DUP2 MSTORE PUSH1 0x20 ADD PUSH1 0x0 DUP1 NOT AND DUP2 MSTORE PUSH1 0x20 ADD PUSH1 0x60 DUP2 MSTORE PUSH1 0x20 ADD PUSH1 0x60 DUP2 MSTORE POP SWAP1 JUMP JUMPDEST PUSH1 0x0 DUP2 CALLDATALOAD SWAP1 POP PUSH2 0xBAB DUP2 PUSH2 0x13DF JUMP JUMPDEST SWAP3 SWAP2 POP POP JUMP JUMPDEST PUSH1 0x0 DUP2 CALLDATALOAD SWAP1 POP PUSH2 0xBC0 DUP2 PUSH2 0x13F6 JUMP JUMPDEST SWAP3 SWAP2 POP POP JUMP JUMPDEST PUSH1 0x0 PUSH1 0x20 DUP3 DUP5 SUB SLT ISZERO PUSH2 0xBDC JUMPI PUSH2 0xBDB PUSH2 0x125E JUMP JUMPDEST JUMPDEST PUSH1 0x0 PUSH2 0xBEA DUP5 DUP3 DUP6 ADD PUSH2 0xB9C JUMP JUMPDEST SWAP2 POP POP SWAP3 SWAP2 POP POP JUMP JUMPDEST PUSH1 0x0 PUSH1 0x20 DUP3 DUP5 SUB SLT ISZERO PUSH2 0xC09 JUMPI PUSH2 0xC08 PUSH2 0x125E JUMP JUMPDEST JUMPDEST PUSH1 0x0 PUSH2 0xC17 DUP5 DUP3 DUP6 ADD PUSH2 0xBB1 JUMP JUMPDEST SWAP2 POP POP SWAP3 SWAP2 POP POP JUMP JUMPDEST PUSH2 0xC29 DUP2 PUSH2 0x119A JUMP JUMPDEST DUP3 MSTORE POP POP JUMP JUMPDEST PUSH2 0xC38 DUP2 PUSH2 0x119A JUMP JUMPDEST DUP3 MSTORE POP POP JUMP JUMPDEST PUSH2 0xC47 DUP2 PUSH2 0x11AC JUMP JUMPDEST DUP3 MSTORE POP POP JUMP JUMPDEST PUSH2 0xC56 DUP2 PUSH2 0x11AC JUMP JUMPDEST DUP3 MSTORE POP POP JUMP JUMPDEST PUSH2 0xC65 DUP2 PUSH2 0x11B8 JUMP JUMPDEST DUP3 MSTORE POP POP JUMP JUMPDEST PUSH2 0xC74 DUP2 PUSH2 0x11B8 JUMP JUMPDEST DUP3 MSTORE POP POP JUMP JUMPDEST PUSH1 0x0 PUSH2 0xC85 DUP3 PUSH2 0x10BD JUMP JUMPDEST PUSH2 0xC8F DUP2 DUP6 PUSH2 0x10C8 JUMP JUMPDEST SWAP4 POP PUSH2 0xC9F DUP2 DUP6 PUSH1 0x20 DUP7 ADD PUSH2 0x11FC JUMP JUMPDEST PUSH2 0xCA8 DUP2 PUSH2 0x1263 JUMP JUMPDEST DUP5 ADD SWAP2 POP POP SWAP3 SWAP2 POP POP JUMP JUMPDEST PUSH1 0x0 PUSH2 0xCC0 PUSH1 0x10 DUP4 PUSH2 0x10D9 JUMP JUMPDEST SWAP2 POP PUSH2 0xCCB DUP3 PUSH2 0x1274 JUMP JUMPDEST PUSH1 0x20 DUP3 ADD SWAP1 POP SWAP2 SWAP1 POP JUMP JUMPDEST PUSH1 0x0 PUSH2 0xCE3 PUSH1 0x11 DUP4 PUSH2 0x10D9 JUMP JUMPDEST SWAP2 POP PUSH2 0xCEE DUP3 PUSH2 0x129D JUMP JUMPDEST PUSH1 0x20 DUP3 ADD SWAP1 POP SWAP2 SWAP1 POP JUMP JUMPDEST PUSH1 0x0 PUSH2 0xD06 PUSH1 0x15 DUP4 PUSH2 0x10D9 JUMP JUMPDEST SWAP2 POP PUSH2 0xD11 DUP3 PUSH2 0x12C6 JUMP JUMPDEST PUSH1 0x20 DUP3 ADD SWAP1 POP SWAP2 SWAP1 POP JUMP JUMPDEST PUSH1 0x0 PUSH2 0xD29 PUSH1 0x37 DUP4 PUSH2 0x10D9 JUMP JUMPDEST SWAP2 POP PUSH2 0xD34 DUP3 PUSH2 0x12EF JUMP JUMPDEST PUSH1 0x40 DUP3 ADD SWAP1 POP SWAP2 SWAP1 POP JUMP JUMPDEST PUSH1 0x0 PUSH2 0xD4C PUSH1 0x16 DUP4 PUSH2 0x10D9 JUMP JUMPDEST SWAP2 POP PUSH2 0xD57 DUP3 PUSH2 0x133E JUMP JUMPDEST PUSH1 0x20 DUP3 ADD SWAP1 POP SWAP2 SWAP1 POP JUMP JUMPDEST PUSH1 0x0 PUSH2 0xD6F PUSH1 0x1D DUP4 PUSH2 0x10D9 JUMP JUMPDEST SWAP2 POP PUSH2 0xD7A DUP3 PUSH2 0x1367 JUMP JUMPDEST PUSH1 0x20 DUP3 ADD SWAP1 POP SWAP2 SWAP1 POP JUMP JUMPDEST PUSH1 0x0 PUSH2 0xD92 PUSH1 0x28 DUP4 PUSH2 0x10D9 JUMP JUMPDEST SWAP2 POP PUSH2 0xD9D DUP3 PUSH2 0x1390 JUMP JUMPDEST PUSH1 0x40 DUP3 ADD SWAP1 POP SWAP2 SWAP1 POP JUMP JUMPDEST PUSH1 0x0 PUSH2 0x140 DUP4 ADD PUSH1 0x0 DUP4 ADD MLOAD PUSH2 0xDC1 PUSH1 0x0 DUP7 ADD DUP3 PUSH2 0xC20 JUMP JUMPDEST POP PUSH1 0x20 DUP4 ADD MLOAD PUSH2 0xDD4 PUSH1 0x20 DUP7 ADD DUP3 PUSH2 0xC20 JUMP JUMPDEST POP PUSH1 0x40 DUP4 ADD MLOAD PUSH2 0xDE7 PUSH1 0x40 DUP7 ADD DUP3 PUSH2 0xE89 JUMP JUMPDEST POP PUSH1 0x60 DUP4 ADD MLOAD PUSH2 0xDFA PUSH1 0x60 DUP7 ADD DUP3 PUSH2 0xE89 JUMP JUMPDEST POP PUSH1 0x80 DUP4 ADD MLOAD PUSH2 0xE0D PUSH1 0x80 DUP7 ADD DUP3 PUSH2 0xEA7 JUMP JUMPDEST POP PUSH1 0xA0 DUP4 ADD MLOAD PUSH2 0xE20 PUSH1 0xA0 DUP7 ADD DUP3 PUSH2 0xE89 JUMP JUMPDEST POP PUSH1 0xC0 DUP4 ADD MLOAD PUSH2 0xE33 PUSH1 0xC0 DUP7 ADD DUP3 PUSH2 0xC3E JUMP JUMPDEST POP PUSH1 0xE0 DUP4 ADD MLOAD PUSH2 0xE46 PUSH1 0xE0 DUP7 ADD DUP3 PUSH2 0xC5C JUMP JUMPDEST POP PUSH2 0x100 DUP4 ADD MLOAD DUP5 DUP3 SUB PUSH2 0x100 DUP7 ADD MSTORE PUSH2 0xE60 DUP3 DUP3 PUSH2 0xC7A JUMP JUMPDEST SWAP2 POP POP PUSH2 0x120 DUP4 ADD MLOAD DUP5 DUP3 SUB PUSH2 0x120 DUP7 ADD MSTORE PUSH2 0xE7C DUP3 DUP3 PUSH2 0xC7A JUMP JUMPDEST SWAP2 POP POP DUP1 SWAP2 POP POP SWAP3 SWAP2 POP POP JUMP JUMPDEST PUSH2 0xE92 DUP2 PUSH2 0x11E2 JUMP JUMPDEST DUP3 MSTORE POP POP JUMP JUMPDEST PUSH2 0xEA1 DUP2 PUSH2 0x11E2 JUMP JUMPDEST DUP3 MSTORE POP POP JUMP JUMPDEST PUSH2 0xEB0 DUP2 PUSH2 0x11EC JUMP JUMPDEST DUP3 MSTORE POP POP JUMP JUMPDEST PUSH2 0xEBF DUP2 PUSH2 0x11EC JUMP JUMPDEST DUP3 MSTORE POP POP JUMP JUMPDEST PUSH1 0x0 PUSH1 0x20 DUP3 ADD SWAP1 POP PUSH2 0xEDA PUSH1 0x0 DUP4 ADD DUP5 PUSH2 0xC2F JUMP JUMPDEST SWAP3 SWAP2 POP POP JUMP JUMPDEST PUSH1 0x0 PUSH1 0xE0 DUP3 ADD SWAP1 POP PUSH2 0xEF5 PUSH1 0x0 DUP4 ADD DUP11 PUSH2 0xC2F JUMP JUMPDEST PUSH2 0xF02 PUSH1 0x20 DUP4 ADD DUP10 PUSH2 0xC2F JUMP JUMPDEST PUSH2 0xF0F PUSH1 0x40 DUP4 ADD DUP9 PUSH2 0xE98 JUMP JUMPDEST PUSH2 0xF1C PUSH1 0x60 DUP4 ADD DUP8 PUSH2 0xE98 JUMP JUMPDEST PUSH2 0xF29 PUSH1 0x80 DUP4 ADD DUP7 PUSH2 0xEB6 JUMP JUMPDEST PUSH2 0xF36 PUSH1 0xA0 DUP4 ADD DUP6 PUSH2 0xE98 JUMP JUMPDEST PUSH2 0xF43 PUSH1 0xC0 DUP4 ADD DUP5 PUSH2 0xC4D JUMP JUMPDEST SWAP9 SWAP8 POP POP POP POP POP POP POP POP JUMP JUMPDEST PUSH1 0x0 PUSH1 0x20 DUP3 ADD SWAP1 POP PUSH2 0xF64 PUSH1 0x0 DUP4 ADD DUP5 PUSH2 0xC4D JUMP JUMPDEST SWAP3 SWAP2 POP POP JUMP JUMPDEST PUSH1 0x0 PUSH1 0x20 DUP3 ADD SWAP1 POP PUSH2 0xF7F PUSH1 0x0 DUP4 ADD DUP5 PUSH2 0xC6B JUMP JUMPDEST SWAP3 SWAP2 POP POP JUMP JUMPDEST PUSH1 0x0 PUSH1 0x20 DUP3 ADD SWAP1 POP DUP2 DUP2 SUB PUSH1 0x0 DUP4 ADD MSTORE PUSH2 0xF9E DUP2 PUSH2 0xCB3 JUMP JUMPDEST SWAP1 POP SWAP2 SWAP1 POP JUMP JUMPDEST PUSH1 0x0 PUSH1 0x20 DUP3 ADD SWAP1 POP DUP2 DUP2 SUB PUSH1 0x0 DUP4 ADD MSTORE PUSH2 0xFBE DUP2 PUSH2 0xCD6 JUMP JUMPDEST SWAP1 POP SWAP2 SWAP1 POP JUMP JUMPDEST PUSH1 0x0 PUSH1 0x20 DUP3 ADD SWAP1 POP DUP2 DUP2 SUB PUSH1 0x0 DUP4 ADD MSTORE PUSH2 0xFDE DUP2 PUSH2 0xCF9 JUMP JUMPDEST SWAP1 POP SWAP2 SWAP1 POP JUMP JUMPDEST PUSH1 0x0 PUSH1 0x20 DUP3 ADD SWAP1 POP DUP2 DUP2 SUB PUSH1 0x0 DUP4 ADD MSTORE PUSH2 0xFFE DUP2 PUSH2 0xD1C JUMP JUMPDEST SWAP1 POP SWAP2 SWAP1 POP JUMP JUMPDEST PUSH1 0x0 PUSH1 0x20 DUP3 ADD SWAP1 POP DUP2 DUP2 SUB PUSH1 0x0 DUP4 ADD MSTORE PUSH2 0x101E DUP2 PUSH2 0xD3F JUMP JUMPDEST SWAP1 POP SWAP2 SWAP1 POP JUMP JUMPDEST PUSH1 0x0 PUSH1 0x20 DUP3 ADD SWAP1 POP DUP2 DUP2 SUB PUSH1 0x0 DUP4 ADD MSTORE PUSH2 0x103E DUP2 PUSH2 0xD62 JUMP JUMPDEST SWAP1 POP SWAP2 SWAP1 POP JUMP JUMPDEST PUSH1 0x0 PUSH1 0x20 DUP3 ADD SWAP1 POP DUP2 DUP2 SUB PUSH1 0x0 DUP4 ADD MSTORE PUSH2 0x105E DUP2 PUSH2 0xD85 JUMP JUMPDEST SWAP1 POP SWAP2 SWAP1 POP JUMP JUMPDEST PUSH1 0x0 PUSH1 0x20 DUP3 ADD SWAP1 POP DUP2 DUP2 SUB PUSH1 0x0 DUP4 ADD MSTORE PUSH2 0x107F DUP2 DUP5 PUSH2 0xDA8 JUMP JUMPDEST SWAP1 POP SWAP3 SWAP2 POP POP JUMP JUMPDEST PUSH1 0x0 PUSH1 0x20 DUP3 ADD SWAP1 POP PUSH2 0x109C PUSH1 0x0 DUP4 ADD DUP5 PUSH2 0xE98 JUMP JUMPDEST SWAP3 SWAP2 POP POP JUMP JUMPDEST PUSH1 0x0 PUSH1 0x20 DUP3 ADD SWAP1 POP PUSH2 0x10B7 PUSH1 0x0 DUP4 ADD DUP5 PUSH2 0xEB6 JUMP JUMPDEST SWAP3 SWAP2 POP POP JUMP JUMPDEST PUSH1 0x0 DUP2 MLOAD SWAP1 POP SWAP2 SWAP1 POP JUMP JUMPDEST PUSH1 0x0 DUP3 DUP3 MSTORE PUSH1 0x20 DUP3 ADD SWAP1 POP SWAP3 SWAP2 POP POP JUMP JUMPDEST PUSH1 0x0 DUP3 DUP3 MSTORE PUSH1 0x20 DUP3 ADD SWAP1 POP SWAP3 SWAP2 POP POP JUMP JUMPDEST PUSH1 0x0 PUSH2 0x10F5 DUP3 PUSH2 0x11E2 JUMP JUMPDEST SWAP2 POP PUSH2 0x1100 DUP4 PUSH2 0x11E2 JUMP JUMPDEST SWAP3 POP DUP3 PUSH32 0xFFFFFFFFFFFFFFFFFFFFFFFFFFFFFFFFFFFFFFFFFFFFFFFFFFFFFFFFFFFFFFFF SUB DUP3 GT ISZERO PUSH2 0x1135 JUMPI PUSH2 0x1134 PUSH2 0x122F JUMP JUMPDEST JUMPDEST DUP3 DUP3 ADD SWAP1 POP SWAP3 SWAP2 POP POP JUMP JUMPDEST PUSH1 0x0 PUSH2 0x114B DUP3 PUSH2 0x11E2 JUMP JUMPDEST SWAP2 POP PUSH2 0x1156 DUP4 PUSH2 0x11E2 JUMP JUMPDEST SWAP3 POP DUP2 PUSH32 0xFFFFFFFFFFFFFFFFFFFFFFFFFFFFFFFFFFFFFFFFFFFFFFFFFFFFFFFFFFFFFFFF DIV DUP4 GT DUP3 ISZERO ISZERO AND ISZERO PUSH2 0x118F JUMPI PUSH2 0x118E PUSH2 0x122F JUMP JUMPDEST JUMPDEST DUP3 DUP3 MUL SWAP1 POP SWAP3 SWAP2 POP POP JUMP JUMPDEST PUSH1 0x0 PUSH2 0x11A5 DUP3 PUSH2 0x11C2 JUMP JUMPDEST SWAP1 POP SWAP2 SWAP1 POP JUMP JUMPDEST PUSH1 0x0 DUP2 ISZERO ISZERO SWAP1 POP SWAP2 SWAP1 POP JUMP JUMPDEST PUSH1 0x0 DUP2 SWAP1 POP SWAP2 SWAP1 POP JUMP JUMPDEST PUSH1 0x0 PUSH20 0xFFFFFFFFFFFFFFFFFFFFFFFFFFFFFFFFFFFFFFFF DUP3 AND SWAP1 POP SWAP2 SWAP1 POP JUMP JUMPDEST PUSH1 0x0 DUP2 SWAP1 POP SWAP2 SWAP1 POP JUMP JUMPDEST PUSH1 0x0 PUSH4 0xFFFFFFFF DUP3 AND SWAP1 POP SWAP2 SWAP1 POP JUMP JUMPDEST PUSH1 0x0 JUMPDEST DUP4 DUP2 LT ISZERO PUSH2 0x121A JUMPI DUP1 DUP3 ADD MLOAD DUP2 DUP5 ADD MSTORE PUSH1 0x20 DUP2 ADD SWAP1 POP PUSH2 0x11FF JUMP JUMPDEST DUP4 DUP2 GT ISZERO PUSH2 0x1229 JUMPI PUSH1 0x0 DUP5 DUP5 ADD MSTORE JUMPDEST POP POP POP POP JUMP JUMPDEST PUSH32 0x4E487B7100000000000000000000000000000000000000000000000000000000 PUSH1 0x0 MSTORE PUSH1 0x11 PUSH1 0x4 MSTORE PUSH1 0x24 PUSH1 0x0 REVERT JUMPDEST PUSH1 0x0 DUP1 REVERT JUMPDEST PUSH1 0x0 PUSH1 0x1F NOT PUSH1 0x1F DUP4 ADD AND SWAP1 POP SWAP2 SWAP1 POP JUMP JUMPDEST PUSH32 0x4E6F7420656E6F756768206D6F6E657900000000000000000000000000000000 PUSH1 0x0 DUP3 ADD MSTORE POP JUMP JUMPDEST PUSH32 0x546F6F206C697474656C206D6F6E657921000000000000000000000000000000 PUSH1 0x0 DUP3 ADD MSTORE POP JUMP JUMPDEST PUSH32 0x596F7520617265206E6F742061206D616E616765720000000000000000000000 PUSH1 0x0 DUP3 ADD MSTORE POP JUMP JUMPDEST PUSH32 0x5468697320707572636861736520776173207375636365737366756C2C20796F PUSH1 0x0 DUP3 ADD MSTORE PUSH32 0x752063616E6E6F74206D616B65206120726566756E6421000000000000000000 PUSH1 0x20 DUP3 ADD MSTORE POP JUMP JUMPDEST PUSH32 0x54686973207075726368617365206973206F7665722100000000000000000000 PUSH1 0x0 DUP3 ADD MSTORE POP JUMP JUMPDEST PUSH32 0x46756E6472616973696E672074696D65206973206E6F74206F76657221000000 PUSH1 0x0 DUP3 ADD MSTORE POP JUMP JUMPDEST PUSH32 0x596F7520617265206E6F74206120637573746F6D657220696E20746869732063 PUSH1 0x0 DUP3 ADD MSTORE PUSH32 0x6F6E747261637421000000000000000000000000000000000000000000000000 PUSH1 0x20 DUP3 ADD MSTORE POP JUMP JUMPDEST PUSH2 0x13E8 DUP2 PUSH2 0x119A JUMP JUMPDEST DUP2 EQ PUSH2 0x13F3 JUMPI PUSH1 0x0 DUP1 REVERT JUMPDEST POP JUMP JUMPDEST PUSH2 0x13FF DUP2 PUSH2 0x11EC JUMP JUMPDEST DUP2 EQ PUSH2 0x140A JUMPI PUSH1 0x0 DUP1 REVERT JUMPDEST POP JUMP INVALID LOG2 PUSH5 0x6970667358 0x22 SLT KECCAK256 CHAINID PUSH30 0xEC34AE2C1A913A7F9BA611EB8ADFCD6DEA888AC4441B04D115AA549EBDE4 PUSH5 0x736F6C6343 STOP ADDMOD SMOD STOP CALLER "
		},
		"gasEstimates": {
			"creation": {
				"codeDepositCost": "1037400",
				"executionCost": "infinite",
				"totalCost": "infinite"
			},
			"external": {
				"cutomersToItems(address)": "2869",
				"endOfFundraising()": "2516",
				"getInfo()": "infinite",
				"getParentInfo()": "infinite",
				"hashOfAllPurchaseInfo()": "2496",
				"isFinished()": "2560",
				"makePurchase()": "infinite",
				"makePurchaseByCustomer()": "infinite",
				"manager()": "2556",
				"minItems()": "2495",
				"participate(uint32)": "infinite",
				"priceForOneItem()": "2451",
				"refund()": "infinite",
				"supplier()": "2582",
				"totalItemsCount()": "2473"
			}
		},
		"methodIdentifiers": {
			"cutomersToItems(address)": "099e209e",
			"endOfFundraising()": "67c6de0b",
			"getInfo()": "5a9b0b89",
			"getParentInfo()": "39ff9f9c",
			"hashOfAllPurchaseInfo()": "50d4bd5b",
			"isFinished()": "7b352962",
			"makePurchase()": "79a62bfc",
			"makePurchaseByCustomer()": "de33cfb0",
			"manager()": "481c6a75",
			"minItems()": "d65b860f",
			"participate(uint32)": "35052e1e",
			"priceForOneItem()": "839c54b2",
			"refund()": "590e1ae3",
			"supplier()": "36da4468",
			"totalItemsCount()": "8d565c3f"
		}
	},
	"abi": [
		{
			"inputs": [
				{
					"internalType": "address",
					"name": "_manager",
					"type": "address"
				},
				{
					"internalType": "address",
					"name": "_supplier",
					"type": "address"
				},
				{
					"internalType": "uint256",
					"name": "_priceForOneItem",
					"type": "uint256"
				},
				{
					"internalType": "uint256",
					"name": "_minItems",
					"type": "uint256"
				},
				{
					"internalType": "uint256",
					"name": "_fundraisingTime",
					"type": "uint256"
				},
				{
					"internalType": "bytes32",
					"name": "_hashOfAllPurchaseInfo",
					"type": "bytes32"
				}
			],
			"stateMutability": "nonpayable",
			"type": "constructor"
		},
		{
			"inputs": [
				{
					"internalType": "address",
					"name": "",
					"type": "address"
				}
			],
			"name": "cutomersToItems",
			"outputs": [
				{
					"internalType": "uint32",
					"name": "",
					"type": "uint32"
				}
			],
			"stateMutability": "view",
			"type": "function"
		},
		{
			"inputs": [],
			"name": "endOfFundraising",
			"outputs": [
				{
					"internalType": "uint32",
					"name": "",
					"type": "uint32"
				}
			],
			"stateMutability": "view",
			"type": "function"
		},
		{
			"inputs": [],
			"name": "getInfo",
			"outputs": [
				{
					"components": [
						{
							"internalType": "address",
							"name": "manager",
							"type": "address"
						},
						{
							"internalType": "address",
							"name": "supplier",
							"type": "address"
						},
						{
							"internalType": "uint256",
							"name": "priceForOneItem",
							"type": "uint256"
						},
						{
							"internalType": "uint256",
							"name": "minItems",
							"type": "uint256"
						},
						{
							"internalType": "uint32",
							"name": "endOfFundraising",
							"type": "uint32"
						},
						{
							"internalType": "uint256",
							"name": "totalItemsCount",
							"type": "uint256"
						},
						{
							"internalType": "bool",
							"name": "isFinished",
							"type": "bool"
						},
						{
							"internalType": "bytes32",
							"name": "hashOfAllPurchaseInfo",
							"type": "bytes32"
						},
						{
							"internalType": "string",
							"name": "title",
							"type": "string"
						},
						{
							"internalType": "string",
							"name": "desc",
							"type": "string"
						}
					],
					"internalType": "struct Purchase.PurchaseInfo",
					"name": "",
					"type": "tuple"
				}
			],
			"stateMutability": "view",
			"type": "function"
		},
		{
			"inputs": [],
			"name": "getParentInfo",
			"outputs": [
				{
					"internalType": "address",
					"name": "",
					"type": "address"
				},
				{
					"internalType": "address",
					"name": "",
					"type": "address"
				},
				{
					"internalType": "uint256",
					"name": "",
					"type": "uint256"
				},
				{
					"internalType": "uint256",
					"name": "",
					"type": "uint256"
				},
				{
					"internalType": "uint32",
					"name": "",
					"type": "uint32"
				},
				{
					"internalType": "uint256",
					"name": "",
					"type": "uint256"
				},
				{
					"internalType": "bool",
					"name": "",
					"type": "bool"
				}
			],
			"stateMutability": "view",
			"type": "function"
		},
		{
			"inputs": [],
			"name": "hashOfAllPurchaseInfo",
			"outputs": [
				{
					"internalType": "bytes32",
					"name": "",
					"type": "bytes32"
				}
			],
			"stateMutability": "view",
			"type": "function"
		},
		{
			"inputs": [],
			"name": "isFinished",
			"outputs": [
				{
					"internalType": "bool",
					"name": "",
					"type": "bool"
				}
			],
			"stateMutability": "view",
			"type": "function"
		},
		{
			"inputs": [],
			"name": "makePurchase",
			"outputs": [],
			"stateMutability": "nonpayable",
			"type": "function"
		},
		{
			"inputs": [],
			"name": "makePurchaseByCustomer",
			"outputs": [],
			"stateMutability": "nonpayable",
			"type": "function"
		},
		{
			"inputs": [],
			"name": "manager",
			"outputs": [
				{
					"internalType": "address",
					"name": "",
					"type": "address"
				}
			],
			"stateMutability": "view",
			"type": "function"
		},
		{
			"inputs": [],
			"name": "minItems",
			"outputs": [
				{
					"internalType": "uint256",
					"name": "",
					"type": "uint256"
				}
			],
			"stateMutability": "view",
			"type": "function"
		},
		{
			"inputs": [
				{
					"internalType": "uint32",
					"name": "_itemsCount",
					"type": "uint32"
				}
			],
			"name": "participate",
			"outputs": [],
			"stateMutability": "payable",
			"type": "function"
		},
		{
			"inputs": [],
			"name": "priceForOneItem",
			"outputs": [
				{
					"internalType": "uint256",
					"name": "",
					"type": "uint256"
				}
			],
			"stateMutability": "view",
			"type": "function"
		},
		{
			"inputs": [],
			"name": "refund",
			"outputs": [],
			"stateMutability": "nonpayable",
			"type": "function"
		},
		{
			"inputs": [],
			"name": "supplier",
			"outputs": [
				{
					"internalType": "address",
					"name": "",
					"type": "address"
				}
			],
			"stateMutability": "view",
			"type": "function"
		},
		{
			"inputs": [],
			"name": "totalItemsCount",
			"outputs": [
				{
					"internalType": "uint256",
					"name": "",
					"type": "uint256"
				}
			],
			"stateMutability": "view",
			"type": "function"
		}
	]
}