{
	"data": {
		"bytecode": {
			"linkReferences": {},
			"object": "608060405234801561001057600080fd5b50613eca806100206000396000f3fe60806040523480156200001157600080fd5b5060043610620000525760003560e01c80631d7fb22514620000575780633f2859511462000077578063bca88e2e1462000097578063d84277ea14620000cd575b600080fd5b6200007560048036038101906200006f919062000405565b620000ef565b005b6200009560048036038101906200008f91906200048d565b620001a1565b005b620000b56004803603810190620000af919062000567565b62000256565b604051620000c49190620006a2565b60405180910390f35b620000d762000296565b604051620000e69190620007b7565b60405180910390f35b6000338686868686604051620001059062000326565b6200011696959493929190620006bf565b604051809103906000f08015801562000133573d6000803e3d6000fd5b5090506000819080600181540180825580915050600190039060005260206000200160009091909190916101000a81548173ffffffffffffffffffffffffffffffffffffffff021916908373ffffffffffffffffffffffffffffffffffffffff160217905550505050505050565b600033878787878787604051620001b89062000334565b620001ca97969594939291906200072c565b604051809103906000f080158015620001e7573d6000803e3d6000fd5b5090506000819080600181540180825580915050600190039060005260206000200160009091909190916101000a81548173ffffffffffffffffffffffffffffffffffffffff021916908373ffffffffffffffffffffffffffffffffffffffff16021790555050505050505050565b600081815481106200026757600080fd5b906000526020600020016000915054906101000a900473ffffffffffffffffffffffffffffffffffffffff1681565b606060008054806020026020016040519081016040528092919081815260200182805480156200031c57602002820191906000526020600020905b8160009054906101000a900473ffffffffffffffffffffffffffffffffffffffff1673ffffffffffffffffffffffffffffffffffffffff1681526020019060010190808311620002d1575b5050505050905090565b61176c80620009f583390190565b611d34806200216183390190565b600062000359620003538462000804565b620007db565b90508281526020810184848401111562000378576200037762000986565b5b62000385848285620008d7565b509392505050565b6000813590506200039e81620009a6565b92915050565b600081359050620003b581620009c0565b92915050565b600082601f830112620003d357620003d262000981565b5b8135620003e584826020860162000342565b91505092915050565b600081359050620003ff81620009da565b92915050565b600080600080600060a0868803121562000424576200042362000990565b5b600062000434888289016200038d565b95505060206200044788828901620003ee565b94505060406200045a88828901620003ee565b93505060606200046d88828901620003ee565b92505060806200048088828901620003a4565b9150509295509295909350565b60008060008060008060c08789031215620004ad57620004ac62000990565b5b6000620004bd89828a016200038d565b9650506020620004d089828a01620003ee565b9550506040620004e389828a01620003ee565b9450506060620004f689828a01620003ee565b935050608087013567ffffffffffffffff8111156200051a57620005196200098b565b5b6200052889828a01620003bb565b92505060a087013567ffffffffffffffff8111156200054c576200054b6200098b565b5b6200055a89828a01620003bb565b9150509295509295509295565b60006020828403121562000580576200057f62000990565b5b60006200059084828501620003ee565b91505092915050565b6000620005a78383620005b3565b60208301905092915050565b620005be816200088f565b82525050565b620005cf816200088f565b82525050565b6000620005e2826200084a565b620005ee81856200086d565b9350620005fb836200083a565b8060005b838110156200063257815162000616888262000599565b9750620006238362000860565b925050600181019050620005ff565b5085935050505092915050565b6200064a81620008a3565b82525050565b60006200065d8262000855565b6200066981856200087e565b93506200067b818560208601620008e6565b620006868162000995565b840191505092915050565b6200069c81620008cd565b82525050565b6000602082019050620006b96000830184620005c4565b92915050565b600060c082019050620006d66000830189620005c4565b620006e56020830188620005c4565b620006f4604083018762000691565b62000703606083018662000691565b62000712608083018562000691565b6200072160a08301846200063f565b979650505050505050565b600060e08201905062000743600083018a620005c4565b620007526020830189620005c4565b62000761604083018862000691565b62000770606083018762000691565b6200077f608083018662000691565b81810360a083015262000793818562000650565b905081810360c0830152620007a9818462000650565b905098975050505050505050565b60006020820190508181036000830152620007d38184620005d5565b905092915050565b6000620007e7620007fa565b9050620007f582826200091c565b919050565b6000604051905090565b600067ffffffffffffffff82111562000822576200082162000952565b5b6200082d8262000995565b9050602081019050919050565b6000819050602082019050919050565b600081519050919050565b600081519050919050565b6000602082019050919050565b600082825260208201905092915050565b600082825260208201905092915050565b60006200089c82620008ad565b9050919050565b6000819050919050565b600073ffffffffffffffffffffffffffffffffffffffff82169050919050565b6000819050919050565b82818337600083830152505050565b60005b8381101562000906578082015181840152602081019050620008e9565b8381111562000916576000848401525b50505050565b620009278262000995565b810181811067ffffffffffffffff8211171562000949576200094862000952565b5b80604052505050565b7f4e487b7100000000000000000000000000000000000000000000000000000000600052604160045260246000fd5b600080fd5b600080fd5b600080fd5b600080fd5b6000601f19601f8301169050919050565b620009b1816200088f565b8114620009bd57600080fd5b50565b620009cb81620008a3565b8114620009d757600080fd5b50565b620009e581620008cd565b8114620009f157600080fd5b5056fe60806040523480156200001157600080fd5b506040516200176c3803806200176c833981810160405281019062000037919062000156565b8585858585846000806101000a81548173ffffffffffffffffffffffffffffffffffffffff021916908373ffffffffffffffffffffffffffffffffffffffff16021790555083600160006101000a81548173ffffffffffffffffffffffffffffffffffffffff021916908373ffffffffffffffffffffffffffffffffffffffff16021790555082600281905550816003819055508042620000d99190620001f2565b600460006101000a81548163ffffffff021916908363ffffffff16021790555050505050508060088190555050505050505062000319565b6000815190506200012281620002cb565b92915050565b6000815190506200013981620002e5565b92915050565b6000815190506200015081620002ff565b92915050565b60008060008060008060c08789031215620001765762000175620002c6565b5b60006200018689828a0162000111565b96505060206200019989828a0162000111565b9550506040620001ac89828a016200013f565b9450506060620001bf89828a016200013f565b9350506080620001d289828a016200013f565b92505060a0620001e589828a0162000128565b9150509295509295509295565b6000620001ff826200028d565b91506200020c836200028d565b9250827fffffffffffffffffffffffffffffffffffffffffffffffffffffffffffffffff0382111562000244576200024362000297565b5b828201905092915050565b60006200025c826200026d565b9050919050565b6000819050919050565b600073ffffffffffffffffffffffffffffffffffffffff82169050919050565b6000819050919050565b7f4e487b7100000000000000000000000000000000000000000000000000000000600052601160045260246000fd5b600080fd5b620002d6816200024f565b8114620002e257600080fd5b50565b620002f08162000263565b8114620002fc57600080fd5b50565b6200030a816200028d565b81146200031657600080fd5b50565b61144380620003296000396000f3fe6080604052600436106100e85760003560e01c80635a9b0b891161008a578063839c54b211610059578063839c54b2146102a75780638d565c3f146102d2578063d65b860f146102fd578063de33cfb014610328576100e8565b80635a9b0b891461020f57806367c6de0b1461023a57806379a62bfc146102655780637b3529621461027c576100e8565b806339ff9f9c116100c657806339ff9f9c14610171578063481c6a75146101a257806350d4bd5b146101cd578063590e1ae3146101f8576100e8565b8063099e209e146100ed57806335052e1e1461012a57806336da446814610146575b600080fd5b3480156100f957600080fd5b50610114600480360381019061010f9190610bc6565b61033f565b60405161012191906110a2565b60405180910390f35b610144600480360381019061013f9190610bf3565b610362565b005b34801561015257600080fd5b5061015b61048e565b6040516101689190610ec5565b60405180910390f35b34801561017d57600080fd5b506101866104b4565b6040516101999796959493929190610ee0565b60405180910390f35b3480156101ae57600080fd5b506101b7610547565b6040516101c49190610ec5565b60405180910390f35b3480156101d957600080fd5b506101e261056b565b6040516101ef9190610f6a565b60405180910390f35b34801561020457600080fd5b5061020d610571565b005b34801561021b57600080fd5b5061022461075a565b6040516102319190611065565b60405180910390f35b34801561024657600080fd5b5061024f61082f565b60405161025c91906110a2565b60405180910390f35b34801561027157600080fd5b5061027a610845565b005b34801561028857600080fd5b50610291610924565b60405161029e9190610f4f565b60405180910390f35b3480156102b357600080fd5b506102bc610937565b6040516102c99190611087565b60405180910390f35b3480156102de57600080fd5b506102e761093d565b6040516102f49190611087565b60405180910390f35b34801561030957600080fd5b50610312610943565b60405161031f9190611087565b60405180910390f35b34801561033457600080fd5b5061033d610949565b005b60056020528060005260406000206000915054906101000a900463ffffffff1681565b600760009054906101000a900460ff16156103b2576040517f08c379a00000000000000000000000000000000000000000000000000000000081526004016103a990611005565b60405180910390fd5b60008163ffffffff166002546103c89190611140565b90503481111561040d576040517f08c379a000000000000000000000000000000000000000000000000000000000815260040161040490610fa5565b60405180910390fd5b81600560003373ffffffffffffffffffffffffffffffffffffffff1673ffffffffffffffffffffffffffffffffffffffff16815260200190815260200160002060006101000a81548163ffffffff021916908363ffffffff1602179055508163ffffffff166006600082825461048391906110ea565b925050819055505050565b600160009054906101000a900473ffffffffffffffffffffffffffffffffffffffff1681565b60008060008060008060008060009054906101000a900473ffffffffffffffffffffffffffffffffffffffff16600160009054906101000a900473ffffffffffffffffffffffffffffffffffffffff16600254600354600460009054906101000a900463ffffffff16600654600760009054906101000a900460ff16965096509650965096509650965090919293949596565b60008054906101000a900473ffffffffffffffffffffffffffffffffffffffff1681565b60085481565b6000600560003373ffffffffffffffffffffffffffffffffffffffff1673ffffffffffffffffffffffffffffffffffffffff16815260200190815260200160002060009054906101000a900463ffffffff1663ffffffff1611610609576040517f08c379a000000000000000000000000000000000000000000000000000000000815260040161060090611045565b60405180910390fd5b600460009054906101000a900463ffffffff1663ffffffff164211610663576040517f08c379a000000000000000000000000000000000000000000000000000000000815260040161065a90611025565b60405180910390fd5b600354600654106106a9576040517f08c379a00000000000000000000000000000000000000000000000000000000081526004016106a090610fe5565b60405180910390fd5b6000600254600560003373ffffffffffffffffffffffffffffffffffffffff1673ffffffffffffffffffffffffffffffffffffffff16815260200190815260200160002060009054906101000a900463ffffffff1663ffffffff1661070e9190611140565b90503373ffffffffffffffffffffffffffffffffffffffff166108fc829081150290604051600060405180830381858888f19350505050158015610756573d6000803e3d6000fd5b5050565b610762610b12565b60008060008060008060006107756104b4565b965096509650965096509650965060006040518061014001604052808973ffffffffffffffffffffffffffffffffffffffff1681526020018873ffffffffffffffffffffffffffffffffffffffff1681526020018781526020018681526020018563ffffffff16815260200184815260200183151581526020016008548152602001604051806020016040528060008152508152602001604051806020016040528060008152508152509050809850505050505050505090565b600460009054906101000a900463ffffffff1681565b600354600654101561088c576040517f08c379a000000000000000000000000000000000000000000000000000000000815260040161088390610f85565b60405180910390fd5b3373ffffffffffffffffffffffffffffffffffffffff1660008054906101000a900473ffffffffffffffffffffffffffffffffffffffff1673ffffffffffffffffffffffffffffffffffffffff161461091a576040517f08c379a000000000000000000000000000000000000000000000000000000000815260040161091190610fc5565b60405180910390fd5b610922610a8c565b565b600760009054906101000a900460ff1681565b60025481565b60065481565b60035481565b6000600560003373ffffffffffffffffffffffffffffffffffffffff1673ffffffffffffffffffffffffffffffffffffffff16815260200190815260200160002060009054906101000a900463ffffffff1663ffffffff16116109e1576040517f08c379a00000000000000000000000000000000000000000000000000000000081526004016109d890611045565b60405180910390fd5b600460009054906101000a900463ffffffff1663ffffffff164211610a3b576040517f08c379a0000000000000000000000000000000000000000000000000000000008152600401610a3290611025565b60405180910390fd5b6003546006541015610a82576040517f08c379a0000000000000000000000000000000000000000000000000000000008152600401610a7990610f85565b60405180910390fd5b610a8a610a8c565b565b600160009054906101000a900473ffffffffffffffffffffffffffffffffffffffff1673ffffffffffffffffffffffffffffffffffffffff166108fc479081150290604051600060405180830381858888f19350505050158015610af4573d6000803e3d6000fd5b506001600760006101000a81548160ff021916908315150217905550565b604051806101400160405280600073ffffffffffffffffffffffffffffffffffffffff168152602001600073ffffffffffffffffffffffffffffffffffffffff1681526020016000815260200160008152602001600063ffffffff168152602001600081526020016000151581526020016000801916815260200160608152602001606081525090565b600081359050610bab816113df565b92915050565b600081359050610bc0816113f6565b92915050565b600060208284031215610bdc57610bdb61125e565b5b6000610bea84828501610b9c565b91505092915050565b600060208284031215610c0957610c0861125e565b5b6000610c1784828501610bb1565b91505092915050565b610c298161119a565b82525050565b610c388161119a565b82525050565b610c47816111ac565b82525050565b610c56816111ac565b82525050565b610c65816111b8565b82525050565b610c74816111b8565b82525050565b6000610c85826110bd565b610c8f81856110c8565b9350610c9f8185602086016111fc565b610ca881611263565b840191505092915050565b6000610cc06010836110d9565b9150610ccb82611274565b602082019050919050565b6000610ce36011836110d9565b9150610cee8261129d565b602082019050919050565b6000610d066015836110d9565b9150610d11826112c6565b602082019050919050565b6000610d296037836110d9565b9150610d34826112ef565b604082019050919050565b6000610d4c6016836110d9565b9150610d578261133e565b602082019050919050565b6000610d6f601d836110d9565b9150610d7a82611367565b602082019050919050565b6000610d926028836110d9565b9150610d9d82611390565b604082019050919050565b600061014083016000830151610dc16000860182610c20565b506020830151610dd46020860182610c20565b506040830151610de76040860182610e89565b506060830151610dfa6060860182610e89565b506080830151610e0d6080860182610ea7565b5060a0830151610e2060a0860182610e89565b5060c0830151610e3360c0860182610c3e565b5060e0830151610e4660e0860182610c5c565b50610100830151848203610100860152610e608282610c7a565b915050610120830151848203610120860152610e7c8282610c7a565b9150508091505092915050565b610e92816111e2565b82525050565b610ea1816111e2565b82525050565b610eb0816111ec565b82525050565b610ebf816111ec565b82525050565b6000602082019050610eda6000830184610c2f565b92915050565b600060e082019050610ef5600083018a610c2f565b610f026020830189610c2f565b610f0f6040830188610e98565b610f1c6060830187610e98565b610f296080830186610eb6565b610f3660a0830185610e98565b610f4360c0830184610c4d565b98975050505050505050565b6000602082019050610f646000830184610c4d565b92915050565b6000602082019050610f7f6000830184610c6b565b92915050565b60006020820190508181036000830152610f9e81610cb3565b9050919050565b60006020820190508181036000830152610fbe81610cd6565b9050919050565b60006020820190508181036000830152610fde81610cf9565b9050919050565b60006020820190508181036000830152610ffe81610d1c565b9050919050565b6000602082019050818103600083015261101e81610d3f565b9050919050565b6000602082019050818103600083015261103e81610d62565b9050919050565b6000602082019050818103600083015261105e81610d85565b9050919050565b6000602082019050818103600083015261107f8184610da8565b905092915050565b600060208201905061109c6000830184610e98565b92915050565b60006020820190506110b76000830184610eb6565b92915050565b600081519050919050565b600082825260208201905092915050565b600082825260208201905092915050565b60006110f5826111e2565b9150611100836111e2565b9250827fffffffffffffffffffffffffffffffffffffffffffffffffffffffffffffffff038211156111355761113461122f565b5b828201905092915050565b600061114b826111e2565b9150611156836111e2565b9250817fffffffffffffffffffffffffffffffffffffffffffffffffffffffffffffffff048311821515161561118f5761118e61122f565b5b828202905092915050565b60006111a5826111c2565b9050919050565b60008115159050919050565b6000819050919050565b600073ffffffffffffffffffffffffffffffffffffffff82169050919050565b6000819050919050565b600063ffffffff82169050919050565b60005b8381101561121a5780820151818401526020810190506111ff565b83811115611229576000848401525b50505050565b7f4e487b7100000000000000000000000000000000000000000000000000000000600052601160045260246000fd5b600080fd5b6000601f19601f8301169050919050565b7f4e6f7420656e6f756768206d6f6e657900000000000000000000000000000000600082015250565b7f546f6f206c697474656c206d6f6e657921000000000000000000000000000000600082015250565b7f596f7520617265206e6f742061206d616e616765720000000000000000000000600082015250565b7f5468697320707572636861736520776173207375636365737366756c2c20796f60008201527f752063616e6e6f74206d616b65206120726566756e6421000000000000000000602082015250565b7f54686973207075726368617365206973206f7665722100000000000000000000600082015250565b7f46756e6472616973696e672074696d65206973206e6f74206f76657221000000600082015250565b7f596f7520617265206e6f74206120637573746f6d657220696e2074686973206360008201527f6f6e747261637421000000000000000000000000000000000000000000000000602082015250565b6113e88161119a565b81146113f357600080fd5b50565b6113ff816111ec565b811461140a57600080fd5b5056fea2646970667358221220467dec34ae2c1a913a7f9ba611eb8adfcd6dea888ac4441b04d115aa549ebde464736f6c6343000807003360806040523480156200001157600080fd5b5060405162001d3438038062001d34833981810160405281019062000037919062000299565b8686868686846000806101000a81548173ffffffffffffffffffffffffffffffffffffffff021916908373ffffffffffffffffffffffffffffffffffffffff16021790555083600160006101000a81548173ffffffffffffffffffffffffffffffffffffffff021916908373ffffffffffffffffffffffffffffffffffffffff16021790555082600281905550816003819055508042620000d99190620003e9565b600460006101000a81548163ffffffff021916908363ffffffff16021790555050505050508160089080519060200190620001169291906200013d565b5080600990805190602001906200012f9291906200013d565b50505050505050506200060c565b8280546200014b90620004ba565b90600052602060002090601f0160209004810192826200016f5760008555620001bb565b82601f106200018a57805160ff1916838001178555620001bb565b82800160010185558215620001bb579182015b82811115620001ba5782518255916020019190600101906200019d565b5b509050620001ca9190620001ce565b5090565b5b80821115620001e9576000816000905550600101620001cf565b5090565b600062000204620001fe84620003b3565b6200038a565b905082815260208101848484011115620002235762000222620005b8565b5b6200023084828562000484565b509392505050565b6000815190506200024981620005d8565b92915050565b600082601f830112620002675762000266620005b3565b5b815162000279848260208601620001ed565b91505092915050565b6000815190506200029381620005f2565b92915050565b600080600080600080600060e0888a031215620002bb57620002ba620005c2565b5b6000620002cb8a828b0162000238565b9750506020620002de8a828b0162000238565b9650506040620002f18a828b0162000282565b9550506060620003048a828b0162000282565b9450506080620003178a828b0162000282565b93505060a088015167ffffffffffffffff8111156200033b576200033a620005bd565b5b620003498a828b016200024f565b92505060c088015167ffffffffffffffff8111156200036d576200036c620005bd565b5b6200037b8a828b016200024f565b91505092959891949750929550565b600062000396620003a9565b9050620003a48282620004f0565b919050565b6000604051905090565b600067ffffffffffffffff821115620003d157620003d062000584565b5b620003dc82620005c7565b9050602081019050919050565b6000620003f6826200047a565b915062000403836200047a565b9250827fffffffffffffffffffffffffffffffffffffffffffffffffffffffffffffffff038211156200043b576200043a62000526565b5b828201905092915050565b600062000453826200045a565b9050919050565b600073ffffffffffffffffffffffffffffffffffffffff82169050919050565b6000819050919050565b60005b83811015620004a457808201518184015260208101905062000487565b83811115620004b4576000848401525b50505050565b60006002820490506001821680620004d357607f821691505b60208210811415620004ea57620004e962000555565b5b50919050565b620004fb82620005c7565b810181811067ffffffffffffffff821117156200051d576200051c62000584565b5b80604052505050565b7f4e487b7100000000000000000000000000000000000000000000000000000000600052601160045260246000fd5b7f4e487b7100000000000000000000000000000000000000000000000000000000600052602260045260246000fd5b7f4e487b7100000000000000000000000000000000000000000000000000000000600052604160045260246000fd5b600080fd5b600080fd5b600080fd5b600080fd5b6000601f19601f8301169050919050565b620005e38162000446565b8114620005ef57600080fd5b50565b620005fd816200047a565b81146200060957600080fd5b50565b611718806200061c6000396000f3fe6080604052600436106100f35760003560e01c80635a9b0b891161008a578063839c54b211610059578063839c54b2146102dd5780638d565c3f14610308578063d65b860f14610333578063de33cfb01461035e576100f3565b80635a9b0b891461024557806367c6de0b1461027057806379a62bfc1461029b5780637b352962146102b2576100f3565b8063481c6a75116100c6578063481c6a75146101ad5780634a79d50c146101d857806355f150f114610203578063590e1ae31461022e576100f3565b8063099e209e146100f857806335052e1e1461013557806336da44681461015157806339ff9f9c1461017c575b600080fd5b34801561010457600080fd5b5061011f600480360381019061011a9190610e09565b610375565b60405161012c9190611316565b60405180910390f35b61014f600480360381019061014a9190610e36565b610398565b005b34801561015d57600080fd5b506101666104c4565b6040516101739190611132565b60405180910390f35b34801561018857600080fd5b506101916104ea565b6040516101a4979695949392919061114d565b60405180910390f35b3480156101b957600080fd5b506101c261057d565b6040516101cf9190611132565b60405180910390f35b3480156101e457600080fd5b506101ed6105a1565b6040516101fa91906111d7565b60405180910390f35b34801561020f57600080fd5b5061021861062f565b60405161022591906111d7565b60405180910390f35b34801561023a57600080fd5b506102436106bd565b005b34801561025157600080fd5b5061025a6108a6565b60405161026791906112d9565b60405180910390f35b34801561027c57600080fd5b50610285610a72565b6040516102929190611316565b60405180910390f35b3480156102a757600080fd5b506102b0610a88565b005b3480156102be57600080fd5b506102c7610b67565b6040516102d491906111bc565b60405180910390f35b3480156102e957600080fd5b506102f2610b7a565b6040516102ff91906112fb565b60405180910390f35b34801561031457600080fd5b5061031d610b80565b60405161032a91906112fb565b60405180910390f35b34801561033f57600080fd5b50610348610b86565b60405161035591906112fb565b60405180910390f35b34801561036a57600080fd5b50610373610b8c565b005b60056020528060005260406000206000915054906101000a900463ffffffff1681565b600760009054906101000a900460ff16156103e8576040517f08c379a00000000000000000000000000000000000000000000000000000000081526004016103df90611279565b60405180910390fd5b60008163ffffffff166002546103fe91906113b4565b905034811115610443576040517f08c379a000000000000000000000000000000000000000000000000000000000815260040161043a90611219565b60405180910390fd5b81600560003373ffffffffffffffffffffffffffffffffffffffff1673ffffffffffffffffffffffffffffffffffffffff16815260200190815260200160002060006101000a81548163ffffffff021916908363ffffffff1602179055508163ffffffff16600660008282546104b9919061135e565b925050819055505050565b600160009054906101000a900473ffffffffffffffffffffffffffffffffffffffff1681565b60008060008060008060008060009054906101000a900473ffffffffffffffffffffffffffffffffffffffff16600160009054906101000a900473ffffffffffffffffffffffffffffffffffffffff16600254600354600460009054906101000a900463ffffffff16600654600760009054906101000a900460ff16965096509650965096509650965090919293949596565b60008054906101000a900473ffffffffffffffffffffffffffffffffffffffff1681565b600880546105ae906114a3565b80601f01602080910402602001604051908101604052809291908181526020018280546105da906114a3565b80156106275780601f106105fc57610100808354040283529160200191610627565b820191906000526020600020905b81548152906001019060200180831161060a57829003601f168201915b505050505081565b6009805461063c906114a3565b80601f0160208091040260200160405190810160405280929190818152602001828054610668906114a3565b80156106b55780601f1061068a576101008083540402835291602001916106b5565b820191906000526020600020905b81548152906001019060200180831161069857829003601f168201915b505050505081565b6000600560003373ffffffffffffffffffffffffffffffffffffffff1673ffffffffffffffffffffffffffffffffffffffff16815260200190815260200160002060009054906101000a900463ffffffff1663ffffffff1611610755576040517f08c379a000000000000000000000000000000000000000000000000000000000815260040161074c906112b9565b60405180910390fd5b600460009054906101000a900463ffffffff1663ffffffff1642116107af576040517f08c379a00000000000000000000000000000000000000000000000000000000081526004016107a690611299565b60405180910390fd5b600354600654106107f5576040517f08c379a00000000000000000000000000000000000000000000000000000000081526004016107ec90611259565b60405180910390fd5b6000600254600560003373ffffffffffffffffffffffffffffffffffffffff1673ffffffffffffffffffffffffffffffffffffffff16815260200190815260200160002060009054906101000a900463ffffffff1663ffffffff1661085a91906113b4565b90503373ffffffffffffffffffffffffffffffffffffffff166108fc829081150290604051600060405180830381858888f193505050501580156108a2573d6000803e3d6000fd5b5050565b6108ae610d55565b60008060008060008060006108c16104ea565b965096509650965096509650965060006040518061014001604052808973ffffffffffffffffffffffffffffffffffffffff1681526020018873ffffffffffffffffffffffffffffffffffffffff1681526020018781526020018681526020018563ffffffff16815260200184815260200183151581526020016000801b815260200160088054610951906114a3565b80601f016020809104026020016040519081016040528092919081815260200182805461097d906114a3565b80156109ca5780601f1061099f576101008083540402835291602001916109ca565b820191906000526020600020905b8154815290600101906020018083116109ad57829003601f168201915b50505050508152602001600980546109e1906114a3565b80601f0160208091040260200160405190810160405280929190818152602001828054610a0d906114a3565b8015610a5a5780601f10610a2f57610100808354040283529160200191610a5a565b820191906000526020600020905b815481529060010190602001808311610a3d57829003601f168201915b50505050508152509050809850505050505050505090565b600460009054906101000a900463ffffffff1681565b6003546006541015610acf576040517f08c379a0000000000000000000000000000000000000000000000000000000008152600401610ac6906111f9565b60405180910390fd5b3373ffffffffffffffffffffffffffffffffffffffff1660008054906101000a900473ffffffffffffffffffffffffffffffffffffffff1673ffffffffffffffffffffffffffffffffffffffff1614610b5d576040517f08c379a0000000000000000000000000000000000000000000000000000000008152600401610b5490611239565b60405180910390fd5b610b65610ccf565b565b600760009054906101000a900460ff1681565b60025481565b60065481565b60035481565b6000600560003373ffffffffffffffffffffffffffffffffffffffff1673ffffffffffffffffffffffffffffffffffffffff16815260200190815260200160002060009054906101000a900463ffffffff1663ffffffff1611610c24576040517f08c379a0000000000000000000000000000000000000000000000000000000008152600401610c1b906112b9565b60405180910390fd5b600460009054906101000a900463ffffffff1663ffffffff164211610c7e576040517f08c379a0000000000000000000000000000000000000000000000000000000008152600401610c7590611299565b60405180910390fd5b6003546006541015610cc5576040517f08c379a0000000000000000000000000000000000000000000000000000000008152600401610cbc906111f9565b60405180910390fd5b610ccd610ccf565b565b600160009054906101000a900473ffffffffffffffffffffffffffffffffffffffff1673ffffffffffffffffffffffffffffffffffffffff166108fc479081150290604051600060405180830381858888f19350505050158015610d37573d6000803e3d6000fd5b506001600760006101000a81548160ff021916908315150217905550565b604051806101400160405280600073ffffffffffffffffffffffffffffffffffffffff168152602001600073ffffffffffffffffffffffffffffffffffffffff1681526020016000815260200160008152602001600063ffffffff168152602001600081526020016000151581526020016000801916815260200160608152602001606081525090565b600081359050610dee816116b4565b92915050565b600081359050610e03816116cb565b92915050565b600060208284031215610e1f57610e1e611533565b5b6000610e2d84828501610ddf565b91505092915050565b600060208284031215610e4c57610e4b611533565b5b6000610e5a84828501610df4565b91505092915050565b610e6c8161140e565b82525050565b610e7b8161140e565b82525050565b610e8a81611420565b82525050565b610e9981611420565b82525050565b610ea88161142c565b82525050565b6000610eb982611331565b610ec3818561133c565b9350610ed3818560208601611470565b610edc81611538565b840191505092915050565b6000610ef282611331565b610efc818561134d565b9350610f0c818560208601611470565b610f1581611538565b840191505092915050565b6000610f2d60108361134d565b9150610f3882611549565b602082019050919050565b6000610f5060118361134d565b9150610f5b82611572565b602082019050919050565b6000610f7360158361134d565b9150610f7e8261159b565b602082019050919050565b6000610f9660378361134d565b9150610fa1826115c4565b604082019050919050565b6000610fb960168361134d565b9150610fc482611613565b602082019050919050565b6000610fdc601d8361134d565b9150610fe78261163c565b602082019050919050565b6000610fff60288361134d565b915061100a82611665565b604082019050919050565b60006101408301600083015161102e6000860182610e63565b5060208301516110416020860182610e63565b50604083015161105460408601826110f6565b50606083015161106760608601826110f6565b50608083015161107a6080860182611114565b5060a083015161108d60a08601826110f6565b5060c08301516110a060c0860182610e81565b5060e08301516110b360e0860182610e9f565b506101008301518482036101008601526110cd8282610eae565b9150506101208301518482036101208601526110e98282610eae565b9150508091505092915050565b6110ff81611456565b82525050565b61110e81611456565b82525050565b61111d81611460565b82525050565b61112c81611460565b82525050565b60006020820190506111476000830184610e72565b92915050565b600060e082019050611162600083018a610e72565b61116f6020830189610e72565b61117c6040830188611105565b6111896060830187611105565b6111966080830186611123565b6111a360a0830185611105565b6111b060c0830184610e90565b98975050505050505050565b60006020820190506111d16000830184610e90565b92915050565b600060208201905081810360008301526111f18184610ee7565b905092915050565b6000602082019050818103600083015261121281610f20565b9050919050565b6000602082019050818103600083015261123281610f43565b9050919050565b6000602082019050818103600083015261125281610f66565b9050919050565b6000602082019050818103600083015261127281610f89565b9050919050565b6000602082019050818103600083015261129281610fac565b9050919050565b600060208201905081810360008301526112b281610fcf565b9050919050565b600060208201905081810360008301526112d281610ff2565b9050919050565b600060208201905081810360008301526112f38184611015565b905092915050565b60006020820190506113106000830184611105565b92915050565b600060208201905061132b6000830184611123565b92915050565b600081519050919050565b600082825260208201905092915050565b600082825260208201905092915050565b600061136982611456565b915061137483611456565b9250827fffffffffffffffffffffffffffffffffffffffffffffffffffffffffffffffff038211156113a9576113a86114d5565b5b828201905092915050565b60006113bf82611456565b91506113ca83611456565b9250817fffffffffffffffffffffffffffffffffffffffffffffffffffffffffffffffff0483118215151615611403576114026114d5565b5b828202905092915050565b600061141982611436565b9050919050565b60008115159050919050565b6000819050919050565b600073ffffffffffffffffffffffffffffffffffffffff82169050919050565b6000819050919050565b600063ffffffff82169050919050565b60005b8381101561148e578082015181840152602081019050611473565b8381111561149d576000848401525b50505050565b600060028204905060018216806114bb57607f821691505b602082108114156114cf576114ce611504565b5b50919050565b7f4e487b7100000000000000000000000000000000000000000000000000000000600052601160045260246000fd5b7f4e487b7100000000000000000000000000000000000000000000000000000000600052602260045260246000fd5b600080fd5b6000601f19601f8301169050919050565b7f4e6f7420656e6f756768206d6f6e657900000000000000000000000000000000600082015250565b7f546f6f206c697474656c206d6f6e657921000000000000000000000000000000600082015250565b7f596f7520617265206e6f742061206d616e616765720000000000000000000000600082015250565b7f5468697320707572636861736520776173207375636365737366756c2c20796f60008201527f752063616e6e6f74206d616b65206120726566756e6421000000000000000000602082015250565b7f54686973207075726368617365206973206f7665722100000000000000000000600082015250565b7f46756e6472616973696e672074696d65206973206e6f74206f76657221000000600082015250565b7f596f7520617265206e6f74206120637573746f6d657220696e2074686973206360008201527f6f6e747261637421000000000000000000000000000000000000000000000000602082015250565b6116bd8161140e565b81146116c857600080fd5b50565b6116d481611460565b81146116df57600080fd5b5056fea26469706673582212202b076437ed0216e10146aa8f8e92828e8c8dd1f3b53b7f65e3c2d098bd7336dd64736f6c63430008070033a2646970667358221220b8acda840e338a7c48d272bec249248a76b65a00e85552b95e063b59f6d890dd64736f6c63430008070033",
			"opcodes": "PUSH1 0x80 PUSH1 0x40 MSTORE CALLVALUE DUP1 ISZERO PUSH2 0x10 JUMPI PUSH1 0x0 DUP1 REVERT JUMPDEST POP PUSH2 0x3ECA DUP1 PUSH2 0x20 PUSH1 0x0 CODECOPY PUSH1 0x0 RETURN INVALID PUSH1 0x80 PUSH1 0x40 MSTORE CALLVALUE DUP1 ISZERO PUSH3 0x11 JUMPI PUSH1 0x0 DUP1 REVERT JUMPDEST POP PUSH1 0x4 CALLDATASIZE LT PUSH3 0x52 JUMPI PUSH1 0x0 CALLDATALOAD PUSH1 0xE0 SHR DUP1 PUSH4 0x1D7FB225 EQ PUSH3 0x57 JUMPI DUP1 PUSH4 0x3F285951 EQ PUSH3 0x77 JUMPI DUP1 PUSH4 0xBCA88E2E EQ PUSH3 0x97 JUMPI DUP1 PUSH4 0xD84277EA EQ PUSH3 0xCD JUMPI JUMPDEST PUSH1 0x0 DUP1 REVERT JUMPDEST PUSH3 0x75 PUSH1 0x4 DUP1 CALLDATASIZE SUB DUP2 ADD SWAP1 PUSH3 0x6F SWAP2 SWAP1 PUSH3 0x405 JUMP JUMPDEST PUSH3 0xEF JUMP JUMPDEST STOP JUMPDEST PUSH3 0x95 PUSH1 0x4 DUP1 CALLDATASIZE SUB DUP2 ADD SWAP1 PUSH3 0x8F SWAP2 SWAP1 PUSH3 0x48D JUMP JUMPDEST PUSH3 0x1A1 JUMP JUMPDEST STOP JUMPDEST PUSH3 0xB5 PUSH1 0x4 DUP1 CALLDATASIZE SUB DUP2 ADD SWAP1 PUSH3 0xAF SWAP2 SWAP1 PUSH3 0x567 JUMP JUMPDEST PUSH3 0x256 JUMP JUMPDEST PUSH1 0x40 MLOAD PUSH3 0xC4 SWAP2 SWAP1 PUSH3 0x6A2 JUMP JUMPDEST PUSH1 0x40 MLOAD DUP1 SWAP2 SUB SWAP1 RETURN JUMPDEST PUSH3 0xD7 PUSH3 0x296 JUMP JUMPDEST PUSH1 0x40 MLOAD PUSH3 0xE6 SWAP2 SWAP1 PUSH3 0x7B7 JUMP JUMPDEST PUSH1 0x40 MLOAD DUP1 SWAP2 SUB SWAP1 RETURN JUMPDEST PUSH1 0x0 CALLER DUP7 DUP7 DUP7 DUP7 DUP7 PUSH1 0x40 MLOAD PUSH3 0x105 SWAP1 PUSH3 0x326 JUMP JUMPDEST PUSH3 0x116 SWAP7 SWAP6 SWAP5 SWAP4 SWAP3 SWAP2 SWAP1 PUSH3 0x6BF JUMP JUMPDEST PUSH1 0x40 MLOAD DUP1 SWAP2 SUB SWAP1 PUSH1 0x0 CREATE DUP1 ISZERO DUP1 ISZERO PUSH3 0x133 JUMPI RETURNDATASIZE PUSH1 0x0 DUP1 RETURNDATACOPY RETURNDATASIZE PUSH1 0x0 REVERT JUMPDEST POP SWAP1 POP PUSH1 0x0 DUP2 SWAP1 DUP1 PUSH1 0x1 DUP2 SLOAD ADD DUP1 DUP3 SSTORE DUP1 SWAP2 POP POP PUSH1 0x1 SWAP1 SUB SWAP1 PUSH1 0x0 MSTORE PUSH1 0x20 PUSH1 0x0 KECCAK256 ADD PUSH1 0x0 SWAP1 SWAP2 SWAP1 SWAP2 SWAP1 SWAP2 PUSH2 0x100 EXP DUP2 SLOAD DUP2 PUSH20 0xFFFFFFFFFFFFFFFFFFFFFFFFFFFFFFFFFFFFFFFF MUL NOT AND SWAP1 DUP4 PUSH20 0xFFFFFFFFFFFFFFFFFFFFFFFFFFFFFFFFFFFFFFFF AND MUL OR SWAP1 SSTORE POP POP POP POP POP POP POP JUMP JUMPDEST PUSH1 0x0 CALLER DUP8 DUP8 DUP8 DUP8 DUP8 DUP8 PUSH1 0x40 MLOAD PUSH3 0x1B8 SWAP1 PUSH3 0x334 JUMP JUMPDEST PUSH3 0x1CA SWAP8 SWAP7 SWAP6 SWAP5 SWAP4 SWAP3 SWAP2 SWAP1 PUSH3 0x72C JUMP JUMPDEST PUSH1 0x40 MLOAD DUP1 SWAP2 SUB SWAP1 PUSH1 0x0 CREATE DUP1 ISZERO DUP1 ISZERO PUSH3 0x1E7 JUMPI RETURNDATASIZE PUSH1 0x0 DUP1 RETURNDATACOPY RETURNDATASIZE PUSH1 0x0 REVERT JUMPDEST POP SWAP1 POP PUSH1 0x0 DUP2 SWAP1 DUP1 PUSH1 0x1 DUP2 SLOAD ADD DUP1 DUP3 SSTORE DUP1 SWAP2 POP POP PUSH1 0x1 SWAP1 SUB SWAP1 PUSH1 0x0 MSTORE PUSH1 0x20 PUSH1 0x0 KECCAK256 ADD PUSH1 0x0 SWAP1 SWAP2 SWAP1 SWAP2 SWAP1 SWAP2 PUSH2 0x100 EXP DUP2 SLOAD DUP2 PUSH20 0xFFFFFFFFFFFFFFFFFFFFFFFFFFFFFFFFFFFFFFFF MUL NOT AND SWAP1 DUP4 PUSH20 0xFFFFFFFFFFFFFFFFFFFFFFFFFFFFFFFFFFFFFFFF AND MUL OR SWAP1 SSTORE POP POP POP POP POP POP POP POP JUMP JUMPDEST PUSH1 0x0 DUP2 DUP2 SLOAD DUP2 LT PUSH3 0x267 JUMPI PUSH1 0x0 DUP1 REVERT JUMPDEST SWAP1 PUSH1 0x0 MSTORE PUSH1 0x20 PUSH1 0x0 KECCAK256 ADD PUSH1 0x0 SWAP2 POP SLOAD SWAP1 PUSH2 0x100 EXP SWAP1 DIV PUSH20 0xFFFFFFFFFFFFFFFFFFFFFFFFFFFFFFFFFFFFFFFF AND DUP2 JUMP JUMPDEST PUSH1 0x60 PUSH1 0x0 DUP1 SLOAD DUP1 PUSH1 0x20 MUL PUSH1 0x20 ADD PUSH1 0x40 MLOAD SWAP1 DUP2 ADD PUSH1 0x40 MSTORE DUP1 SWAP3 SWAP2 SWAP1 DUP2 DUP2 MSTORE PUSH1 0x20 ADD DUP3 DUP1 SLOAD DUP1 ISZERO PUSH3 0x31C JUMPI PUSH1 0x20 MUL DUP3 ADD SWAP2 SWAP1 PUSH1 0x0 MSTORE PUSH1 0x20 PUSH1 0x0 KECCAK256 SWAP1 JUMPDEST DUP2 PUSH1 0x0 SWAP1 SLOAD SWAP1 PUSH2 0x100 EXP SWAP1 DIV PUSH20 0xFFFFFFFFFFFFFFFFFFFFFFFFFFFFFFFFFFFFFFFF AND PUSH20 0xFFFFFFFFFFFFFFFFFFFFFFFFFFFFFFFFFFFFFFFF AND DUP2 MSTORE PUSH1 0x20 ADD SWAP1 PUSH1 0x1 ADD SWAP1 DUP1 DUP4 GT PUSH3 0x2D1 JUMPI JUMPDEST POP POP POP POP POP SWAP1 POP SWAP1 JUMP JUMPDEST PUSH2 0x176C DUP1 PUSH3 0x9F5 DUP4 CODECOPY ADD SWAP1 JUMP JUMPDEST PUSH2 0x1D34 DUP1 PUSH3 0x2161 DUP4 CODECOPY ADD SWAP1 JUMP JUMPDEST PUSH1 0x0 PUSH3 0x359 PUSH3 0x353 DUP5 PUSH3 0x804 JUMP JUMPDEST PUSH3 0x7DB JUMP JUMPDEST SWAP1 POP DUP3 DUP2 MSTORE PUSH1 0x20 DUP2 ADD DUP5 DUP5 DUP5 ADD GT ISZERO PUSH3 0x378 JUMPI PUSH3 0x377 PUSH3 0x986 JUMP JUMPDEST JUMPDEST PUSH3 0x385 DUP5 DUP3 DUP6 PUSH3 0x8D7 JUMP JUMPDEST POP SWAP4 SWAP3 POP POP POP JUMP JUMPDEST PUSH1 0x0 DUP2 CALLDATALOAD SWAP1 POP PUSH3 0x39E DUP2 PUSH3 0x9A6 JUMP JUMPDEST SWAP3 SWAP2 POP POP JUMP JUMPDEST PUSH1 0x0 DUP2 CALLDATALOAD SWAP1 POP PUSH3 0x3B5 DUP2 PUSH3 0x9C0 JUMP JUMPDEST SWAP3 SWAP2 POP POP JUMP JUMPDEST PUSH1 0x0 DUP3 PUSH1 0x1F DUP4 ADD SLT PUSH3 0x3D3 JUMPI PUSH3 0x3D2 PUSH3 0x981 JUMP JUMPDEST JUMPDEST DUP2 CALLDATALOAD PUSH3 0x3E5 DUP5 DUP3 PUSH1 0x20 DUP7 ADD PUSH3 0x342 JUMP JUMPDEST SWAP2 POP POP SWAP3 SWAP2 POP POP JUMP JUMPDEST PUSH1 0x0 DUP2 CALLDATALOAD SWAP1 POP PUSH3 0x3FF DUP2 PUSH3 0x9DA JUMP JUMPDEST SWAP3 SWAP2 POP POP JUMP JUMPDEST PUSH1 0x0 DUP1 PUSH1 0x0 DUP1 PUSH1 0x0 PUSH1 0xA0 DUP7 DUP9 SUB SLT ISZERO PUSH3 0x424 JUMPI PUSH3 0x423 PUSH3 0x990 JUMP JUMPDEST JUMPDEST PUSH1 0x0 PUSH3 0x434 DUP9 DUP3 DUP10 ADD PUSH3 0x38D JUMP JUMPDEST SWAP6 POP POP PUSH1 0x20 PUSH3 0x447 DUP9 DUP3 DUP10 ADD PUSH3 0x3EE JUMP JUMPDEST SWAP5 POP POP PUSH1 0x40 PUSH3 0x45A DUP9 DUP3 DUP10 ADD PUSH3 0x3EE JUMP JUMPDEST SWAP4 POP POP PUSH1 0x60 PUSH3 0x46D DUP9 DUP3 DUP10 ADD PUSH3 0x3EE JUMP JUMPDEST SWAP3 POP POP PUSH1 0x80 PUSH3 0x480 DUP9 DUP3 DUP10 ADD PUSH3 0x3A4 JUMP JUMPDEST SWAP2 POP POP SWAP3 SWAP6 POP SWAP3 SWAP6 SWAP1 SWAP4 POP JUMP JUMPDEST PUSH1 0x0 DUP1 PUSH1 0x0 DUP1 PUSH1 0x0 DUP1 PUSH1 0xC0 DUP8 DUP10 SUB SLT ISZERO PUSH3 0x4AD JUMPI PUSH3 0x4AC PUSH3 0x990 JUMP JUMPDEST JUMPDEST PUSH1 0x0 PUSH3 0x4BD DUP10 DUP3 DUP11 ADD PUSH3 0x38D JUMP JUMPDEST SWAP7 POP POP PUSH1 0x20 PUSH3 0x4D0 DUP10 DUP3 DUP11 ADD PUSH3 0x3EE JUMP JUMPDEST SWAP6 POP POP PUSH1 0x40 PUSH3 0x4E3 DUP10 DUP3 DUP11 ADD PUSH3 0x3EE JUMP JUMPDEST SWAP5 POP POP PUSH1 0x60 PUSH3 0x4F6 DUP10 DUP3 DUP11 ADD PUSH3 0x3EE JUMP JUMPDEST SWAP4 POP POP PUSH1 0x80 DUP8 ADD CALLDATALOAD PUSH8 0xFFFFFFFFFFFFFFFF DUP2 GT ISZERO PUSH3 0x51A JUMPI PUSH3 0x519 PUSH3 0x98B JUMP JUMPDEST JUMPDEST PUSH3 0x528 DUP10 DUP3 DUP11 ADD PUSH3 0x3BB JUMP JUMPDEST SWAP3 POP POP PUSH1 0xA0 DUP8 ADD CALLDATALOAD PUSH8 0xFFFFFFFFFFFFFFFF DUP2 GT ISZERO PUSH3 0x54C JUMPI PUSH3 0x54B PUSH3 0x98B JUMP JUMPDEST JUMPDEST PUSH3 0x55A DUP10 DUP3 DUP11 ADD PUSH3 0x3BB JUMP JUMPDEST SWAP2 POP POP SWAP3 SWAP6 POP SWAP3 SWAP6 POP SWAP3 SWAP6 JUMP JUMPDEST PUSH1 0x0 PUSH1 0x20 DUP3 DUP5 SUB SLT ISZERO PUSH3 0x580 JUMPI PUSH3 0x57F PUSH3 0x990 JUMP JUMPDEST JUMPDEST PUSH1 0x0 PUSH3 0x590 DUP5 DUP3 DUP6 ADD PUSH3 0x3EE JUMP JUMPDEST SWAP2 POP POP SWAP3 SWAP2 POP POP JUMP JUMPDEST PUSH1 0x0 PUSH3 0x5A7 DUP4 DUP4 PUSH3 0x5B3 JUMP JUMPDEST PUSH1 0x20 DUP4 ADD SWAP1 POP SWAP3 SWAP2 POP POP JUMP JUMPDEST PUSH3 0x5BE DUP2 PUSH3 0x88F JUMP JUMPDEST DUP3 MSTORE POP POP JUMP JUMPDEST PUSH3 0x5CF DUP2 PUSH3 0x88F JUMP JUMPDEST DUP3 MSTORE POP POP JUMP JUMPDEST PUSH1 0x0 PUSH3 0x5E2 DUP3 PUSH3 0x84A JUMP JUMPDEST PUSH3 0x5EE DUP2 DUP6 PUSH3 0x86D JUMP JUMPDEST SWAP4 POP PUSH3 0x5FB DUP4 PUSH3 0x83A JUMP JUMPDEST DUP1 PUSH1 0x0 JUMPDEST DUP4 DUP2 LT ISZERO PUSH3 0x632 JUMPI DUP2 MLOAD PUSH3 0x616 DUP9 DUP3 PUSH3 0x599 JUMP JUMPDEST SWAP8 POP PUSH3 0x623 DUP4 PUSH3 0x860 JUMP JUMPDEST SWAP3 POP POP PUSH1 0x1 DUP2 ADD SWAP1 POP PUSH3 0x5FF JUMP JUMPDEST POP DUP6 SWAP4 POP POP POP POP SWAP3 SWAP2 POP POP JUMP JUMPDEST PUSH3 0x64A DUP2 PUSH3 0x8A3 JUMP JUMPDEST DUP3 MSTORE POP POP JUMP JUMPDEST PUSH1 0x0 PUSH3 0x65D DUP3 PUSH3 0x855 JUMP JUMPDEST PUSH3 0x669 DUP2 DUP6 PUSH3 0x87E JUMP JUMPDEST SWAP4 POP PUSH3 0x67B DUP2 DUP6 PUSH1 0x20 DUP7 ADD PUSH3 0x8E6 JUMP JUMPDEST PUSH3 0x686 DUP2 PUSH3 0x995 JUMP JUMPDEST DUP5 ADD SWAP2 POP POP SWAP3 SWAP2 POP POP JUMP JUMPDEST PUSH3 0x69C DUP2 PUSH3 0x8CD JUMP JUMPDEST DUP3 MSTORE POP POP JUMP JUMPDEST PUSH1 0x0 PUSH1 0x20 DUP3 ADD SWAP1 POP PUSH3 0x6B9 PUSH1 0x0 DUP4 ADD DUP5 PUSH3 0x5C4 JUMP JUMPDEST SWAP3 SWAP2 POP POP JUMP JUMPDEST PUSH1 0x0 PUSH1 0xC0 DUP3 ADD SWAP1 POP PUSH3 0x6D6 PUSH1 0x0 DUP4 ADD DUP10 PUSH3 0x5C4 JUMP JUMPDEST PUSH3 0x6E5 PUSH1 0x20 DUP4 ADD DUP9 PUSH3 0x5C4 JUMP JUMPDEST PUSH3 0x6F4 PUSH1 0x40 DUP4 ADD DUP8 PUSH3 0x691 JUMP JUMPDEST PUSH3 0x703 PUSH1 0x60 DUP4 ADD DUP7 PUSH3 0x691 JUMP JUMPDEST PUSH3 0x712 PUSH1 0x80 DUP4 ADD DUP6 PUSH3 0x691 JUMP JUMPDEST PUSH3 0x721 PUSH1 0xA0 DUP4 ADD DUP5 PUSH3 0x63F JUMP JUMPDEST SWAP8 SWAP7 POP POP POP POP POP POP POP JUMP JUMPDEST PUSH1 0x0 PUSH1 0xE0 DUP3 ADD SWAP1 POP PUSH3 0x743 PUSH1 0x0 DUP4 ADD DUP11 PUSH3 0x5C4 JUMP JUMPDEST PUSH3 0x752 PUSH1 0x20 DUP4 ADD DUP10 PUSH3 0x5C4 JUMP JUMPDEST PUSH3 0x761 PUSH1 0x40 DUP4 ADD DUP9 PUSH3 0x691 JUMP JUMPDEST PUSH3 0x770 PUSH1 0x60 DUP4 ADD DUP8 PUSH3 0x691 JUMP JUMPDEST PUSH3 0x77F PUSH1 0x80 DUP4 ADD DUP7 PUSH3 0x691 JUMP JUMPDEST DUP2 DUP2 SUB PUSH1 0xA0 DUP4 ADD MSTORE PUSH3 0x793 DUP2 DUP6 PUSH3 0x650 JUMP JUMPDEST SWAP1 POP DUP2 DUP2 SUB PUSH1 0xC0 DUP4 ADD MSTORE PUSH3 0x7A9 DUP2 DUP5 PUSH3 0x650 JUMP JUMPDEST SWAP1 POP SWAP9 SWAP8 POP POP POP POP POP POP POP POP JUMP JUMPDEST PUSH1 0x0 PUSH1 0x20 DUP3 ADD SWAP1 POP DUP2 DUP2 SUB PUSH1 0x0 DUP4 ADD MSTORE PUSH3 0x7D3 DUP2 DUP5 PUSH3 0x5D5 JUMP JUMPDEST SWAP1 POP SWAP3 SWAP2 POP POP JUMP JUMPDEST PUSH1 0x0 PUSH3 0x7E7 PUSH3 0x7FA JUMP JUMPDEST SWAP1 POP PUSH3 0x7F5 DUP3 DUP3 PUSH3 0x91C JUMP JUMPDEST SWAP2 SWAP1 POP JUMP JUMPDEST PUSH1 0x0 PUSH1 0x40 MLOAD SWAP1 POP SWAP1 JUMP JUMPDEST PUSH1 0x0 PUSH8 0xFFFFFFFFFFFFFFFF DUP3 GT ISZERO PUSH3 0x822 JUMPI PUSH3 0x821 PUSH3 0x952 JUMP JUMPDEST JUMPDEST PUSH3 0x82D DUP3 PUSH3 0x995 JUMP JUMPDEST SWAP1 POP PUSH1 0x20 DUP2 ADD SWAP1 POP SWAP2 SWAP1 POP JUMP JUMPDEST PUSH1 0x0 DUP2 SWAP1 POP PUSH1 0x20 DUP3 ADD SWAP1 POP SWAP2 SWAP1 POP JUMP JUMPDEST PUSH1 0x0 DUP2 MLOAD SWAP1 POP SWAP2 SWAP1 POP JUMP JUMPDEST PUSH1 0x0 DUP2 MLOAD SWAP1 POP SWAP2 SWAP1 POP JUMP JUMPDEST PUSH1 0x0 PUSH1 0x20 DUP3 ADD SWAP1 POP SWAP2 SWAP1 POP JUMP JUMPDEST PUSH1 0x0 DUP3 DUP3 MSTORE PUSH1 0x20 DUP3 ADD SWAP1 POP SWAP3 SWAP2 POP POP JUMP JUMPDEST PUSH1 0x0 DUP3 DUP3 MSTORE PUSH1 0x20 DUP3 ADD SWAP1 POP SWAP3 SWAP2 POP POP JUMP JUMPDEST PUSH1 0x0 PUSH3 0x89C DUP3 PUSH3 0x8AD JUMP JUMPDEST SWAP1 POP SWAP2 SWAP1 POP JUMP JUMPDEST PUSH1 0x0 DUP2 SWAP1 POP SWAP2 SWAP1 POP JUMP JUMPDEST PUSH1 0x0 PUSH20 0xFFFFFFFFFFFFFFFFFFFFFFFFFFFFFFFFFFFFFFFF DUP3 AND SWAP1 POP SWAP2 SWAP1 POP JUMP JUMPDEST PUSH1 0x0 DUP2 SWAP1 POP SWAP2 SWAP1 POP JUMP JUMPDEST DUP3 DUP2 DUP4 CALLDATACOPY PUSH1 0x0 DUP4 DUP4 ADD MSTORE POP POP POP JUMP JUMPDEST PUSH1 0x0 JUMPDEST DUP4 DUP2 LT ISZERO PUSH3 0x906 JUMPI DUP1 DUP3 ADD MLOAD DUP2 DUP5 ADD MSTORE PUSH1 0x20 DUP2 ADD SWAP1 POP PUSH3 0x8E9 JUMP JUMPDEST DUP4 DUP2 GT ISZERO PUSH3 0x916 JUMPI PUSH1 0x0 DUP5 DUP5 ADD MSTORE JUMPDEST POP POP POP POP JUMP JUMPDEST PUSH3 0x927 DUP3 PUSH3 0x995 JUMP JUMPDEST DUP2 ADD DUP2 DUP2 LT PUSH8 0xFFFFFFFFFFFFFFFF DUP3 GT OR ISZERO PUSH3 0x949 JUMPI PUSH3 0x948 PUSH3 0x952 JUMP JUMPDEST JUMPDEST DUP1 PUSH1 0x40 MSTORE POP POP POP JUMP JUMPDEST PUSH32 0x4E487B7100000000000000000000000000000000000000000000000000000000 PUSH1 0x0 MSTORE PUSH1 0x41 PUSH1 0x4 MSTORE PUSH1 0x24 PUSH1 0x0 REVERT JUMPDEST PUSH1 0x0 DUP1 REVERT JUMPDEST PUSH1 0x0 DUP1 REVERT JUMPDEST PUSH1 0x0 DUP1 REVERT JUMPDEST PUSH1 0x0 DUP1 REVERT JUMPDEST PUSH1 0x0 PUSH1 0x1F NOT PUSH1 0x1F DUP4 ADD AND SWAP1 POP SWAP2 SWAP1 POP JUMP JUMPDEST PUSH3 0x9B1 DUP2 PUSH3 0x88F JUMP JUMPDEST DUP2 EQ PUSH3 0x9BD JUMPI PUSH1 0x0 DUP1 REVERT JUMPDEST POP JUMP JUMPDEST PUSH3 0x9CB DUP2 PUSH3 0x8A3 JUMP JUMPDEST DUP2 EQ PUSH3 0x9D7 JUMPI PUSH1 0x0 DUP1 REVERT JUMPDEST POP JUMP JUMPDEST PUSH3 0x9E5 DUP2 PUSH3 0x8CD JUMP JUMPDEST DUP2 EQ PUSH3 0x9F1 JUMPI PUSH1 0x0 DUP1 REVERT JUMPDEST POP JUMP INVALID PUSH1 0x80 PUSH1 0x40 MSTORE CALLVALUE DUP1 ISZERO PUSH3 0x11 JUMPI PUSH1 0x0 DUP1 REVERT JUMPDEST POP PUSH1 0x40 MLOAD PUSH3 0x176C CODESIZE SUB DUP1 PUSH3 0x176C DUP4 CODECOPY DUP2 DUP2 ADD PUSH1 0x40 MSTORE DUP2 ADD SWAP1 PUSH3 0x37 SWAP2 SWAP1 PUSH3 0x156 JUMP JUMPDEST DUP6 DUP6 DUP6 DUP6 DUP6 DUP5 PUSH1 0x0 DUP1 PUSH2 0x100 EXP DUP2 SLOAD DUP2 PUSH20 0xFFFFFFFFFFFFFFFFFFFFFFFFFFFFFFFFFFFFFFFF MUL NOT AND SWAP1 DUP4 PUSH20 0xFFFFFFFFFFFFFFFFFFFFFFFFFFFFFFFFFFFFFFFF AND MUL OR SWAP1 SSTORE POP DUP4 PUSH1 0x1 PUSH1 0x0 PUSH2 0x100 EXP DUP2 SLOAD DUP2 PUSH20 0xFFFFFFFFFFFFFFFFFFFFFFFFFFFFFFFFFFFFFFFF MUL NOT AND SWAP1 DUP4 PUSH20 0xFFFFFFFFFFFFFFFFFFFFFFFFFFFFFFFFFFFFFFFF AND MUL OR SWAP1 SSTORE POP DUP3 PUSH1 0x2 DUP2 SWAP1 SSTORE POP DUP2 PUSH1 0x3 DUP2 SWAP1 SSTORE POP DUP1 TIMESTAMP PUSH3 0xD9 SWAP2 SWAP1 PUSH3 0x1F2 JUMP JUMPDEST PUSH1 0x4 PUSH1 0x0 PUSH2 0x100 EXP DUP2 SLOAD DUP2 PUSH4 0xFFFFFFFF MUL NOT AND SWAP1 DUP4 PUSH4 0xFFFFFFFF AND MUL OR SWAP1 SSTORE POP POP POP POP POP POP DUP1 PUSH1 0x8 DUP2 SWAP1 SSTORE POP POP POP POP POP POP POP PUSH3 0x319 JUMP JUMPDEST PUSH1 0x0 DUP2 MLOAD SWAP1 POP PUSH3 0x122 DUP2 PUSH3 0x2CB JUMP JUMPDEST SWAP3 SWAP2 POP POP JUMP JUMPDEST PUSH1 0x0 DUP2 MLOAD SWAP1 POP PUSH3 0x139 DUP2 PUSH3 0x2E5 JUMP JUMPDEST SWAP3 SWAP2 POP POP JUMP JUMPDEST PUSH1 0x0 DUP2 MLOAD SWAP1 POP PUSH3 0x150 DUP2 PUSH3 0x2FF JUMP JUMPDEST SWAP3 SWAP2 POP POP JUMP JUMPDEST PUSH1 0x0 DUP1 PUSH1 0x0 DUP1 PUSH1 0x0 DUP1 PUSH1 0xC0 DUP8 DUP10 SUB SLT ISZERO PUSH3 0x176 JUMPI PUSH3 0x175 PUSH3 0x2C6 JUMP JUMPDEST JUMPDEST PUSH1 0x0 PUSH3 0x186 DUP10 DUP3 DUP11 ADD PUSH3 0x111 JUMP JUMPDEST SWAP7 POP POP PUSH1 0x20 PUSH3 0x199 DUP10 DUP3 DUP11 ADD PUSH3 0x111 JUMP JUMPDEST SWAP6 POP POP PUSH1 0x40 PUSH3 0x1AC DUP10 DUP3 DUP11 ADD PUSH3 0x13F JUMP JUMPDEST SWAP5 POP POP PUSH1 0x60 PUSH3 0x1BF DUP10 DUP3 DUP11 ADD PUSH3 0x13F JUMP JUMPDEST SWAP4 POP POP PUSH1 0x80 PUSH3 0x1D2 DUP10 DUP3 DUP11 ADD PUSH3 0x13F JUMP JUMPDEST SWAP3 POP POP PUSH1 0xA0 PUSH3 0x1E5 DUP10 DUP3 DUP11 ADD PUSH3 0x128 JUMP JUMPDEST SWAP2 POP POP SWAP3 SWAP6 POP SWAP3 SWAP6 POP SWAP3 SWAP6 JUMP JUMPDEST PUSH1 0x0 PUSH3 0x1FF DUP3 PUSH3 0x28D JUMP JUMPDEST SWAP2 POP PUSH3 0x20C DUP4 PUSH3 0x28D JUMP JUMPDEST SWAP3 POP DUP3 PUSH32 0xFFFFFFFFFFFFFFFFFFFFFFFFFFFFFFFFFFFFFFFFFFFFFFFFFFFFFFFFFFFFFFFF SUB DUP3 GT ISZERO PUSH3 0x244 JUMPI PUSH3 0x243 PUSH3 0x297 JUMP JUMPDEST JUMPDEST DUP3 DUP3 ADD SWAP1 POP SWAP3 SWAP2 POP POP JUMP JUMPDEST PUSH1 0x0 PUSH3 0x25C DUP3 PUSH3 0x26D JUMP JUMPDEST SWAP1 POP SWAP2 SWAP1 POP JUMP JUMPDEST PUSH1 0x0 DUP2 SWAP1 POP SWAP2 SWAP1 POP JUMP JUMPDEST PUSH1 0x0 PUSH20 0xFFFFFFFFFFFFFFFFFFFFFFFFFFFFFFFFFFFFFFFF DUP3 AND SWAP1 POP SWAP2 SWAP1 POP JUMP JUMPDEST PUSH1 0x0 DUP2 SWAP1 POP SWAP2 SWAP1 POP JUMP JUMPDEST PUSH32 0x4E487B7100000000000000000000000000000000000000000000000000000000 PUSH1 0x0 MSTORE PUSH1 0x11 PUSH1 0x4 MSTORE PUSH1 0x24 PUSH1 0x0 REVERT JUMPDEST PUSH1 0x0 DUP1 REVERT JUMPDEST PUSH3 0x2D6 DUP2 PUSH3 0x24F JUMP JUMPDEST DUP2 EQ PUSH3 0x2E2 JUMPI PUSH1 0x0 DUP1 REVERT JUMPDEST POP JUMP JUMPDEST PUSH3 0x2F0 DUP2 PUSH3 0x263 JUMP JUMPDEST DUP2 EQ PUSH3 0x2FC JUMPI PUSH1 0x0 DUP1 REVERT JUMPDEST POP JUMP JUMPDEST PUSH3 0x30A DUP2 PUSH3 0x28D JUMP JUMPDEST DUP2 EQ PUSH3 0x316 JUMPI PUSH1 0x0 DUP1 REVERT JUMPDEST POP JUMP JUMPDEST PUSH2 0x1443 DUP1 PUSH3 0x329 PUSH1 0x0 CODECOPY PUSH1 0x0 RETURN INVALID PUSH1 0x80 PUSH1 0x40 MSTORE PUSH1 0x4 CALLDATASIZE LT PUSH2 0xE8 JUMPI PUSH1 0x0 CALLDATALOAD PUSH1 0xE0 SHR DUP1 PUSH4 0x5A9B0B89 GT PUSH2 0x8A JUMPI DUP1 PUSH4 0x839C54B2 GT PUSH2 0x59 JUMPI DUP1 PUSH4 0x839C54B2 EQ PUSH2 0x2A7 JUMPI DUP1 PUSH4 0x8D565C3F EQ PUSH2 0x2D2 JUMPI DUP1 PUSH4 0xD65B860F EQ PUSH2 0x2FD JUMPI DUP1 PUSH4 0xDE33CFB0 EQ PUSH2 0x328 JUMPI PUSH2 0xE8 JUMP JUMPDEST DUP1 PUSH4 0x5A9B0B89 EQ PUSH2 0x20F JUMPI DUP1 PUSH4 0x67C6DE0B EQ PUSH2 0x23A JUMPI DUP1 PUSH4 0x79A62BFC EQ PUSH2 0x265 JUMPI DUP1 PUSH4 0x7B352962 EQ PUSH2 0x27C JUMPI PUSH2 0xE8 JUMP JUMPDEST DUP1 PUSH4 0x39FF9F9C GT PUSH2 0xC6 JUMPI DUP1 PUSH4 0x39FF9F9C EQ PUSH2 0x171 JUMPI DUP1 PUSH4 0x481C6A75 EQ PUSH2 0x1A2 JUMPI DUP1 PUSH4 0x50D4BD5B EQ PUSH2 0x1CD JUMPI DUP1 PUSH4 0x590E1AE3 EQ PUSH2 0x1F8 JUMPI PUSH2 0xE8 JUMP JUMPDEST DUP1 PUSH4 0x99E209E EQ PUSH2 0xED JUMPI DUP1 PUSH4 0x35052E1E EQ PUSH2 0x12A JUMPI DUP1 PUSH4 0x36DA4468 EQ PUSH2 0x146 JUMPI JUMPDEST PUSH1 0x0 DUP1 REVERT JUMPDEST CALLVALUE DUP1 ISZERO PUSH2 0xF9 JUMPI PUSH1 0x0 DUP1 REVERT JUMPDEST POP PUSH2 0x114 PUSH1 0x4 DUP1 CALLDATASIZE SUB DUP2 ADD SWAP1 PUSH2 0x10F SWAP2 SWAP1 PUSH2 0xBC6 JUMP JUMPDEST PUSH2 0x33F JUMP JUMPDEST PUSH1 0x40 MLOAD PUSH2 0x121 SWAP2 SWAP1 PUSH2 0x10A2 JUMP JUMPDEST PUSH1 0x40 MLOAD DUP1 SWAP2 SUB SWAP1 RETURN JUMPDEST PUSH2 0x144 PUSH1 0x4 DUP1 CALLDATASIZE SUB DUP2 ADD SWAP1 PUSH2 0x13F SWAP2 SWAP1 PUSH2 0xBF3 JUMP JUMPDEST PUSH2 0x362 JUMP JUMPDEST STOP JUMPDEST CALLVALUE DUP1 ISZERO PUSH2 0x152 JUMPI PUSH1 0x0 DUP1 REVERT JUMPDEST POP PUSH2 0x15B PUSH2 0x48E JUMP JUMPDEST PUSH1 0x40 MLOAD PUSH2 0x168 SWAP2 SWAP1 PUSH2 0xEC5 JUMP JUMPDEST PUSH1 0x40 MLOAD DUP1 SWAP2 SUB SWAP1 RETURN JUMPDEST CALLVALUE DUP1 ISZERO PUSH2 0x17D JUMPI PUSH1 0x0 DUP1 REVERT JUMPDEST POP PUSH2 0x186 PUSH2 0x4B4 JUMP JUMPDEST PUSH1 0x40 MLOAD PUSH2 0x199 SWAP8 SWAP7 SWAP6 SWAP5 SWAP4 SWAP3 SWAP2 SWAP1 PUSH2 0xEE0 JUMP JUMPDEST PUSH1 0x40 MLOAD DUP1 SWAP2 SUB SWAP1 RETURN JUMPDEST CALLVALUE DUP1 ISZERO PUSH2 0x1AE JUMPI PUSH1 0x0 DUP1 REVERT JUMPDEST POP PUSH2 0x1B7 PUSH2 0x547 JUMP JUMPDEST PUSH1 0x40 MLOAD PUSH2 0x1C4 SWAP2 SWAP1 PUSH2 0xEC5 JUMP JUMPDEST PUSH1 0x40 MLOAD DUP1 SWAP2 SUB SWAP1 RETURN JUMPDEST CALLVALUE DUP1 ISZERO PUSH2 0x1D9 JUMPI PUSH1 0x0 DUP1 REVERT JUMPDEST POP PUSH2 0x1E2 PUSH2 0x56B JUMP JUMPDEST PUSH1 0x40 MLOAD PUSH2 0x1EF SWAP2 SWAP1 PUSH2 0xF6A JUMP JUMPDEST PUSH1 0x40 MLOAD DUP1 SWAP2 SUB SWAP1 RETURN JUMPDEST CALLVALUE DUP1 ISZERO PUSH2 0x204 JUMPI PUSH1 0x0 DUP1 REVERT JUMPDEST POP PUSH2 0x20D PUSH2 0x571 JUMP JUMPDEST STOP JUMPDEST CALLVALUE DUP1 ISZERO PUSH2 0x21B JUMPI PUSH1 0x0 DUP1 REVERT JUMPDEST POP PUSH2 0x224 PUSH2 0x75A JUMP JUMPDEST PUSH1 0x40 MLOAD PUSH2 0x231 SWAP2 SWAP1 PUSH2 0x1065 JUMP JUMPDEST PUSH1 0x40 MLOAD DUP1 SWAP2 SUB SWAP1 RETURN JUMPDEST CALLVALUE DUP1 ISZERO PUSH2 0x246 JUMPI PUSH1 0x0 DUP1 REVERT JUMPDEST POP PUSH2 0x24F PUSH2 0x82F JUMP JUMPDEST PUSH1 0x40 MLOAD PUSH2 0x25C SWAP2 SWAP1 PUSH2 0x10A2 JUMP JUMPDEST PUSH1 0x40 MLOAD DUP1 SWAP2 SUB SWAP1 RETURN JUMPDEST CALLVALUE DUP1 ISZERO PUSH2 0x271 JUMPI PUSH1 0x0 DUP1 REVERT JUMPDEST POP PUSH2 0x27A PUSH2 0x845 JUMP JUMPDEST STOP JUMPDEST CALLVALUE DUP1 ISZERO PUSH2 0x288 JUMPI PUSH1 0x0 DUP1 REVERT JUMPDEST POP PUSH2 0x291 PUSH2 0x924 JUMP JUMPDEST PUSH1 0x40 MLOAD PUSH2 0x29E SWAP2 SWAP1 PUSH2 0xF4F JUMP JUMPDEST PUSH1 0x40 MLOAD DUP1 SWAP2 SUB SWAP1 RETURN JUMPDEST CALLVALUE DUP1 ISZERO PUSH2 0x2B3 JUMPI PUSH1 0x0 DUP1 REVERT JUMPDEST POP PUSH2 0x2BC PUSH2 0x937 JUMP JUMPDEST PUSH1 0x40 MLOAD PUSH2 0x2C9 SWAP2 SWAP1 PUSH2 0x1087 JUMP JUMPDEST PUSH1 0x40 MLOAD DUP1 SWAP2 SUB SWAP1 RETURN JUMPDEST CALLVALUE DUP1 ISZERO PUSH2 0x2DE JUMPI PUSH1 0x0 DUP1 REVERT JUMPDEST POP PUSH2 0x2E7 PUSH2 0x93D JUMP JUMPDEST PUSH1 0x40 MLOAD PUSH2 0x2F4 SWAP2 SWAP1 PUSH2 0x1087 JUMP JUMPDEST PUSH1 0x40 MLOAD DUP1 SWAP2 SUB SWAP1 RETURN JUMPDEST CALLVALUE DUP1 ISZERO PUSH2 0x309 JUMPI PUSH1 0x0 DUP1 REVERT JUMPDEST POP PUSH2 0x312 PUSH2 0x943 JUMP JUMPDEST PUSH1 0x40 MLOAD PUSH2 0x31F SWAP2 SWAP1 PUSH2 0x1087 JUMP JUMPDEST PUSH1 0x40 MLOAD DUP1 SWAP2 SUB SWAP1 RETURN JUMPDEST CALLVALUE DUP1 ISZERO PUSH2 0x334 JUMPI PUSH1 0x0 DUP1 REVERT JUMPDEST POP PUSH2 0x33D PUSH2 0x949 JUMP JUMPDEST STOP JUMPDEST PUSH1 0x5 PUSH1 0x20 MSTORE DUP1 PUSH1 0x0 MSTORE PUSH1 0x40 PUSH1 0x0 KECCAK256 PUSH1 0x0 SWAP2 POP SLOAD SWAP1 PUSH2 0x100 EXP SWAP1 DIV PUSH4 0xFFFFFFFF AND DUP2 JUMP JUMPDEST PUSH1 0x7 PUSH1 0x0 SWAP1 SLOAD SWAP1 PUSH2 0x100 EXP SWAP1 DIV PUSH1 0xFF AND ISZERO PUSH2 0x3B2 JUMPI PUSH1 0x40 MLOAD PUSH32 0x8C379A000000000000000000000000000000000000000000000000000000000 DUP2 MSTORE PUSH1 0x4 ADD PUSH2 0x3A9 SWAP1 PUSH2 0x1005 JUMP JUMPDEST PUSH1 0x40 MLOAD DUP1 SWAP2 SUB SWAP1 REVERT JUMPDEST PUSH1 0x0 DUP2 PUSH4 0xFFFFFFFF AND PUSH1 0x2 SLOAD PUSH2 0x3C8 SWAP2 SWAP1 PUSH2 0x1140 JUMP JUMPDEST SWAP1 POP CALLVALUE DUP2 GT ISZERO PUSH2 0x40D JUMPI PUSH1 0x40 MLOAD PUSH32 0x8C379A000000000000000000000000000000000000000000000000000000000 DUP2 MSTORE PUSH1 0x4 ADD PUSH2 0x404 SWAP1 PUSH2 0xFA5 JUMP JUMPDEST PUSH1 0x40 MLOAD DUP1 SWAP2 SUB SWAP1 REVERT JUMPDEST DUP2 PUSH1 0x5 PUSH1 0x0 CALLER PUSH20 0xFFFFFFFFFFFFFFFFFFFFFFFFFFFFFFFFFFFFFFFF AND PUSH20 0xFFFFFFFFFFFFFFFFFFFFFFFFFFFFFFFFFFFFFFFF AND DUP2 MSTORE PUSH1 0x20 ADD SWAP1 DUP2 MSTORE PUSH1 0x20 ADD PUSH1 0x0 KECCAK256 PUSH1 0x0 PUSH2 0x100 EXP DUP2 SLOAD DUP2 PUSH4 0xFFFFFFFF MUL NOT AND SWAP1 DUP4 PUSH4 0xFFFFFFFF AND MUL OR SWAP1 SSTORE POP DUP2 PUSH4 0xFFFFFFFF AND PUSH1 0x6 PUSH1 0x0 DUP3 DUP3 SLOAD PUSH2 0x483 SWAP2 SWAP1 PUSH2 0x10EA JUMP JUMPDEST SWAP3 POP POP DUP2 SWAP1 SSTORE POP POP POP JUMP JUMPDEST PUSH1 0x1 PUSH1 0x0 SWAP1 SLOAD SWAP1 PUSH2 0x100 EXP SWAP1 DIV PUSH20 0xFFFFFFFFFFFFFFFFFFFFFFFFFFFFFFFFFFFFFFFF AND DUP2 JUMP JUMPDEST PUSH1 0x0 DUP1 PUSH1 0x0 DUP1 PUSH1 0x0 DUP1 PUSH1 0x0 DUP1 PUSH1 0x0 SWAP1 SLOAD SWAP1 PUSH2 0x100 EXP SWAP1 DIV PUSH20 0xFFFFFFFFFFFFFFFFFFFFFFFFFFFFFFFFFFFFFFFF AND PUSH1 0x1 PUSH1 0x0 SWAP1 SLOAD SWAP1 PUSH2 0x100 EXP SWAP1 DIV PUSH20 0xFFFFFFFFFFFFFFFFFFFFFFFFFFFFFFFFFFFFFFFF AND PUSH1 0x2 SLOAD PUSH1 0x3 SLOAD PUSH1 0x4 PUSH1 0x0 SWAP1 SLOAD SWAP1 PUSH2 0x100 EXP SWAP1 DIV PUSH4 0xFFFFFFFF AND PUSH1 0x6 SLOAD PUSH1 0x7 PUSH1 0x0 SWAP1 SLOAD SWAP1 PUSH2 0x100 EXP SWAP1 DIV PUSH1 0xFF AND SWAP7 POP SWAP7 POP SWAP7 POP SWAP7 POP SWAP7 POP SWAP7 POP SWAP7 POP SWAP1 SWAP2 SWAP3 SWAP4 SWAP5 SWAP6 SWAP7 JUMP JUMPDEST PUSH1 0x0 DUP1 SLOAD SWAP1 PUSH2 0x100 EXP SWAP1 DIV PUSH20 0xFFFFFFFFFFFFFFFFFFFFFFFFFFFFFFFFFFFFFFFF AND DUP2 JUMP JUMPDEST PUSH1 0x8 SLOAD DUP2 JUMP JUMPDEST PUSH1 0x0 PUSH1 0x5 PUSH1 0x0 CALLER PUSH20 0xFFFFFFFFFFFFFFFFFFFFFFFFFFFFFFFFFFFFFFFF AND PUSH20 0xFFFFFFFFFFFFFFFFFFFFFFFFFFFFFFFFFFFFFFFF AND DUP2 MSTORE PUSH1 0x20 ADD SWAP1 DUP2 MSTORE PUSH1 0x20 ADD PUSH1 0x0 KECCAK256 PUSH1 0x0 SWAP1 SLOAD SWAP1 PUSH2 0x100 EXP SWAP1 DIV PUSH4 0xFFFFFFFF AND PUSH4 0xFFFFFFFF AND GT PUSH2 0x609 JUMPI PUSH1 0x40 MLOAD PUSH32 0x8C379A000000000000000000000000000000000000000000000000000000000 DUP2 MSTORE PUSH1 0x4 ADD PUSH2 0x600 SWAP1 PUSH2 0x1045 JUMP JUMPDEST PUSH1 0x40 MLOAD DUP1 SWAP2 SUB SWAP1 REVERT JUMPDEST PUSH1 0x4 PUSH1 0x0 SWAP1 SLOAD SWAP1 PUSH2 0x100 EXP SWAP1 DIV PUSH4 0xFFFFFFFF AND PUSH4 0xFFFFFFFF AND TIMESTAMP GT PUSH2 0x663 JUMPI PUSH1 0x40 MLOAD PUSH32 0x8C379A000000000000000000000000000000000000000000000000000000000 DUP2 MSTORE PUSH1 0x4 ADD PUSH2 0x65A SWAP1 PUSH2 0x1025 JUMP JUMPDEST PUSH1 0x40 MLOAD DUP1 SWAP2 SUB SWAP1 REVERT JUMPDEST PUSH1 0x3 SLOAD PUSH1 0x6 SLOAD LT PUSH2 0x6A9 JUMPI PUSH1 0x40 MLOAD PUSH32 0x8C379A000000000000000000000000000000000000000000000000000000000 DUP2 MSTORE PUSH1 0x4 ADD PUSH2 0x6A0 SWAP1 PUSH2 0xFE5 JUMP JUMPDEST PUSH1 0x40 MLOAD DUP1 SWAP2 SUB SWAP1 REVERT JUMPDEST PUSH1 0x0 PUSH1 0x2 SLOAD PUSH1 0x5 PUSH1 0x0 CALLER PUSH20 0xFFFFFFFFFFFFFFFFFFFFFFFFFFFFFFFFFFFFFFFF AND PUSH20 0xFFFFFFFFFFFFFFFFFFFFFFFFFFFFFFFFFFFFFFFF AND DUP2 MSTORE PUSH1 0x20 ADD SWAP1 DUP2 MSTORE PUSH1 0x20 ADD PUSH1 0x0 KECCAK256 PUSH1 0x0 SWAP1 SLOAD SWAP1 PUSH2 0x100 EXP SWAP1 DIV PUSH4 0xFFFFFFFF AND PUSH4 0xFFFFFFFF AND PUSH2 0x70E SWAP2 SWAP1 PUSH2 0x1140 JUMP JUMPDEST SWAP1 POP CALLER PUSH20 0xFFFFFFFFFFFFFFFFFFFFFFFFFFFFFFFFFFFFFFFF AND PUSH2 0x8FC DUP3 SWAP1 DUP2 ISZERO MUL SWAP1 PUSH1 0x40 MLOAD PUSH1 0x0 PUSH1 0x40 MLOAD DUP1 DUP4 SUB DUP2 DUP6 DUP9 DUP9 CALL SWAP4 POP POP POP POP ISZERO DUP1 ISZERO PUSH2 0x756 JUMPI RETURNDATASIZE PUSH1 0x0 DUP1 RETURNDATACOPY RETURNDATASIZE PUSH1 0x0 REVERT JUMPDEST POP POP JUMP JUMPDEST PUSH2 0x762 PUSH2 0xB12 JUMP JUMPDEST PUSH1 0x0 DUP1 PUSH1 0x0 DUP1 PUSH1 0x0 DUP1 PUSH1 0x0 PUSH2 0x775 PUSH2 0x4B4 JUMP JUMPDEST SWAP7 POP SWAP7 POP SWAP7 POP SWAP7 POP SWAP7 POP SWAP7 POP SWAP7 POP PUSH1 0x0 PUSH1 0x40 MLOAD DUP1 PUSH2 0x140 ADD PUSH1 0x40 MSTORE DUP1 DUP10 PUSH20 0xFFFFFFFFFFFFFFFFFFFFFFFFFFFFFFFFFFFFFFFF AND DUP2 MSTORE PUSH1 0x20 ADD DUP9 PUSH20 0xFFFFFFFFFFFFFFFFFFFFFFFFFFFFFFFFFFFFFFFF AND DUP2 MSTORE PUSH1 0x20 ADD DUP8 DUP2 MSTORE PUSH1 0x20 ADD DUP7 DUP2 MSTORE PUSH1 0x20 ADD DUP6 PUSH4 0xFFFFFFFF AND DUP2 MSTORE PUSH1 0x20 ADD DUP5 DUP2 MSTORE PUSH1 0x20 ADD DUP4 ISZERO ISZERO DUP2 MSTORE PUSH1 0x20 ADD PUSH1 0x8 SLOAD DUP2 MSTORE PUSH1 0x20 ADD PUSH1 0x40 MLOAD DUP1 PUSH1 0x20 ADD PUSH1 0x40 MSTORE DUP1 PUSH1 0x0 DUP2 MSTORE POP DUP2 MSTORE PUSH1 0x20 ADD PUSH1 0x40 MLOAD DUP1 PUSH1 0x20 ADD PUSH1 0x40 MSTORE DUP1 PUSH1 0x0 DUP2 MSTORE POP DUP2 MSTORE POP SWAP1 POP DUP1 SWAP9 POP POP POP POP POP POP POP POP POP SWAP1 JUMP JUMPDEST PUSH1 0x4 PUSH1 0x0 SWAP1 SLOAD SWAP1 PUSH2 0x100 EXP SWAP1 DIV PUSH4 0xFFFFFFFF AND DUP2 JUMP JUMPDEST PUSH1 0x3 SLOAD PUSH1 0x6 SLOAD LT ISZERO PUSH2 0x88C JUMPI PUSH1 0x40 MLOAD PUSH32 0x8C379A000000000000000000000000000000000000000000000000000000000 DUP2 MSTORE PUSH1 0x4 ADD PUSH2 0x883 SWAP1 PUSH2 0xF85 JUMP JUMPDEST PUSH1 0x40 MLOAD DUP1 SWAP2 SUB SWAP1 REVERT JUMPDEST CALLER PUSH20 0xFFFFFFFFFFFFFFFFFFFFFFFFFFFFFFFFFFFFFFFF AND PUSH1 0x0 DUP1 SLOAD SWAP1 PUSH2 0x100 EXP SWAP1 DIV PUSH20 0xFFFFFFFFFFFFFFFFFFFFFFFFFFFFFFFFFFFFFFFF AND PUSH20 0xFFFFFFFFFFFFFFFFFFFFFFFFFFFFFFFFFFFFFFFF AND EQ PUSH2 0x91A JUMPI PUSH1 0x40 MLOAD PUSH32 0x8C379A000000000000000000000000000000000000000000000000000000000 DUP2 MSTORE PUSH1 0x4 ADD PUSH2 0x911 SWAP1 PUSH2 0xFC5 JUMP JUMPDEST PUSH1 0x40 MLOAD DUP1 SWAP2 SUB SWAP1 REVERT JUMPDEST PUSH2 0x922 PUSH2 0xA8C JUMP JUMPDEST JUMP JUMPDEST PUSH1 0x7 PUSH1 0x0 SWAP1 SLOAD SWAP1 PUSH2 0x100 EXP SWAP1 DIV PUSH1 0xFF AND DUP2 JUMP JUMPDEST PUSH1 0x2 SLOAD DUP2 JUMP JUMPDEST PUSH1 0x6 SLOAD DUP2 JUMP JUMPDEST PUSH1 0x3 SLOAD DUP2 JUMP JUMPDEST PUSH1 0x0 PUSH1 0x5 PUSH1 0x0 CALLER PUSH20 0xFFFFFFFFFFFFFFFFFFFFFFFFFFFFFFFFFFFFFFFF AND PUSH20 0xFFFFFFFFFFFFFFFFFFFFFFFFFFFFFFFFFFFFFFFF AND DUP2 MSTORE PUSH1 0x20 ADD SWAP1 DUP2 MSTORE PUSH1 0x20 ADD PUSH1 0x0 KECCAK256 PUSH1 0x0 SWAP1 SLOAD SWAP1 PUSH2 0x100 EXP SWAP1 DIV PUSH4 0xFFFFFFFF AND PUSH4 0xFFFFFFFF AND GT PUSH2 0x9E1 JUMPI PUSH1 0x40 MLOAD PUSH32 0x8C379A000000000000000000000000000000000000000000000000000000000 DUP2 MSTORE PUSH1 0x4 ADD PUSH2 0x9D8 SWAP1 PUSH2 0x1045 JUMP JUMPDEST PUSH1 0x40 MLOAD DUP1 SWAP2 SUB SWAP1 REVERT JUMPDEST PUSH1 0x4 PUSH1 0x0 SWAP1 SLOAD SWAP1 PUSH2 0x100 EXP SWAP1 DIV PUSH4 0xFFFFFFFF AND PUSH4 0xFFFFFFFF AND TIMESTAMP GT PUSH2 0xA3B JUMPI PUSH1 0x40 MLOAD PUSH32 0x8C379A000000000000000000000000000000000000000000000000000000000 DUP2 MSTORE PUSH1 0x4 ADD PUSH2 0xA32 SWAP1 PUSH2 0x1025 JUMP JUMPDEST PUSH1 0x40 MLOAD DUP1 SWAP2 SUB SWAP1 REVERT JUMPDEST PUSH1 0x3 SLOAD PUSH1 0x6 SLOAD LT ISZERO PUSH2 0xA82 JUMPI PUSH1 0x40 MLOAD PUSH32 0x8C379A000000000000000000000000000000000000000000000000000000000 DUP2 MSTORE PUSH1 0x4 ADD PUSH2 0xA79 SWAP1 PUSH2 0xF85 JUMP JUMPDEST PUSH1 0x40 MLOAD DUP1 SWAP2 SUB SWAP1 REVERT JUMPDEST PUSH2 0xA8A PUSH2 0xA8C JUMP JUMPDEST JUMP JUMPDEST PUSH1 0x1 PUSH1 0x0 SWAP1 SLOAD SWAP1 PUSH2 0x100 EXP SWAP1 DIV PUSH20 0xFFFFFFFFFFFFFFFFFFFFFFFFFFFFFFFFFFFFFFFF AND PUSH20 0xFFFFFFFFFFFFFFFFFFFFFFFFFFFFFFFFFFFFFFFF AND PUSH2 0x8FC SELFBALANCE SWAP1 DUP2 ISZERO MUL SWAP1 PUSH1 0x40 MLOAD PUSH1 0x0 PUSH1 0x40 MLOAD DUP1 DUP4 SUB DUP2 DUP6 DUP9 DUP9 CALL SWAP4 POP POP POP POP ISZERO DUP1 ISZERO PUSH2 0xAF4 JUMPI RETURNDATASIZE PUSH1 0x0 DUP1 RETURNDATACOPY RETURNDATASIZE PUSH1 0x0 REVERT JUMPDEST POP PUSH1 0x1 PUSH1 0x7 PUSH1 0x0 PUSH2 0x100 EXP DUP2 SLOAD DUP2 PUSH1 0xFF MUL NOT AND SWAP1 DUP4 ISZERO ISZERO MUL OR SWAP1 SSTORE POP JUMP JUMPDEST PUSH1 0x40 MLOAD DUP1 PUSH2 0x140 ADD PUSH1 0x40 MSTORE DUP1 PUSH1 0x0 PUSH20 0xFFFFFFFFFFFFFFFFFFFFFFFFFFFFFFFFFFFFFFFF AND DUP2 MSTORE PUSH1 0x20 ADD PUSH1 0x0 PUSH20 0xFFFFFFFFFFFFFFFFFFFFFFFFFFFFFFFFFFFFFFFF AND DUP2 MSTORE PUSH1 0x20 ADD PUSH1 0x0 DUP2 MSTORE PUSH1 0x20 ADD PUSH1 0x0 DUP2 MSTORE PUSH1 0x20 ADD PUSH1 0x0 PUSH4 0xFFFFFFFF AND DUP2 MSTORE PUSH1 0x20 ADD PUSH1 0x0 DUP2 MSTORE PUSH1 0x20 ADD PUSH1 0x0 ISZERO ISZERO DUP2 MSTORE PUSH1 0x20 ADD PUSH1 0x0 DUP1 NOT AND DUP2 MSTORE PUSH1 0x20 ADD PUSH1 0x60 DUP2 MSTORE PUSH1 0x20 ADD PUSH1 0x60 DUP2 MSTORE POP SWAP1 JUMP JUMPDEST PUSH1 0x0 DUP2 CALLDATALOAD SWAP1 POP PUSH2 0xBAB DUP2 PUSH2 0x13DF JUMP JUMPDEST SWAP3 SWAP2 POP POP JUMP JUMPDEST PUSH1 0x0 DUP2 CALLDATALOAD SWAP1 POP PUSH2 0xBC0 DUP2 PUSH2 0x13F6 JUMP JUMPDEST SWAP3 SWAP2 POP POP JUMP JUMPDEST PUSH1 0x0 PUSH1 0x20 DUP3 DUP5 SUB SLT ISZERO PUSH2 0xBDC JUMPI PUSH2 0xBDB PUSH2 0x125E JUMP JUMPDEST JUMPDEST PUSH1 0x0 PUSH2 0xBEA DUP5 DUP3 DUP6 ADD PUSH2 0xB9C JUMP JUMPDEST SWAP2 POP POP SWAP3 SWAP2 POP POP JUMP JUMPDEST PUSH1 0x0 PUSH1 0x20 DUP3 DUP5 SUB SLT ISZERO PUSH2 0xC09 JUMPI PUSH2 0xC08 PUSH2 0x125E JUMP JUMPDEST JUMPDEST PUSH1 0x0 PUSH2 0xC17 DUP5 DUP3 DUP6 ADD PUSH2 0xBB1 JUMP JUMPDEST SWAP2 POP POP SWAP3 SWAP2 POP POP JUMP JUMPDEST PUSH2 0xC29 DUP2 PUSH2 0x119A JUMP JUMPDEST DUP3 MSTORE POP POP JUMP JUMPDEST PUSH2 0xC38 DUP2 PUSH2 0x119A JUMP JUMPDEST DUP3 MSTORE POP POP JUMP JUMPDEST PUSH2 0xC47 DUP2 PUSH2 0x11AC JUMP JUMPDEST DUP3 MSTORE POP POP JUMP JUMPDEST PUSH2 0xC56 DUP2 PUSH2 0x11AC JUMP JUMPDEST DUP3 MSTORE POP POP JUMP JUMPDEST PUSH2 0xC65 DUP2 PUSH2 0x11B8 JUMP JUMPDEST DUP3 MSTORE POP POP JUMP JUMPDEST PUSH2 0xC74 DUP2 PUSH2 0x11B8 JUMP JUMPDEST DUP3 MSTORE POP POP JUMP JUMPDEST PUSH1 0x0 PUSH2 0xC85 DUP3 PUSH2 0x10BD JUMP JUMPDEST PUSH2 0xC8F DUP2 DUP6 PUSH2 0x10C8 JUMP JUMPDEST SWAP4 POP PUSH2 0xC9F DUP2 DUP6 PUSH1 0x20 DUP7 ADD PUSH2 0x11FC JUMP JUMPDEST PUSH2 0xCA8 DUP2 PUSH2 0x1263 JUMP JUMPDEST DUP5 ADD SWAP2 POP POP SWAP3 SWAP2 POP POP JUMP JUMPDEST PUSH1 0x0 PUSH2 0xCC0 PUSH1 0x10 DUP4 PUSH2 0x10D9 JUMP JUMPDEST SWAP2 POP PUSH2 0xCCB DUP3 PUSH2 0x1274 JUMP JUMPDEST PUSH1 0x20 DUP3 ADD SWAP1 POP SWAP2 SWAP1 POP JUMP JUMPDEST PUSH1 0x0 PUSH2 0xCE3 PUSH1 0x11 DUP4 PUSH2 0x10D9 JUMP JUMPDEST SWAP2 POP PUSH2 0xCEE DUP3 PUSH2 0x129D JUMP JUMPDEST PUSH1 0x20 DUP3 ADD SWAP1 POP SWAP2 SWAP1 POP JUMP JUMPDEST PUSH1 0x0 PUSH2 0xD06 PUSH1 0x15 DUP4 PUSH2 0x10D9 JUMP JUMPDEST SWAP2 POP PUSH2 0xD11 DUP3 PUSH2 0x12C6 JUMP JUMPDEST PUSH1 0x20 DUP3 ADD SWAP1 POP SWAP2 SWAP1 POP JUMP JUMPDEST PUSH1 0x0 PUSH2 0xD29 PUSH1 0x37 DUP4 PUSH2 0x10D9 JUMP JUMPDEST SWAP2 POP PUSH2 0xD34 DUP3 PUSH2 0x12EF JUMP JUMPDEST PUSH1 0x40 DUP3 ADD SWAP1 POP SWAP2 SWAP1 POP JUMP JUMPDEST PUSH1 0x0 PUSH2 0xD4C PUSH1 0x16 DUP4 PUSH2 0x10D9 JUMP JUMPDEST SWAP2 POP PUSH2 0xD57 DUP3 PUSH2 0x133E JUMP JUMPDEST PUSH1 0x20 DUP3 ADD SWAP1 POP SWAP2 SWAP1 POP JUMP JUMPDEST PUSH1 0x0 PUSH2 0xD6F PUSH1 0x1D DUP4 PUSH2 0x10D9 JUMP JUMPDEST SWAP2 POP PUSH2 0xD7A DUP3 PUSH2 0x1367 JUMP JUMPDEST PUSH1 0x20 DUP3 ADD SWAP1 POP SWAP2 SWAP1 POP JUMP JUMPDEST PUSH1 0x0 PUSH2 0xD92 PUSH1 0x28 DUP4 PUSH2 0x10D9 JUMP JUMPDEST SWAP2 POP PUSH2 0xD9D DUP3 PUSH2 0x1390 JUMP JUMPDEST PUSH1 0x40 DUP3 ADD SWAP1 POP SWAP2 SWAP1 POP JUMP JUMPDEST PUSH1 0x0 PUSH2 0x140 DUP4 ADD PUSH1 0x0 DUP4 ADD MLOAD PUSH2 0xDC1 PUSH1 0x0 DUP7 ADD DUP3 PUSH2 0xC20 JUMP JUMPDEST POP PUSH1 0x20 DUP4 ADD MLOAD PUSH2 0xDD4 PUSH1 0x20 DUP7 ADD DUP3 PUSH2 0xC20 JUMP JUMPDEST POP PUSH1 0x40 DUP4 ADD MLOAD PUSH2 0xDE7 PUSH1 0x40 DUP7 ADD DUP3 PUSH2 0xE89 JUMP JUMPDEST POP PUSH1 0x60 DUP4 ADD MLOAD PUSH2 0xDFA PUSH1 0x60 DUP7 ADD DUP3 PUSH2 0xE89 JUMP JUMPDEST POP PUSH1 0x80 DUP4 ADD MLOAD PUSH2 0xE0D PUSH1 0x80 DUP7 ADD DUP3 PUSH2 0xEA7 JUMP JUMPDEST POP PUSH1 0xA0 DUP4 ADD MLOAD PUSH2 0xE20 PUSH1 0xA0 DUP7 ADD DUP3 PUSH2 0xE89 JUMP JUMPDEST POP PUSH1 0xC0 DUP4 ADD MLOAD PUSH2 0xE33 PUSH1 0xC0 DUP7 ADD DUP3 PUSH2 0xC3E JUMP JUMPDEST POP PUSH1 0xE0 DUP4 ADD MLOAD PUSH2 0xE46 PUSH1 0xE0 DUP7 ADD DUP3 PUSH2 0xC5C JUMP JUMPDEST POP PUSH2 0x100 DUP4 ADD MLOAD DUP5 DUP3 SUB PUSH2 0x100 DUP7 ADD MSTORE PUSH2 0xE60 DUP3 DUP3 PUSH2 0xC7A JUMP JUMPDEST SWAP2 POP POP PUSH2 0x120 DUP4 ADD MLOAD DUP5 DUP3 SUB PUSH2 0x120 DUP7 ADD MSTORE PUSH2 0xE7C DUP3 DUP3 PUSH2 0xC7A JUMP JUMPDEST SWAP2 POP POP DUP1 SWAP2 POP POP SWAP3 SWAP2 POP POP JUMP JUMPDEST PUSH2 0xE92 DUP2 PUSH2 0x11E2 JUMP JUMPDEST DUP3 MSTORE POP POP JUMP JUMPDEST PUSH2 0xEA1 DUP2 PUSH2 0x11E2 JUMP JUMPDEST DUP3 MSTORE POP POP JUMP JUMPDEST PUSH2 0xEB0 DUP2 PUSH2 0x11EC JUMP JUMPDEST DUP3 MSTORE POP POP JUMP JUMPDEST PUSH2 0xEBF DUP2 PUSH2 0x11EC JUMP JUMPDEST DUP3 MSTORE POP POP JUMP JUMPDEST PUSH1 0x0 PUSH1 0x20 DUP3 ADD SWAP1 POP PUSH2 0xEDA PUSH1 0x0 DUP4 ADD DUP5 PUSH2 0xC2F JUMP JUMPDEST SWAP3 SWAP2 POP POP JUMP JUMPDEST PUSH1 0x0 PUSH1 0xE0 DUP3 ADD SWAP1 POP PUSH2 0xEF5 PUSH1 0x0 DUP4 ADD DUP11 PUSH2 0xC2F JUMP JUMPDEST PUSH2 0xF02 PUSH1 0x20 DUP4 ADD DUP10 PUSH2 0xC2F JUMP JUMPDEST PUSH2 0xF0F PUSH1 0x40 DUP4 ADD DUP9 PUSH2 0xE98 JUMP JUMPDEST PUSH2 0xF1C PUSH1 0x60 DUP4 ADD DUP8 PUSH2 0xE98 JUMP JUMPDEST PUSH2 0xF29 PUSH1 0x80 DUP4 ADD DUP7 PUSH2 0xEB6 JUMP JUMPDEST PUSH2 0xF36 PUSH1 0xA0 DUP4 ADD DUP6 PUSH2 0xE98 JUMP JUMPDEST PUSH2 0xF43 PUSH1 0xC0 DUP4 ADD DUP5 PUSH2 0xC4D JUMP JUMPDEST SWAP9 SWAP8 POP POP POP POP POP POP POP POP JUMP JUMPDEST PUSH1 0x0 PUSH1 0x20 DUP3 ADD SWAP1 POP PUSH2 0xF64 PUSH1 0x0 DUP4 ADD DUP5 PUSH2 0xC4D JUMP JUMPDEST SWAP3 SWAP2 POP POP JUMP JUMPDEST PUSH1 0x0 PUSH1 0x20 DUP3 ADD SWAP1 POP PUSH2 0xF7F PUSH1 0x0 DUP4 ADD DUP5 PUSH2 0xC6B JUMP JUMPDEST SWAP3 SWAP2 POP POP JUMP JUMPDEST PUSH1 0x0 PUSH1 0x20 DUP3 ADD SWAP1 POP DUP2 DUP2 SUB PUSH1 0x0 DUP4 ADD MSTORE PUSH2 0xF9E DUP2 PUSH2 0xCB3 JUMP JUMPDEST SWAP1 POP SWAP2 SWAP1 POP JUMP JUMPDEST PUSH1 0x0 PUSH1 0x20 DUP3 ADD SWAP1 POP DUP2 DUP2 SUB PUSH1 0x0 DUP4 ADD MSTORE PUSH2 0xFBE DUP2 PUSH2 0xCD6 JUMP JUMPDEST SWAP1 POP SWAP2 SWAP1 POP JUMP JUMPDEST PUSH1 0x0 PUSH1 0x20 DUP3 ADD SWAP1 POP DUP2 DUP2 SUB PUSH1 0x0 DUP4 ADD MSTORE PUSH2 0xFDE DUP2 PUSH2 0xCF9 JUMP JUMPDEST SWAP1 POP SWAP2 SWAP1 POP JUMP JUMPDEST PUSH1 0x0 PUSH1 0x20 DUP3 ADD SWAP1 POP DUP2 DUP2 SUB PUSH1 0x0 DUP4 ADD MSTORE PUSH2 0xFFE DUP2 PUSH2 0xD1C JUMP JUMPDEST SWAP1 POP SWAP2 SWAP1 POP JUMP JUMPDEST PUSH1 0x0 PUSH1 0x20 DUP3 ADD SWAP1 POP DUP2 DUP2 SUB PUSH1 0x0 DUP4 ADD MSTORE PUSH2 0x101E DUP2 PUSH2 0xD3F JUMP JUMPDEST SWAP1 POP SWAP2 SWAP1 POP JUMP JUMPDEST PUSH1 0x0 PUSH1 0x20 DUP3 ADD SWAP1 POP DUP2 DUP2 SUB PUSH1 0x0 DUP4 ADD MSTORE PUSH2 0x103E DUP2 PUSH2 0xD62 JUMP JUMPDEST SWAP1 POP SWAP2 SWAP1 POP JUMP JUMPDEST PUSH1 0x0 PUSH1 0x20 DUP3 ADD SWAP1 POP DUP2 DUP2 SUB PUSH1 0x0 DUP4 ADD MSTORE PUSH2 0x105E DUP2 PUSH2 0xD85 JUMP JUMPDEST SWAP1 POP SWAP2 SWAP1 POP JUMP JUMPDEST PUSH1 0x0 PUSH1 0x20 DUP3 ADD SWAP1 POP DUP2 DUP2 SUB PUSH1 0x0 DUP4 ADD MSTORE PUSH2 0x107F DUP2 DUP5 PUSH2 0xDA8 JUMP JUMPDEST SWAP1 POP SWAP3 SWAP2 POP POP JUMP JUMPDEST PUSH1 0x0 PUSH1 0x20 DUP3 ADD SWAP1 POP PUSH2 0x109C PUSH1 0x0 DUP4 ADD DUP5 PUSH2 0xE98 JUMP JUMPDEST SWAP3 SWAP2 POP POP JUMP JUMPDEST PUSH1 0x0 PUSH1 0x20 DUP3 ADD SWAP1 POP PUSH2 0x10B7 PUSH1 0x0 DUP4 ADD DUP5 PUSH2 0xEB6 JUMP JUMPDEST SWAP3 SWAP2 POP POP JUMP JUMPDEST PUSH1 0x0 DUP2 MLOAD SWAP1 POP SWAP2 SWAP1 POP JUMP JUMPDEST PUSH1 0x0 DUP3 DUP3 MSTORE PUSH1 0x20 DUP3 ADD SWAP1 POP SWAP3 SWAP2 POP POP JUMP JUMPDEST PUSH1 0x0 DUP3 DUP3 MSTORE PUSH1 0x20 DUP3 ADD SWAP1 POP SWAP3 SWAP2 POP POP JUMP JUMPDEST PUSH1 0x0 PUSH2 0x10F5 DUP3 PUSH2 0x11E2 JUMP JUMPDEST SWAP2 POP PUSH2 0x1100 DUP4 PUSH2 0x11E2 JUMP JUMPDEST SWAP3 POP DUP3 PUSH32 0xFFFFFFFFFFFFFFFFFFFFFFFFFFFFFFFFFFFFFFFFFFFFFFFFFFFFFFFFFFFFFFFF SUB DUP3 GT ISZERO PUSH2 0x1135 JUMPI PUSH2 0x1134 PUSH2 0x122F JUMP JUMPDEST JUMPDEST DUP3 DUP3 ADD SWAP1 POP SWAP3 SWAP2 POP POP JUMP JUMPDEST PUSH1 0x0 PUSH2 0x114B DUP3 PUSH2 0x11E2 JUMP JUMPDEST SWAP2 POP PUSH2 0x1156 DUP4 PUSH2 0x11E2 JUMP JUMPDEST SWAP3 POP DUP2 PUSH32 0xFFFFFFFFFFFFFFFFFFFFFFFFFFFFFFFFFFFFFFFFFFFFFFFFFFFFFFFFFFFFFFFF DIV DUP4 GT DUP3 ISZERO ISZERO AND ISZERO PUSH2 0x118F JUMPI PUSH2 0x118E PUSH2 0x122F JUMP JUMPDEST JUMPDEST DUP3 DUP3 MUL SWAP1 POP SWAP3 SWAP2 POP POP JUMP JUMPDEST PUSH1 0x0 PUSH2 0x11A5 DUP3 PUSH2 0x11C2 JUMP JUMPDEST SWAP1 POP SWAP2 SWAP1 POP JUMP JUMPDEST PUSH1 0x0 DUP2 ISZERO ISZERO SWAP1 POP SWAP2 SWAP1 POP JUMP JUMPDEST PUSH1 0x0 DUP2 SWAP1 POP SWAP2 SWAP1 POP JUMP JUMPDEST PUSH1 0x0 PUSH20 0xFFFFFFFFFFFFFFFFFFFFFFFFFFFFFFFFFFFFFFFF DUP3 AND SWAP1 POP SWAP2 SWAP1 POP JUMP JUMPDEST PUSH1 0x0 DUP2 SWAP1 POP SWAP2 SWAP1 POP JUMP JUMPDEST PUSH1 0x0 PUSH4 0xFFFFFFFF DUP3 AND SWAP1 POP SWAP2 SWAP1 POP JUMP JUMPDEST PUSH1 0x0 JUMPDEST DUP4 DUP2 LT ISZERO PUSH2 0x121A JUMPI DUP1 DUP3 ADD MLOAD DUP2 DUP5 ADD MSTORE PUSH1 0x20 DUP2 ADD SWAP1 POP PUSH2 0x11FF JUMP JUMPDEST DUP4 DUP2 GT ISZERO PUSH2 0x1229 JUMPI PUSH1 0x0 DUP5 DUP5 ADD MSTORE JUMPDEST POP POP POP POP JUMP JUMPDEST PUSH32 0x4E487B7100000000000000000000000000000000000000000000000000000000 PUSH1 0x0 MSTORE PUSH1 0x11 PUSH1 0x4 MSTORE PUSH1 0x24 PUSH1 0x0 REVERT JUMPDEST PUSH1 0x0 DUP1 REVERT JUMPDEST PUSH1 0x0 PUSH1 0x1F NOT PUSH1 0x1F DUP4 ADD AND SWAP1 POP SWAP2 SWAP1 POP JUMP JUMPDEST PUSH32 0x4E6F7420656E6F756768206D6F6E657900000000000000000000000000000000 PUSH1 0x0 DUP3 ADD MSTORE POP JUMP JUMPDEST PUSH32 0x546F6F206C697474656C206D6F6E657921000000000000000000000000000000 PUSH1 0x0 DUP3 ADD MSTORE POP JUMP JUMPDEST PUSH32 0x596F7520617265206E6F742061206D616E616765720000000000000000000000 PUSH1 0x0 DUP3 ADD MSTORE POP JUMP JUMPDEST PUSH32 0x5468697320707572636861736520776173207375636365737366756C2C20796F PUSH1 0x0 DUP3 ADD MSTORE PUSH32 0x752063616E6E6F74206D616B65206120726566756E6421000000000000000000 PUSH1 0x20 DUP3 ADD MSTORE POP JUMP JUMPDEST PUSH32 0x54686973207075726368617365206973206F7665722100000000000000000000 PUSH1 0x0 DUP3 ADD MSTORE POP JUMP JUMPDEST PUSH32 0x46756E6472616973696E672074696D65206973206E6F74206F76657221000000 PUSH1 0x0 DUP3 ADD MSTORE POP JUMP JUMPDEST PUSH32 0x596F7520617265206E6F74206120637573746F6D657220696E20746869732063 PUSH1 0x0 DUP3 ADD MSTORE PUSH32 0x6F6E747261637421000000000000000000000000000000000000000000000000 PUSH1 0x20 DUP3 ADD MSTORE POP JUMP JUMPDEST PUSH2 0x13E8 DUP2 PUSH2 0x119A JUMP JUMPDEST DUP2 EQ PUSH2 0x13F3 JUMPI PUSH1 0x0 DUP1 REVERT JUMPDEST POP JUMP JUMPDEST PUSH2 0x13FF DUP2 PUSH2 0x11EC JUMP JUMPDEST DUP2 EQ PUSH2 0x140A JUMPI PUSH1 0x0 DUP1 REVERT JUMPDEST POP JUMP INVALID LOG2 PUSH5 0x6970667358 0x22 SLT KECCAK256 CHAINID PUSH30 0xEC34AE2C1A913A7F9BA611EB8ADFCD6DEA888AC4441B04D115AA549EBDE4 PUSH5 0x736F6C6343 STOP ADDMOD SMOD STOP CALLER PUSH1 0x80 PUSH1 0x40 MSTORE CALLVALUE DUP1 ISZERO PUSH3 0x11 JUMPI PUSH1 0x0 DUP1 REVERT JUMPDEST POP PUSH1 0x40 MLOAD PUSH3 0x1D34 CODESIZE SUB DUP1 PUSH3 0x1D34 DUP4 CODECOPY DUP2 DUP2 ADD PUSH1 0x40 MSTORE DUP2 ADD SWAP1 PUSH3 0x37 SWAP2 SWAP1 PUSH3 0x299 JUMP JUMPDEST DUP7 DUP7 DUP7 DUP7 DUP7 DUP5 PUSH1 0x0 DUP1 PUSH2 0x100 EXP DUP2 SLOAD DUP2 PUSH20 0xFFFFFFFFFFFFFFFFFFFFFFFFFFFFFFFFFFFFFFFF MUL NOT AND SWAP1 DUP4 PUSH20 0xFFFFFFFFFFFFFFFFFFFFFFFFFFFFFFFFFFFFFFFF AND MUL OR SWAP1 SSTORE POP DUP4 PUSH1 0x1 PUSH1 0x0 PUSH2 0x100 EXP DUP2 SLOAD DUP2 PUSH20 0xFFFFFFFFFFFFFFFFFFFFFFFFFFFFFFFFFFFFFFFF MUL NOT AND SWAP1 DUP4 PUSH20 0xFFFFFFFFFFFFFFFFFFFFFFFFFFFFFFFFFFFFFFFF AND MUL OR SWAP1 SSTORE POP DUP3 PUSH1 0x2 DUP2 SWAP1 SSTORE POP DUP2 PUSH1 0x3 DUP2 SWAP1 SSTORE POP DUP1 TIMESTAMP PUSH3 0xD9 SWAP2 SWAP1 PUSH3 0x3E9 JUMP JUMPDEST PUSH1 0x4 PUSH1 0x0 PUSH2 0x100 EXP DUP2 SLOAD DUP2 PUSH4 0xFFFFFFFF MUL NOT AND SWAP1 DUP4 PUSH4 0xFFFFFFFF AND MUL OR SWAP1 SSTORE POP POP POP POP POP POP DUP2 PUSH1 0x8 SWAP1 DUP1 MLOAD SWAP1 PUSH1 0x20 ADD SWAP1 PUSH3 0x116 SWAP3 SWAP2 SWAP1 PUSH3 0x13D JUMP JUMPDEST POP DUP1 PUSH1 0x9 SWAP1 DUP1 MLOAD SWAP1 PUSH1 0x20 ADD SWAP1 PUSH3 0x12F SWAP3 SWAP2 SWAP1 PUSH3 0x13D JUMP JUMPDEST POP POP POP POP POP POP POP POP PUSH3 0x60C JUMP JUMPDEST DUP3 DUP1 SLOAD PUSH3 0x14B SWAP1 PUSH3 0x4BA JUMP JUMPDEST SWAP1 PUSH1 0x0 MSTORE PUSH1 0x20 PUSH1 0x0 KECCAK256 SWAP1 PUSH1 0x1F ADD PUSH1 0x20 SWAP1 DIV DUP2 ADD SWAP3 DUP3 PUSH3 0x16F JUMPI PUSH1 0x0 DUP6 SSTORE PUSH3 0x1BB JUMP JUMPDEST DUP3 PUSH1 0x1F LT PUSH3 0x18A JUMPI DUP1 MLOAD PUSH1 0xFF NOT AND DUP4 DUP1 ADD OR DUP6 SSTORE PUSH3 0x1BB JUMP JUMPDEST DUP3 DUP1 ADD PUSH1 0x1 ADD DUP6 SSTORE DUP3 ISZERO PUSH3 0x1BB JUMPI SWAP2 DUP3 ADD JUMPDEST DUP3 DUP2 GT ISZERO PUSH3 0x1BA JUMPI DUP3 MLOAD DUP3 SSTORE SWAP2 PUSH1 0x20 ADD SWAP2 SWAP1 PUSH1 0x1 ADD SWAP1 PUSH3 0x19D JUMP JUMPDEST JUMPDEST POP SWAP1 POP PUSH3 0x1CA SWAP2 SWAP1 PUSH3 0x1CE JUMP JUMPDEST POP SWAP1 JUMP JUMPDEST JUMPDEST DUP1 DUP3 GT ISZERO PUSH3 0x1E9 JUMPI PUSH1 0x0 DUP2 PUSH1 0x0 SWAP1 SSTORE POP PUSH1 0x1 ADD PUSH3 0x1CF JUMP JUMPDEST POP SWAP1 JUMP JUMPDEST PUSH1 0x0 PUSH3 0x204 PUSH3 0x1FE DUP5 PUSH3 0x3B3 JUMP JUMPDEST PUSH3 0x38A JUMP JUMPDEST SWAP1 POP DUP3 DUP2 MSTORE PUSH1 0x20 DUP2 ADD DUP5 DUP5 DUP5 ADD GT ISZERO PUSH3 0x223 JUMPI PUSH3 0x222 PUSH3 0x5B8 JUMP JUMPDEST JUMPDEST PUSH3 0x230 DUP5 DUP3 DUP6 PUSH3 0x484 JUMP JUMPDEST POP SWAP4 SWAP3 POP POP POP JUMP JUMPDEST PUSH1 0x0 DUP2 MLOAD SWAP1 POP PUSH3 0x249 DUP2 PUSH3 0x5D8 JUMP JUMPDEST SWAP3 SWAP2 POP POP JUMP JUMPDEST PUSH1 0x0 DUP3 PUSH1 0x1F DUP4 ADD SLT PUSH3 0x267 JUMPI PUSH3 0x266 PUSH3 0x5B3 JUMP JUMPDEST JUMPDEST DUP2 MLOAD PUSH3 0x279 DUP5 DUP3 PUSH1 0x20 DUP7 ADD PUSH3 0x1ED JUMP JUMPDEST SWAP2 POP POP SWAP3 SWAP2 POP POP JUMP JUMPDEST PUSH1 0x0 DUP2 MLOAD SWAP1 POP PUSH3 0x293 DUP2 PUSH3 0x5F2 JUMP JUMPDEST SWAP3 SWAP2 POP POP JUMP JUMPDEST PUSH1 0x0 DUP1 PUSH1 0x0 DUP1 PUSH1 0x0 DUP1 PUSH1 0x0 PUSH1 0xE0 DUP9 DUP11 SUB SLT ISZERO PUSH3 0x2BB JUMPI PUSH3 0x2BA PUSH3 0x5C2 JUMP JUMPDEST JUMPDEST PUSH1 0x0 PUSH3 0x2CB DUP11 DUP3 DUP12 ADD PUSH3 0x238 JUMP JUMPDEST SWAP8 POP POP PUSH1 0x20 PUSH3 0x2DE DUP11 DUP3 DUP12 ADD PUSH3 0x238 JUMP JUMPDEST SWAP7 POP POP PUSH1 0x40 PUSH3 0x2F1 DUP11 DUP3 DUP12 ADD PUSH3 0x282 JUMP JUMPDEST SWAP6 POP POP PUSH1 0x60 PUSH3 0x304 DUP11 DUP3 DUP12 ADD PUSH3 0x282 JUMP JUMPDEST SWAP5 POP POP PUSH1 0x80 PUSH3 0x317 DUP11 DUP3 DUP12 ADD PUSH3 0x282 JUMP JUMPDEST SWAP4 POP POP PUSH1 0xA0 DUP9 ADD MLOAD PUSH8 0xFFFFFFFFFFFFFFFF DUP2 GT ISZERO PUSH3 0x33B JUMPI PUSH3 0x33A PUSH3 0x5BD JUMP JUMPDEST JUMPDEST PUSH3 0x349 DUP11 DUP3 DUP12 ADD PUSH3 0x24F JUMP JUMPDEST SWAP3 POP POP PUSH1 0xC0 DUP9 ADD MLOAD PUSH8 0xFFFFFFFFFFFFFFFF DUP2 GT ISZERO PUSH3 0x36D JUMPI PUSH3 0x36C PUSH3 0x5BD JUMP JUMPDEST JUMPDEST PUSH3 0x37B DUP11 DUP3 DUP12 ADD PUSH3 0x24F JUMP JUMPDEST SWAP2 POP POP SWAP3 SWAP6 SWAP9 SWAP2 SWAP5 SWAP8 POP SWAP3 SWAP6 POP JUMP JUMPDEST PUSH1 0x0 PUSH3 0x396 PUSH3 0x3A9 JUMP JUMPDEST SWAP1 POP PUSH3 0x3A4 DUP3 DUP3 PUSH3 0x4F0 JUMP JUMPDEST SWAP2 SWAP1 POP JUMP JUMPDEST PUSH1 0x0 PUSH1 0x40 MLOAD SWAP1 POP SWAP1 JUMP JUMPDEST PUSH1 0x0 PUSH8 0xFFFFFFFFFFFFFFFF DUP3 GT ISZERO PUSH3 0x3D1 JUMPI PUSH3 0x3D0 PUSH3 0x584 JUMP JUMPDEST JUMPDEST PUSH3 0x3DC DUP3 PUSH3 0x5C7 JUMP JUMPDEST SWAP1 POP PUSH1 0x20 DUP2 ADD SWAP1 POP SWAP2 SWAP1 POP JUMP JUMPDEST PUSH1 0x0 PUSH3 0x3F6 DUP3 PUSH3 0x47A JUMP JUMPDEST SWAP2 POP PUSH3 0x403 DUP4 PUSH3 0x47A JUMP JUMPDEST SWAP3 POP DUP3 PUSH32 0xFFFFFFFFFFFFFFFFFFFFFFFFFFFFFFFFFFFFFFFFFFFFFFFFFFFFFFFFFFFFFFFF SUB DUP3 GT ISZERO PUSH3 0x43B JUMPI PUSH3 0x43A PUSH3 0x526 JUMP JUMPDEST JUMPDEST DUP3 DUP3 ADD SWAP1 POP SWAP3 SWAP2 POP POP JUMP JUMPDEST PUSH1 0x0 PUSH3 0x453 DUP3 PUSH3 0x45A JUMP JUMPDEST SWAP1 POP SWAP2 SWAP1 POP JUMP JUMPDEST PUSH1 0x0 PUSH20 0xFFFFFFFFFFFFFFFFFFFFFFFFFFFFFFFFFFFFFFFF DUP3 AND SWAP1 POP SWAP2 SWAP1 POP JUMP JUMPDEST PUSH1 0x0 DUP2 SWAP1 POP SWAP2 SWAP1 POP JUMP JUMPDEST PUSH1 0x0 JUMPDEST DUP4 DUP2 LT ISZERO PUSH3 0x4A4 JUMPI DUP1 DUP3 ADD MLOAD DUP2 DUP5 ADD MSTORE PUSH1 0x20 DUP2 ADD SWAP1 POP PUSH3 0x487 JUMP JUMPDEST DUP4 DUP2 GT ISZERO PUSH3 0x4B4 JUMPI PUSH1 0x0 DUP5 DUP5 ADD MSTORE JUMPDEST POP POP POP POP JUMP JUMPDEST PUSH1 0x0 PUSH1 0x2 DUP3 DIV SWAP1 POP PUSH1 0x1 DUP3 AND DUP1 PUSH3 0x4D3 JUMPI PUSH1 0x7F DUP3 AND SWAP2 POP JUMPDEST PUSH1 0x20 DUP3 LT DUP2 EQ ISZERO PUSH3 0x4EA JUMPI PUSH3 0x4E9 PUSH3 0x555 JUMP JUMPDEST JUMPDEST POP SWAP2 SWAP1 POP JUMP JUMPDEST PUSH3 0x4FB DUP3 PUSH3 0x5C7 JUMP JUMPDEST DUP2 ADD DUP2 DUP2 LT PUSH8 0xFFFFFFFFFFFFFFFF DUP3 GT OR ISZERO PUSH3 0x51D JUMPI PUSH3 0x51C PUSH3 0x584 JUMP JUMPDEST JUMPDEST DUP1 PUSH1 0x40 MSTORE POP POP POP JUMP JUMPDEST PUSH32 0x4E487B7100000000000000000000000000000000000000000000000000000000 PUSH1 0x0 MSTORE PUSH1 0x11 PUSH1 0x4 MSTORE PUSH1 0x24 PUSH1 0x0 REVERT JUMPDEST PUSH32 0x4E487B7100000000000000000000000000000000000000000000000000000000 PUSH1 0x0 MSTORE PUSH1 0x22 PUSH1 0x4 MSTORE PUSH1 0x24 PUSH1 0x0 REVERT JUMPDEST PUSH32 0x4E487B7100000000000000000000000000000000000000000000000000000000 PUSH1 0x0 MSTORE PUSH1 0x41 PUSH1 0x4 MSTORE PUSH1 0x24 PUSH1 0x0 REVERT JUMPDEST PUSH1 0x0 DUP1 REVERT JUMPDEST PUSH1 0x0 DUP1 REVERT JUMPDEST PUSH1 0x0 DUP1 REVERT JUMPDEST PUSH1 0x0 DUP1 REVERT JUMPDEST PUSH1 0x0 PUSH1 0x1F NOT PUSH1 0x1F DUP4 ADD AND SWAP1 POP SWAP2 SWAP1 POP JUMP JUMPDEST PUSH3 0x5E3 DUP2 PUSH3 0x446 JUMP JUMPDEST DUP2 EQ PUSH3 0x5EF JUMPI PUSH1 0x0 DUP1 REVERT JUMPDEST POP JUMP JUMPDEST PUSH3 0x5FD DUP2 PUSH3 0x47A JUMP JUMPDEST DUP2 EQ PUSH3 0x609 JUMPI PUSH1 0x0 DUP1 REVERT JUMPDEST POP JUMP JUMPDEST PUSH2 0x1718 DUP1 PUSH3 0x61C PUSH1 0x0 CODECOPY PUSH1 0x0 RETURN INVALID PUSH1 0x80 PUSH1 0x40 MSTORE PUSH1 0x4 CALLDATASIZE LT PUSH2 0xF3 JUMPI PUSH1 0x0 CALLDATALOAD PUSH1 0xE0 SHR DUP1 PUSH4 0x5A9B0B89 GT PUSH2 0x8A JUMPI DUP1 PUSH4 0x839C54B2 GT PUSH2 0x59 JUMPI DUP1 PUSH4 0x839C54B2 EQ PUSH2 0x2DD JUMPI DUP1 PUSH4 0x8D565C3F EQ PUSH2 0x308 JUMPI DUP1 PUSH4 0xD65B860F EQ PUSH2 0x333 JUMPI DUP1 PUSH4 0xDE33CFB0 EQ PUSH2 0x35E JUMPI PUSH2 0xF3 JUMP JUMPDEST DUP1 PUSH4 0x5A9B0B89 EQ PUSH2 0x245 JUMPI DUP1 PUSH4 0x67C6DE0B EQ PUSH2 0x270 JUMPI DUP1 PUSH4 0x79A62BFC EQ PUSH2 0x29B JUMPI DUP1 PUSH4 0x7B352962 EQ PUSH2 0x2B2 JUMPI PUSH2 0xF3 JUMP JUMPDEST DUP1 PUSH4 0x481C6A75 GT PUSH2 0xC6 JUMPI DUP1 PUSH4 0x481C6A75 EQ PUSH2 0x1AD JUMPI DUP1 PUSH4 0x4A79D50C EQ PUSH2 0x1D8 JUMPI DUP1 PUSH4 0x55F150F1 EQ PUSH2 0x203 JUMPI DUP1 PUSH4 0x590E1AE3 EQ PUSH2 0x22E JUMPI PUSH2 0xF3 JUMP JUMPDEST DUP1 PUSH4 0x99E209E EQ PUSH2 0xF8 JUMPI DUP1 PUSH4 0x35052E1E EQ PUSH2 0x135 JUMPI DUP1 PUSH4 0x36DA4468 EQ PUSH2 0x151 JUMPI DUP1 PUSH4 0x39FF9F9C EQ PUSH2 0x17C JUMPI JUMPDEST PUSH1 0x0 DUP1 REVERT JUMPDEST CALLVALUE DUP1 ISZERO PUSH2 0x104 JUMPI PUSH1 0x0 DUP1 REVERT JUMPDEST POP PUSH2 0x11F PUSH1 0x4 DUP1 CALLDATASIZE SUB DUP2 ADD SWAP1 PUSH2 0x11A SWAP2 SWAP1 PUSH2 0xE09 JUMP JUMPDEST PUSH2 0x375 JUMP JUMPDEST PUSH1 0x40 MLOAD PUSH2 0x12C SWAP2 SWAP1 PUSH2 0x1316 JUMP JUMPDEST PUSH1 0x40 MLOAD DUP1 SWAP2 SUB SWAP1 RETURN JUMPDEST PUSH2 0x14F PUSH1 0x4 DUP1 CALLDATASIZE SUB DUP2 ADD SWAP1 PUSH2 0x14A SWAP2 SWAP1 PUSH2 0xE36 JUMP JUMPDEST PUSH2 0x398 JUMP JUMPDEST STOP JUMPDEST CALLVALUE DUP1 ISZERO PUSH2 0x15D JUMPI PUSH1 0x0 DUP1 REVERT JUMPDEST POP PUSH2 0x166 PUSH2 0x4C4 JUMP JUMPDEST PUSH1 0x40 MLOAD PUSH2 0x173 SWAP2 SWAP1 PUSH2 0x1132 JUMP JUMPDEST PUSH1 0x40 MLOAD DUP1 SWAP2 SUB SWAP1 RETURN JUMPDEST CALLVALUE DUP1 ISZERO PUSH2 0x188 JUMPI PUSH1 0x0 DUP1 REVERT JUMPDEST POP PUSH2 0x191 PUSH2 0x4EA JUMP JUMPDEST PUSH1 0x40 MLOAD PUSH2 0x1A4 SWAP8 SWAP7 SWAP6 SWAP5 SWAP4 SWAP3 SWAP2 SWAP1 PUSH2 0x114D JUMP JUMPDEST PUSH1 0x40 MLOAD DUP1 SWAP2 SUB SWAP1 RETURN JUMPDEST CALLVALUE DUP1 ISZERO PUSH2 0x1B9 JUMPI PUSH1 0x0 DUP1 REVERT JUMPDEST POP PUSH2 0x1C2 PUSH2 0x57D JUMP JUMPDEST PUSH1 0x40 MLOAD PUSH2 0x1CF SWAP2 SWAP1 PUSH2 0x1132 JUMP JUMPDEST PUSH1 0x40 MLOAD DUP1 SWAP2 SUB SWAP1 RETURN JUMPDEST CALLVALUE DUP1 ISZERO PUSH2 0x1E4 JUMPI PUSH1 0x0 DUP1 REVERT JUMPDEST POP PUSH2 0x1ED PUSH2 0x5A1 JUMP JUMPDEST PUSH1 0x40 MLOAD PUSH2 0x1FA SWAP2 SWAP1 PUSH2 0x11D7 JUMP JUMPDEST PUSH1 0x40 MLOAD DUP1 SWAP2 SUB SWAP1 RETURN JUMPDEST CALLVALUE DUP1 ISZERO PUSH2 0x20F JUMPI PUSH1 0x0 DUP1 REVERT JUMPDEST POP PUSH2 0x218 PUSH2 0x62F JUMP JUMPDEST PUSH1 0x40 MLOAD PUSH2 0x225 SWAP2 SWAP1 PUSH2 0x11D7 JUMP JUMPDEST PUSH1 0x40 MLOAD DUP1 SWAP2 SUB SWAP1 RETURN JUMPDEST CALLVALUE DUP1 ISZERO PUSH2 0x23A JUMPI PUSH1 0x0 DUP1 REVERT JUMPDEST POP PUSH2 0x243 PUSH2 0x6BD JUMP JUMPDEST STOP JUMPDEST CALLVALUE DUP1 ISZERO PUSH2 0x251 JUMPI PUSH1 0x0 DUP1 REVERT JUMPDEST POP PUSH2 0x25A PUSH2 0x8A6 JUMP JUMPDEST PUSH1 0x40 MLOAD PUSH2 0x267 SWAP2 SWAP1 PUSH2 0x12D9 JUMP JUMPDEST PUSH1 0x40 MLOAD DUP1 SWAP2 SUB SWAP1 RETURN JUMPDEST CALLVALUE DUP1 ISZERO PUSH2 0x27C JUMPI PUSH1 0x0 DUP1 REVERT JUMPDEST POP PUSH2 0x285 PUSH2 0xA72 JUMP JUMPDEST PUSH1 0x40 MLOAD PUSH2 0x292 SWAP2 SWAP1 PUSH2 0x1316 JUMP JUMPDEST PUSH1 0x40 MLOAD DUP1 SWAP2 SUB SWAP1 RETURN JUMPDEST CALLVALUE DUP1 ISZERO PUSH2 0x2A7 JUMPI PUSH1 0x0 DUP1 REVERT JUMPDEST POP PUSH2 0x2B0 PUSH2 0xA88 JUMP JUMPDEST STOP JUMPDEST CALLVALUE DUP1 ISZERO PUSH2 0x2BE JUMPI PUSH1 0x0 DUP1 REVERT JUMPDEST POP PUSH2 0x2C7 PUSH2 0xB67 JUMP JUMPDEST PUSH1 0x40 MLOAD PUSH2 0x2D4 SWAP2 SWAP1 PUSH2 0x11BC JUMP JUMPDEST PUSH1 0x40 MLOAD DUP1 SWAP2 SUB SWAP1 RETURN JUMPDEST CALLVALUE DUP1 ISZERO PUSH2 0x2E9 JUMPI PUSH1 0x0 DUP1 REVERT JUMPDEST POP PUSH2 0x2F2 PUSH2 0xB7A JUMP JUMPDEST PUSH1 0x40 MLOAD PUSH2 0x2FF SWAP2 SWAP1 PUSH2 0x12FB JUMP JUMPDEST PUSH1 0x40 MLOAD DUP1 SWAP2 SUB SWAP1 RETURN JUMPDEST CALLVALUE DUP1 ISZERO PUSH2 0x314 JUMPI PUSH1 0x0 DUP1 REVERT JUMPDEST POP PUSH2 0x31D PUSH2 0xB80 JUMP JUMPDEST PUSH1 0x40 MLOAD PUSH2 0x32A SWAP2 SWAP1 PUSH2 0x12FB JUMP JUMPDEST PUSH1 0x40 MLOAD DUP1 SWAP2 SUB SWAP1 RETURN JUMPDEST CALLVALUE DUP1 ISZERO PUSH2 0x33F JUMPI PUSH1 0x0 DUP1 REVERT JUMPDEST POP PUSH2 0x348 PUSH2 0xB86 JUMP JUMPDEST PUSH1 0x40 MLOAD PUSH2 0x355 SWAP2 SWAP1 PUSH2 0x12FB JUMP JUMPDEST PUSH1 0x40 MLOAD DUP1 SWAP2 SUB SWAP1 RETURN JUMPDEST CALLVALUE DUP1 ISZERO PUSH2 0x36A JUMPI PUSH1 0x0 DUP1 REVERT JUMPDEST POP PUSH2 0x373 PUSH2 0xB8C JUMP JUMPDEST STOP JUMPDEST PUSH1 0x5 PUSH1 0x20 MSTORE DUP1 PUSH1 0x0 MSTORE PUSH1 0x40 PUSH1 0x0 KECCAK256 PUSH1 0x0 SWAP2 POP SLOAD SWAP1 PUSH2 0x100 EXP SWAP1 DIV PUSH4 0xFFFFFFFF AND DUP2 JUMP JUMPDEST PUSH1 0x7 PUSH1 0x0 SWAP1 SLOAD SWAP1 PUSH2 0x100 EXP SWAP1 DIV PUSH1 0xFF AND ISZERO PUSH2 0x3E8 JUMPI PUSH1 0x40 MLOAD PUSH32 0x8C379A000000000000000000000000000000000000000000000000000000000 DUP2 MSTORE PUSH1 0x4 ADD PUSH2 0x3DF SWAP1 PUSH2 0x1279 JUMP JUMPDEST PUSH1 0x40 MLOAD DUP1 SWAP2 SUB SWAP1 REVERT JUMPDEST PUSH1 0x0 DUP2 PUSH4 0xFFFFFFFF AND PUSH1 0x2 SLOAD PUSH2 0x3FE SWAP2 SWAP1 PUSH2 0x13B4 JUMP JUMPDEST SWAP1 POP CALLVALUE DUP2 GT ISZERO PUSH2 0x443 JUMPI PUSH1 0x40 MLOAD PUSH32 0x8C379A000000000000000000000000000000000000000000000000000000000 DUP2 MSTORE PUSH1 0x4 ADD PUSH2 0x43A SWAP1 PUSH2 0x1219 JUMP JUMPDEST PUSH1 0x40 MLOAD DUP1 SWAP2 SUB SWAP1 REVERT JUMPDEST DUP2 PUSH1 0x5 PUSH1 0x0 CALLER PUSH20 0xFFFFFFFFFFFFFFFFFFFFFFFFFFFFFFFFFFFFFFFF AND PUSH20 0xFFFFFFFFFFFFFFFFFFFFFFFFFFFFFFFFFFFFFFFF AND DUP2 MSTORE PUSH1 0x20 ADD SWAP1 DUP2 MSTORE PUSH1 0x20 ADD PUSH1 0x0 KECCAK256 PUSH1 0x0 PUSH2 0x100 EXP DUP2 SLOAD DUP2 PUSH4 0xFFFFFFFF MUL NOT AND SWAP1 DUP4 PUSH4 0xFFFFFFFF AND MUL OR SWAP1 SSTORE POP DUP2 PUSH4 0xFFFFFFFF AND PUSH1 0x6 PUSH1 0x0 DUP3 DUP3 SLOAD PUSH2 0x4B9 SWAP2 SWAP1 PUSH2 0x135E JUMP JUMPDEST SWAP3 POP POP DUP2 SWAP1 SSTORE POP POP POP JUMP JUMPDEST PUSH1 0x1 PUSH1 0x0 SWAP1 SLOAD SWAP1 PUSH2 0x100 EXP SWAP1 DIV PUSH20 0xFFFFFFFFFFFFFFFFFFFFFFFFFFFFFFFFFFFFFFFF AND DUP2 JUMP JUMPDEST PUSH1 0x0 DUP1 PUSH1 0x0 DUP1 PUSH1 0x0 DUP1 PUSH1 0x0 DUP1 PUSH1 0x0 SWAP1 SLOAD SWAP1 PUSH2 0x100 EXP SWAP1 DIV PUSH20 0xFFFFFFFFFFFFFFFFFFFFFFFFFFFFFFFFFFFFFFFF AND PUSH1 0x1 PUSH1 0x0 SWAP1 SLOAD SWAP1 PUSH2 0x100 EXP SWAP1 DIV PUSH20 0xFFFFFFFFFFFFFFFFFFFFFFFFFFFFFFFFFFFFFFFF AND PUSH1 0x2 SLOAD PUSH1 0x3 SLOAD PUSH1 0x4 PUSH1 0x0 SWAP1 SLOAD SWAP1 PUSH2 0x100 EXP SWAP1 DIV PUSH4 0xFFFFFFFF AND PUSH1 0x6 SLOAD PUSH1 0x7 PUSH1 0x0 SWAP1 SLOAD SWAP1 PUSH2 0x100 EXP SWAP1 DIV PUSH1 0xFF AND SWAP7 POP SWAP7 POP SWAP7 POP SWAP7 POP SWAP7 POP SWAP7 POP SWAP7 POP SWAP1 SWAP2 SWAP3 SWAP4 SWAP5 SWAP6 SWAP7 JUMP JUMPDEST PUSH1 0x0 DUP1 SLOAD SWAP1 PUSH2 0x100 EXP SWAP1 DIV PUSH20 0xFFFFFFFFFFFFFFFFFFFFFFFFFFFFFFFFFFFFFFFF AND DUP2 JUMP JUMPDEST PUSH1 0x8 DUP1 SLOAD PUSH2 0x5AE SWAP1 PUSH2 0x14A3 JUMP JUMPDEST DUP1 PUSH1 0x1F ADD PUSH1 0x20 DUP1 SWAP2 DIV MUL PUSH1 0x20 ADD PUSH1 0x40 MLOAD SWAP1 DUP2 ADD PUSH1 0x40 MSTORE DUP1 SWAP3 SWAP2 SWAP1 DUP2 DUP2 MSTORE PUSH1 0x20 ADD DUP3 DUP1 SLOAD PUSH2 0x5DA SWAP1 PUSH2 0x14A3 JUMP JUMPDEST DUP1 ISZERO PUSH2 0x627 JUMPI DUP1 PUSH1 0x1F LT PUSH2 0x5FC JUMPI PUSH2 0x100 DUP1 DUP4 SLOAD DIV MUL DUP4 MSTORE SWAP2 PUSH1 0x20 ADD SWAP2 PUSH2 0x627 JUMP JUMPDEST DUP3 ADD SWAP2 SWAP1 PUSH1 0x0 MSTORE PUSH1 0x20 PUSH1 0x0 KECCAK256 SWAP1 JUMPDEST DUP2 SLOAD DUP2 MSTORE SWAP1 PUSH1 0x1 ADD SWAP1 PUSH1 0x20 ADD DUP1 DUP4 GT PUSH2 0x60A JUMPI DUP3 SWAP1 SUB PUSH1 0x1F AND DUP3 ADD SWAP2 JUMPDEST POP POP POP POP POP DUP2 JUMP JUMPDEST PUSH1 0x9 DUP1 SLOAD PUSH2 0x63C SWAP1 PUSH2 0x14A3 JUMP JUMPDEST DUP1 PUSH1 0x1F ADD PUSH1 0x20 DUP1 SWAP2 DIV MUL PUSH1 0x20 ADD PUSH1 0x40 MLOAD SWAP1 DUP2 ADD PUSH1 0x40 MSTORE DUP1 SWAP3 SWAP2 SWAP1 DUP2 DUP2 MSTORE PUSH1 0x20 ADD DUP3 DUP1 SLOAD PUSH2 0x668 SWAP1 PUSH2 0x14A3 JUMP JUMPDEST DUP1 ISZERO PUSH2 0x6B5 JUMPI DUP1 PUSH1 0x1F LT PUSH2 0x68A JUMPI PUSH2 0x100 DUP1 DUP4 SLOAD DIV MUL DUP4 MSTORE SWAP2 PUSH1 0x20 ADD SWAP2 PUSH2 0x6B5 JUMP JUMPDEST DUP3 ADD SWAP2 SWAP1 PUSH1 0x0 MSTORE PUSH1 0x20 PUSH1 0x0 KECCAK256 SWAP1 JUMPDEST DUP2 SLOAD DUP2 MSTORE SWAP1 PUSH1 0x1 ADD SWAP1 PUSH1 0x20 ADD DUP1 DUP4 GT PUSH2 0x698 JUMPI DUP3 SWAP1 SUB PUSH1 0x1F AND DUP3 ADD SWAP2 JUMPDEST POP POP POP POP POP DUP2 JUMP JUMPDEST PUSH1 0x0 PUSH1 0x5 PUSH1 0x0 CALLER PUSH20 0xFFFFFFFFFFFFFFFFFFFFFFFFFFFFFFFFFFFFFFFF AND PUSH20 0xFFFFFFFFFFFFFFFFFFFFFFFFFFFFFFFFFFFFFFFF AND DUP2 MSTORE PUSH1 0x20 ADD SWAP1 DUP2 MSTORE PUSH1 0x20 ADD PUSH1 0x0 KECCAK256 PUSH1 0x0 SWAP1 SLOAD SWAP1 PUSH2 0x100 EXP SWAP1 DIV PUSH4 0xFFFFFFFF AND PUSH4 0xFFFFFFFF AND GT PUSH2 0x755 JUMPI PUSH1 0x40 MLOAD PUSH32 0x8C379A000000000000000000000000000000000000000000000000000000000 DUP2 MSTORE PUSH1 0x4 ADD PUSH2 0x74C SWAP1 PUSH2 0x12B9 JUMP JUMPDEST PUSH1 0x40 MLOAD DUP1 SWAP2 SUB SWAP1 REVERT JUMPDEST PUSH1 0x4 PUSH1 0x0 SWAP1 SLOAD SWAP1 PUSH2 0x100 EXP SWAP1 DIV PUSH4 0xFFFFFFFF AND PUSH4 0xFFFFFFFF AND TIMESTAMP GT PUSH2 0x7AF JUMPI PUSH1 0x40 MLOAD PUSH32 0x8C379A000000000000000000000000000000000000000000000000000000000 DUP2 MSTORE PUSH1 0x4 ADD PUSH2 0x7A6 SWAP1 PUSH2 0x1299 JUMP JUMPDEST PUSH1 0x40 MLOAD DUP1 SWAP2 SUB SWAP1 REVERT JUMPDEST PUSH1 0x3 SLOAD PUSH1 0x6 SLOAD LT PUSH2 0x7F5 JUMPI PUSH1 0x40 MLOAD PUSH32 0x8C379A000000000000000000000000000000000000000000000000000000000 DUP2 MSTORE PUSH1 0x4 ADD PUSH2 0x7EC SWAP1 PUSH2 0x1259 JUMP JUMPDEST PUSH1 0x40 MLOAD DUP1 SWAP2 SUB SWAP1 REVERT JUMPDEST PUSH1 0x0 PUSH1 0x2 SLOAD PUSH1 0x5 PUSH1 0x0 CALLER PUSH20 0xFFFFFFFFFFFFFFFFFFFFFFFFFFFFFFFFFFFFFFFF AND PUSH20 0xFFFFFFFFFFFFFFFFFFFFFFFFFFFFFFFFFFFFFFFF AND DUP2 MSTORE PUSH1 0x20 ADD SWAP1 DUP2 MSTORE PUSH1 0x20 ADD PUSH1 0x0 KECCAK256 PUSH1 0x0 SWAP1 SLOAD SWAP1 PUSH2 0x100 EXP SWAP1 DIV PUSH4 0xFFFFFFFF AND PUSH4 0xFFFFFFFF AND PUSH2 0x85A SWAP2 SWAP1 PUSH2 0x13B4 JUMP JUMPDEST SWAP1 POP CALLER PUSH20 0xFFFFFFFFFFFFFFFFFFFFFFFFFFFFFFFFFFFFFFFF AND PUSH2 0x8FC DUP3 SWAP1 DUP2 ISZERO MUL SWAP1 PUSH1 0x40 MLOAD PUSH1 0x0 PUSH1 0x40 MLOAD DUP1 DUP4 SUB DUP2 DUP6 DUP9 DUP9 CALL SWAP4 POP POP POP POP ISZERO DUP1 ISZERO PUSH2 0x8A2 JUMPI RETURNDATASIZE PUSH1 0x0 DUP1 RETURNDATACOPY RETURNDATASIZE PUSH1 0x0 REVERT JUMPDEST POP POP JUMP JUMPDEST PUSH2 0x8AE PUSH2 0xD55 JUMP JUMPDEST PUSH1 0x0 DUP1 PUSH1 0x0 DUP1 PUSH1 0x0 DUP1 PUSH1 0x0 PUSH2 0x8C1 PUSH2 0x4EA JUMP JUMPDEST SWAP7 POP SWAP7 POP SWAP7 POP SWAP7 POP SWAP7 POP SWAP7 POP SWAP7 POP PUSH1 0x0 PUSH1 0x40 MLOAD DUP1 PUSH2 0x140 ADD PUSH1 0x40 MSTORE DUP1 DUP10 PUSH20 0xFFFFFFFFFFFFFFFFFFFFFFFFFFFFFFFFFFFFFFFF AND DUP2 MSTORE PUSH1 0x20 ADD DUP9 PUSH20 0xFFFFFFFFFFFFFFFFFFFFFFFFFFFFFFFFFFFFFFFF AND DUP2 MSTORE PUSH1 0x20 ADD DUP8 DUP2 MSTORE PUSH1 0x20 ADD DUP7 DUP2 MSTORE PUSH1 0x20 ADD DUP6 PUSH4 0xFFFFFFFF AND DUP2 MSTORE PUSH1 0x20 ADD DUP5 DUP2 MSTORE PUSH1 0x20 ADD DUP4 ISZERO ISZERO DUP2 MSTORE PUSH1 0x20 ADD PUSH1 0x0 DUP1 SHL DUP2 MSTORE PUSH1 0x20 ADD PUSH1 0x8 DUP1 SLOAD PUSH2 0x951 SWAP1 PUSH2 0x14A3 JUMP JUMPDEST DUP1 PUSH1 0x1F ADD PUSH1 0x20 DUP1 SWAP2 DIV MUL PUSH1 0x20 ADD PUSH1 0x40 MLOAD SWAP1 DUP2 ADD PUSH1 0x40 MSTORE DUP1 SWAP3 SWAP2 SWAP1 DUP2 DUP2 MSTORE PUSH1 0x20 ADD DUP3 DUP1 SLOAD PUSH2 0x97D SWAP1 PUSH2 0x14A3 JUMP JUMPDEST DUP1 ISZERO PUSH2 0x9CA JUMPI DUP1 PUSH1 0x1F LT PUSH2 0x99F JUMPI PUSH2 0x100 DUP1 DUP4 SLOAD DIV MUL DUP4 MSTORE SWAP2 PUSH1 0x20 ADD SWAP2 PUSH2 0x9CA JUMP JUMPDEST DUP3 ADD SWAP2 SWAP1 PUSH1 0x0 MSTORE PUSH1 0x20 PUSH1 0x0 KECCAK256 SWAP1 JUMPDEST DUP2 SLOAD DUP2 MSTORE SWAP1 PUSH1 0x1 ADD SWAP1 PUSH1 0x20 ADD DUP1 DUP4 GT PUSH2 0x9AD JUMPI DUP3 SWAP1 SUB PUSH1 0x1F AND DUP3 ADD SWAP2 JUMPDEST POP POP POP POP POP DUP2 MSTORE PUSH1 0x20 ADD PUSH1 0x9 DUP1 SLOAD PUSH2 0x9E1 SWAP1 PUSH2 0x14A3 JUMP JUMPDEST DUP1 PUSH1 0x1F ADD PUSH1 0x20 DUP1 SWAP2 DIV MUL PUSH1 0x20 ADD PUSH1 0x40 MLOAD SWAP1 DUP2 ADD PUSH1 0x40 MSTORE DUP1 SWAP3 SWAP2 SWAP1 DUP2 DUP2 MSTORE PUSH1 0x20 ADD DUP3 DUP1 SLOAD PUSH2 0xA0D SWAP1 PUSH2 0x14A3 JUMP JUMPDEST DUP1 ISZERO PUSH2 0xA5A JUMPI DUP1 PUSH1 0x1F LT PUSH2 0xA2F JUMPI PUSH2 0x100 DUP1 DUP4 SLOAD DIV MUL DUP4 MSTORE SWAP2 PUSH1 0x20 ADD SWAP2 PUSH2 0xA5A JUMP JUMPDEST DUP3 ADD SWAP2 SWAP1 PUSH1 0x0 MSTORE PUSH1 0x20 PUSH1 0x0 KECCAK256 SWAP1 JUMPDEST DUP2 SLOAD DUP2 MSTORE SWAP1 PUSH1 0x1 ADD SWAP1 PUSH1 0x20 ADD DUP1 DUP4 GT PUSH2 0xA3D JUMPI DUP3 SWAP1 SUB PUSH1 0x1F AND DUP3 ADD SWAP2 JUMPDEST POP POP POP POP POP DUP2 MSTORE POP SWAP1 POP DUP1 SWAP9 POP POP POP POP POP POP POP POP POP SWAP1 JUMP JUMPDEST PUSH1 0x4 PUSH1 0x0 SWAP1 SLOAD SWAP1 PUSH2 0x100 EXP SWAP1 DIV PUSH4 0xFFFFFFFF AND DUP2 JUMP JUMPDEST PUSH1 0x3 SLOAD PUSH1 0x6 SLOAD LT ISZERO PUSH2 0xACF JUMPI PUSH1 0x40 MLOAD PUSH32 0x8C379A000000000000000000000000000000000000000000000000000000000 DUP2 MSTORE PUSH1 0x4 ADD PUSH2 0xAC6 SWAP1 PUSH2 0x11F9 JUMP JUMPDEST PUSH1 0x40 MLOAD DUP1 SWAP2 SUB SWAP1 REVERT JUMPDEST CALLER PUSH20 0xFFFFFFFFFFFFFFFFFFFFFFFFFFFFFFFFFFFFFFFF AND PUSH1 0x0 DUP1 SLOAD SWAP1 PUSH2 0x100 EXP SWAP1 DIV PUSH20 0xFFFFFFFFFFFFFFFFFFFFFFFFFFFFFFFFFFFFFFFF AND PUSH20 0xFFFFFFFFFFFFFFFFFFFFFFFFFFFFFFFFFFFFFFFF AND EQ PUSH2 0xB5D JUMPI PUSH1 0x40 MLOAD PUSH32 0x8C379A000000000000000000000000000000000000000000000000000000000 DUP2 MSTORE PUSH1 0x4 ADD PUSH2 0xB54 SWAP1 PUSH2 0x1239 JUMP JUMPDEST PUSH1 0x40 MLOAD DUP1 SWAP2 SUB SWAP1 REVERT JUMPDEST PUSH2 0xB65 PUSH2 0xCCF JUMP JUMPDEST JUMP JUMPDEST PUSH1 0x7 PUSH1 0x0 SWAP1 SLOAD SWAP1 PUSH2 0x100 EXP SWAP1 DIV PUSH1 0xFF AND DUP2 JUMP JUMPDEST PUSH1 0x2 SLOAD DUP2 JUMP JUMPDEST PUSH1 0x6 SLOAD DUP2 JUMP JUMPDEST PUSH1 0x3 SLOAD DUP2 JUMP JUMPDEST PUSH1 0x0 PUSH1 0x5 PUSH1 0x0 CALLER PUSH20 0xFFFFFFFFFFFFFFFFFFFFFFFFFFFFFFFFFFFFFFFF AND PUSH20 0xFFFFFFFFFFFFFFFFFFFFFFFFFFFFFFFFFFFFFFFF AND DUP2 MSTORE PUSH1 0x20 ADD SWAP1 DUP2 MSTORE PUSH1 0x20 ADD PUSH1 0x0 KECCAK256 PUSH1 0x0 SWAP1 SLOAD SWAP1 PUSH2 0x100 EXP SWAP1 DIV PUSH4 0xFFFFFFFF AND PUSH4 0xFFFFFFFF AND GT PUSH2 0xC24 JUMPI PUSH1 0x40 MLOAD PUSH32 0x8C379A000000000000000000000000000000000000000000000000000000000 DUP2 MSTORE PUSH1 0x4 ADD PUSH2 0xC1B SWAP1 PUSH2 0x12B9 JUMP JUMPDEST PUSH1 0x40 MLOAD DUP1 SWAP2 SUB SWAP1 REVERT JUMPDEST PUSH1 0x4 PUSH1 0x0 SWAP1 SLOAD SWAP1 PUSH2 0x100 EXP SWAP1 DIV PUSH4 0xFFFFFFFF AND PUSH4 0xFFFFFFFF AND TIMESTAMP GT PUSH2 0xC7E JUMPI PUSH1 0x40 MLOAD PUSH32 0x8C379A000000000000000000000000000000000000000000000000000000000 DUP2 MSTORE PUSH1 0x4 ADD PUSH2 0xC75 SWAP1 PUSH2 0x1299 JUMP JUMPDEST PUSH1 0x40 MLOAD DUP1 SWAP2 SUB SWAP1 REVERT JUMPDEST PUSH1 0x3 SLOAD PUSH1 0x6 SLOAD LT ISZERO PUSH2 0xCC5 JUMPI PUSH1 0x40 MLOAD PUSH32 0x8C379A000000000000000000000000000000000000000000000000000000000 DUP2 MSTORE PUSH1 0x4 ADD PUSH2 0xCBC SWAP1 PUSH2 0x11F9 JUMP JUMPDEST PUSH1 0x40 MLOAD DUP1 SWAP2 SUB SWAP1 REVERT JUMPDEST PUSH2 0xCCD PUSH2 0xCCF JUMP JUMPDEST JUMP JUMPDEST PUSH1 0x1 PUSH1 0x0 SWAP1 SLOAD SWAP1 PUSH2 0x100 EXP SWAP1 DIV PUSH20 0xFFFFFFFFFFFFFFFFFFFFFFFFFFFFFFFFFFFFFFFF AND PUSH20 0xFFFFFFFFFFFFFFFFFFFFFFFFFFFFFFFFFFFFFFFF AND PUSH2 0x8FC SELFBALANCE SWAP1 DUP2 ISZERO MUL SWAP1 PUSH1 0x40 MLOAD PUSH1 0x0 PUSH1 0x40 MLOAD DUP1 DUP4 SUB DUP2 DUP6 DUP9 DUP9 CALL SWAP4 POP POP POP POP ISZERO DUP1 ISZERO PUSH2 0xD37 JUMPI RETURNDATASIZE PUSH1 0x0 DUP1 RETURNDATACOPY RETURNDATASIZE PUSH1 0x0 REVERT JUMPDEST POP PUSH1 0x1 PUSH1 0x7 PUSH1 0x0 PUSH2 0x100 EXP DUP2 SLOAD DUP2 PUSH1 0xFF MUL NOT AND SWAP1 DUP4 ISZERO ISZERO MUL OR SWAP1 SSTORE POP JUMP JUMPDEST PUSH1 0x40 MLOAD DUP1 PUSH2 0x140 ADD PUSH1 0x40 MSTORE DUP1 PUSH1 0x0 PUSH20 0xFFFFFFFFFFFFFFFFFFFFFFFFFFFFFFFFFFFFFFFF AND DUP2 MSTORE PUSH1 0x20 ADD PUSH1 0x0 PUSH20 0xFFFFFFFFFFFFFFFFFFFFFFFFFFFFFFFFFFFFFFFF AND DUP2 MSTORE PUSH1 0x20 ADD PUSH1 0x0 DUP2 MSTORE PUSH1 0x20 ADD PUSH1 0x0 DUP2 MSTORE PUSH1 0x20 ADD PUSH1 0x0 PUSH4 0xFFFFFFFF AND DUP2 MSTORE PUSH1 0x20 ADD PUSH1 0x0 DUP2 MSTORE PUSH1 0x20 ADD PUSH1 0x0 ISZERO ISZERO DUP2 MSTORE PUSH1 0x20 ADD PUSH1 0x0 DUP1 NOT AND DUP2 MSTORE PUSH1 0x20 ADD PUSH1 0x60 DUP2 MSTORE PUSH1 0x20 ADD PUSH1 0x60 DUP2 MSTORE POP SWAP1 JUMP JUMPDEST PUSH1 0x0 DUP2 CALLDATALOAD SWAP1 POP PUSH2 0xDEE DUP2 PUSH2 0x16B4 JUMP JUMPDEST SWAP3 SWAP2 POP POP JUMP JUMPDEST PUSH1 0x0 DUP2 CALLDATALOAD SWAP1 POP PUSH2 0xE03 DUP2 PUSH2 0x16CB JUMP JUMPDEST SWAP3 SWAP2 POP POP JUMP JUMPDEST PUSH1 0x0 PUSH1 0x20 DUP3 DUP5 SUB SLT ISZERO PUSH2 0xE1F JUMPI PUSH2 0xE1E PUSH2 0x1533 JUMP JUMPDEST JUMPDEST PUSH1 0x0 PUSH2 0xE2D DUP5 DUP3 DUP6 ADD PUSH2 0xDDF JUMP JUMPDEST SWAP2 POP POP SWAP3 SWAP2 POP POP JUMP JUMPDEST PUSH1 0x0 PUSH1 0x20 DUP3 DUP5 SUB SLT ISZERO PUSH2 0xE4C JUMPI PUSH2 0xE4B PUSH2 0x1533 JUMP JUMPDEST JUMPDEST PUSH1 0x0 PUSH2 0xE5A DUP5 DUP3 DUP6 ADD PUSH2 0xDF4 JUMP JUMPDEST SWAP2 POP POP SWAP3 SWAP2 POP POP JUMP JUMPDEST PUSH2 0xE6C DUP2 PUSH2 0x140E JUMP JUMPDEST DUP3 MSTORE POP POP JUMP JUMPDEST PUSH2 0xE7B DUP2 PUSH2 0x140E JUMP JUMPDEST DUP3 MSTORE POP POP JUMP JUMPDEST PUSH2 0xE8A DUP2 PUSH2 0x1420 JUMP JUMPDEST DUP3 MSTORE POP POP JUMP JUMPDEST PUSH2 0xE99 DUP2 PUSH2 0x1420 JUMP JUMPDEST DUP3 MSTORE POP POP JUMP JUMPDEST PUSH2 0xEA8 DUP2 PUSH2 0x142C JUMP JUMPDEST DUP3 MSTORE POP POP JUMP JUMPDEST PUSH1 0x0 PUSH2 0xEB9 DUP3 PUSH2 0x1331 JUMP JUMPDEST PUSH2 0xEC3 DUP2 DUP6 PUSH2 0x133C JUMP JUMPDEST SWAP4 POP PUSH2 0xED3 DUP2 DUP6 PUSH1 0x20 DUP7 ADD PUSH2 0x1470 JUMP JUMPDEST PUSH2 0xEDC DUP2 PUSH2 0x1538 JUMP JUMPDEST DUP5 ADD SWAP2 POP POP SWAP3 SWAP2 POP POP JUMP JUMPDEST PUSH1 0x0 PUSH2 0xEF2 DUP3 PUSH2 0x1331 JUMP JUMPDEST PUSH2 0xEFC DUP2 DUP6 PUSH2 0x134D JUMP JUMPDEST SWAP4 POP PUSH2 0xF0C DUP2 DUP6 PUSH1 0x20 DUP7 ADD PUSH2 0x1470 JUMP JUMPDEST PUSH2 0xF15 DUP2 PUSH2 0x1538 JUMP JUMPDEST DUP5 ADD SWAP2 POP POP SWAP3 SWAP2 POP POP JUMP JUMPDEST PUSH1 0x0 PUSH2 0xF2D PUSH1 0x10 DUP4 PUSH2 0x134D JUMP JUMPDEST SWAP2 POP PUSH2 0xF38 DUP3 PUSH2 0x1549 JUMP JUMPDEST PUSH1 0x20 DUP3 ADD SWAP1 POP SWAP2 SWAP1 POP JUMP JUMPDEST PUSH1 0x0 PUSH2 0xF50 PUSH1 0x11 DUP4 PUSH2 0x134D JUMP JUMPDEST SWAP2 POP PUSH2 0xF5B DUP3 PUSH2 0x1572 JUMP JUMPDEST PUSH1 0x20 DUP3 ADD SWAP1 POP SWAP2 SWAP1 POP JUMP JUMPDEST PUSH1 0x0 PUSH2 0xF73 PUSH1 0x15 DUP4 PUSH2 0x134D JUMP JUMPDEST SWAP2 POP PUSH2 0xF7E DUP3 PUSH2 0x159B JUMP JUMPDEST PUSH1 0x20 DUP3 ADD SWAP1 POP SWAP2 SWAP1 POP JUMP JUMPDEST PUSH1 0x0 PUSH2 0xF96 PUSH1 0x37 DUP4 PUSH2 0x134D JUMP JUMPDEST SWAP2 POP PUSH2 0xFA1 DUP3 PUSH2 0x15C4 JUMP JUMPDEST PUSH1 0x40 DUP3 ADD SWAP1 POP SWAP2 SWAP1 POP JUMP JUMPDEST PUSH1 0x0 PUSH2 0xFB9 PUSH1 0x16 DUP4 PUSH2 0x134D JUMP JUMPDEST SWAP2 POP PUSH2 0xFC4 DUP3 PUSH2 0x1613 JUMP JUMPDEST PUSH1 0x20 DUP3 ADD SWAP1 POP SWAP2 SWAP1 POP JUMP JUMPDEST PUSH1 0x0 PUSH2 0xFDC PUSH1 0x1D DUP4 PUSH2 0x134D JUMP JUMPDEST SWAP2 POP PUSH2 0xFE7 DUP3 PUSH2 0x163C JUMP JUMPDEST PUSH1 0x20 DUP3 ADD SWAP1 POP SWAP2 SWAP1 POP JUMP JUMPDEST PUSH1 0x0 PUSH2 0xFFF PUSH1 0x28 DUP4 PUSH2 0x134D JUMP JUMPDEST SWAP2 POP PUSH2 0x100A DUP3 PUSH2 0x1665 JUMP JUMPDEST PUSH1 0x40 DUP3 ADD SWAP1 POP SWAP2 SWAP1 POP JUMP JUMPDEST PUSH1 0x0 PUSH2 0x140 DUP4 ADD PUSH1 0x0 DUP4 ADD MLOAD PUSH2 0x102E PUSH1 0x0 DUP7 ADD DUP3 PUSH2 0xE63 JUMP JUMPDEST POP PUSH1 0x20 DUP4 ADD MLOAD PUSH2 0x1041 PUSH1 0x20 DUP7 ADD DUP3 PUSH2 0xE63 JUMP JUMPDEST POP PUSH1 0x40 DUP4 ADD MLOAD PUSH2 0x1054 PUSH1 0x40 DUP7 ADD DUP3 PUSH2 0x10F6 JUMP JUMPDEST POP PUSH1 0x60 DUP4 ADD MLOAD PUSH2 0x1067 PUSH1 0x60 DUP7 ADD DUP3 PUSH2 0x10F6 JUMP JUMPDEST POP PUSH1 0x80 DUP4 ADD MLOAD PUSH2 0x107A PUSH1 0x80 DUP7 ADD DUP3 PUSH2 0x1114 JUMP JUMPDEST POP PUSH1 0xA0 DUP4 ADD MLOAD PUSH2 0x108D PUSH1 0xA0 DUP7 ADD DUP3 PUSH2 0x10F6 JUMP JUMPDEST POP PUSH1 0xC0 DUP4 ADD MLOAD PUSH2 0x10A0 PUSH1 0xC0 DUP7 ADD DUP3 PUSH2 0xE81 JUMP JUMPDEST POP PUSH1 0xE0 DUP4 ADD MLOAD PUSH2 0x10B3 PUSH1 0xE0 DUP7 ADD DUP3 PUSH2 0xE9F JUMP JUMPDEST POP PUSH2 0x100 DUP4 ADD MLOAD DUP5 DUP3 SUB PUSH2 0x100 DUP7 ADD MSTORE PUSH2 0x10CD DUP3 DUP3 PUSH2 0xEAE JUMP JUMPDEST SWAP2 POP POP PUSH2 0x120 DUP4 ADD MLOAD DUP5 DUP3 SUB PUSH2 0x120 DUP7 ADD MSTORE PUSH2 0x10E9 DUP3 DUP3 PUSH2 0xEAE JUMP JUMPDEST SWAP2 POP POP DUP1 SWAP2 POP POP SWAP3 SWAP2 POP POP JUMP JUMPDEST PUSH2 0x10FF DUP2 PUSH2 0x1456 JUMP JUMPDEST DUP3 MSTORE POP POP JUMP JUMPDEST PUSH2 0x110E DUP2 PUSH2 0x1456 JUMP JUMPDEST DUP3 MSTORE POP POP JUMP JUMPDEST PUSH2 0x111D DUP2 PUSH2 0x1460 JUMP JUMPDEST DUP3 MSTORE POP POP JUMP JUMPDEST PUSH2 0x112C DUP2 PUSH2 0x1460 JUMP JUMPDEST DUP3 MSTORE POP POP JUMP JUMPDEST PUSH1 0x0 PUSH1 0x20 DUP3 ADD SWAP1 POP PUSH2 0x1147 PUSH1 0x0 DUP4 ADD DUP5 PUSH2 0xE72 JUMP JUMPDEST SWAP3 SWAP2 POP POP JUMP JUMPDEST PUSH1 0x0 PUSH1 0xE0 DUP3 ADD SWAP1 POP PUSH2 0x1162 PUSH1 0x0 DUP4 ADD DUP11 PUSH2 0xE72 JUMP JUMPDEST PUSH2 0x116F PUSH1 0x20 DUP4 ADD DUP10 PUSH2 0xE72 JUMP JUMPDEST PUSH2 0x117C PUSH1 0x40 DUP4 ADD DUP9 PUSH2 0x1105 JUMP JUMPDEST PUSH2 0x1189 PUSH1 0x60 DUP4 ADD DUP8 PUSH2 0x1105 JUMP JUMPDEST PUSH2 0x1196 PUSH1 0x80 DUP4 ADD DUP7 PUSH2 0x1123 JUMP JUMPDEST PUSH2 0x11A3 PUSH1 0xA0 DUP4 ADD DUP6 PUSH2 0x1105 JUMP JUMPDEST PUSH2 0x11B0 PUSH1 0xC0 DUP4 ADD DUP5 PUSH2 0xE90 JUMP JUMPDEST SWAP9 SWAP8 POP POP POP POP POP POP POP POP JUMP JUMPDEST PUSH1 0x0 PUSH1 0x20 DUP3 ADD SWAP1 POP PUSH2 0x11D1 PUSH1 0x0 DUP4 ADD DUP5 PUSH2 0xE90 JUMP JUMPDEST SWAP3 SWAP2 POP POP JUMP JUMPDEST PUSH1 0x0 PUSH1 0x20 DUP3 ADD SWAP1 POP DUP2 DUP2 SUB PUSH1 0x0 DUP4 ADD MSTORE PUSH2 0x11F1 DUP2 DUP5 PUSH2 0xEE7 JUMP JUMPDEST SWAP1 POP SWAP3 SWAP2 POP POP JUMP JUMPDEST PUSH1 0x0 PUSH1 0x20 DUP3 ADD SWAP1 POP DUP2 DUP2 SUB PUSH1 0x0 DUP4 ADD MSTORE PUSH2 0x1212 DUP2 PUSH2 0xF20 JUMP JUMPDEST SWAP1 POP SWAP2 SWAP1 POP JUMP JUMPDEST PUSH1 0x0 PUSH1 0x20 DUP3 ADD SWAP1 POP DUP2 DUP2 SUB PUSH1 0x0 DUP4 ADD MSTORE PUSH2 0x1232 DUP2 PUSH2 0xF43 JUMP JUMPDEST SWAP1 POP SWAP2 SWAP1 POP JUMP JUMPDEST PUSH1 0x0 PUSH1 0x20 DUP3 ADD SWAP1 POP DUP2 DUP2 SUB PUSH1 0x0 DUP4 ADD MSTORE PUSH2 0x1252 DUP2 PUSH2 0xF66 JUMP JUMPDEST SWAP1 POP SWAP2 SWAP1 POP JUMP JUMPDEST PUSH1 0x0 PUSH1 0x20 DUP3 ADD SWAP1 POP DUP2 DUP2 SUB PUSH1 0x0 DUP4 ADD MSTORE PUSH2 0x1272 DUP2 PUSH2 0xF89 JUMP JUMPDEST SWAP1 POP SWAP2 SWAP1 POP JUMP JUMPDEST PUSH1 0x0 PUSH1 0x20 DUP3 ADD SWAP1 POP DUP2 DUP2 SUB PUSH1 0x0 DUP4 ADD MSTORE PUSH2 0x1292 DUP2 PUSH2 0xFAC JUMP JUMPDEST SWAP1 POP SWAP2 SWAP1 POP JUMP JUMPDEST PUSH1 0x0 PUSH1 0x20 DUP3 ADD SWAP1 POP DUP2 DUP2 SUB PUSH1 0x0 DUP4 ADD MSTORE PUSH2 0x12B2 DUP2 PUSH2 0xFCF JUMP JUMPDEST SWAP1 POP SWAP2 SWAP1 POP JUMP JUMPDEST PUSH1 0x0 PUSH1 0x20 DUP3 ADD SWAP1 POP DUP2 DUP2 SUB PUSH1 0x0 DUP4 ADD MSTORE PUSH2 0x12D2 DUP2 PUSH2 0xFF2 JUMP JUMPDEST SWAP1 POP SWAP2 SWAP1 POP JUMP JUMPDEST PUSH1 0x0 PUSH1 0x20 DUP3 ADD SWAP1 POP DUP2 DUP2 SUB PUSH1 0x0 DUP4 ADD MSTORE PUSH2 0x12F3 DUP2 DUP5 PUSH2 0x1015 JUMP JUMPDEST SWAP1 POP SWAP3 SWAP2 POP POP JUMP JUMPDEST PUSH1 0x0 PUSH1 0x20 DUP3 ADD SWAP1 POP PUSH2 0x1310 PUSH1 0x0 DUP4 ADD DUP5 PUSH2 0x1105 JUMP JUMPDEST SWAP3 SWAP2 POP POP JUMP JUMPDEST PUSH1 0x0 PUSH1 0x20 DUP3 ADD SWAP1 POP PUSH2 0x132B PUSH1 0x0 DUP4 ADD DUP5 PUSH2 0x1123 JUMP JUMPDEST SWAP3 SWAP2 POP POP JUMP JUMPDEST PUSH1 0x0 DUP2 MLOAD SWAP1 POP SWAP2 SWAP1 POP JUMP JUMPDEST PUSH1 0x0 DUP3 DUP3 MSTORE PUSH1 0x20 DUP3 ADD SWAP1 POP SWAP3 SWAP2 POP POP JUMP JUMPDEST PUSH1 0x0 DUP3 DUP3 MSTORE PUSH1 0x20 DUP3 ADD SWAP1 POP SWAP3 SWAP2 POP POP JUMP JUMPDEST PUSH1 0x0 PUSH2 0x1369 DUP3 PUSH2 0x1456 JUMP JUMPDEST SWAP2 POP PUSH2 0x1374 DUP4 PUSH2 0x1456 JUMP JUMPDEST SWAP3 POP DUP3 PUSH32 0xFFFFFFFFFFFFFFFFFFFFFFFFFFFFFFFFFFFFFFFFFFFFFFFFFFFFFFFFFFFFFFFF SUB DUP3 GT ISZERO PUSH2 0x13A9 JUMPI PUSH2 0x13A8 PUSH2 0x14D5 JUMP JUMPDEST JUMPDEST DUP3 DUP3 ADD SWAP1 POP SWAP3 SWAP2 POP POP JUMP JUMPDEST PUSH1 0x0 PUSH2 0x13BF DUP3 PUSH2 0x1456 JUMP JUMPDEST SWAP2 POP PUSH2 0x13CA DUP4 PUSH2 0x1456 JUMP JUMPDEST SWAP3 POP DUP2 PUSH32 0xFFFFFFFFFFFFFFFFFFFFFFFFFFFFFFFFFFFFFFFFFFFFFFFFFFFFFFFFFFFFFFFF DIV DUP4 GT DUP3 ISZERO ISZERO AND ISZERO PUSH2 0x1403 JUMPI PUSH2 0x1402 PUSH2 0x14D5 JUMP JUMPDEST JUMPDEST DUP3 DUP3 MUL SWAP1 POP SWAP3 SWAP2 POP POP JUMP JUMPDEST PUSH1 0x0 PUSH2 0x1419 DUP3 PUSH2 0x1436 JUMP JUMPDEST SWAP1 POP SWAP2 SWAP1 POP JUMP JUMPDEST PUSH1 0x0 DUP2 ISZERO ISZERO SWAP1 POP SWAP2 SWAP1 POP JUMP JUMPDEST PUSH1 0x0 DUP2 SWAP1 POP SWAP2 SWAP1 POP JUMP JUMPDEST PUSH1 0x0 PUSH20 0xFFFFFFFFFFFFFFFFFFFFFFFFFFFFFFFFFFFFFFFF DUP3 AND SWAP1 POP SWAP2 SWAP1 POP JUMP JUMPDEST PUSH1 0x0 DUP2 SWAP1 POP SWAP2 SWAP1 POP JUMP JUMPDEST PUSH1 0x0 PUSH4 0xFFFFFFFF DUP3 AND SWAP1 POP SWAP2 SWAP1 POP JUMP JUMPDEST PUSH1 0x0 JUMPDEST DUP4 DUP2 LT ISZERO PUSH2 0x148E JUMPI DUP1 DUP3 ADD MLOAD DUP2 DUP5 ADD MSTORE PUSH1 0x20 DUP2 ADD SWAP1 POP PUSH2 0x1473 JUMP JUMPDEST DUP4 DUP2 GT ISZERO PUSH2 0x149D JUMPI PUSH1 0x0 DUP5 DUP5 ADD MSTORE JUMPDEST POP POP POP POP JUMP JUMPDEST PUSH1 0x0 PUSH1 0x2 DUP3 DIV SWAP1 POP PUSH1 0x1 DUP3 AND DUP1 PUSH2 0x14BB JUMPI PUSH1 0x7F DUP3 AND SWAP2 POP JUMPDEST PUSH1 0x20 DUP3 LT DUP2 EQ ISZERO PUSH2 0x14CF JUMPI PUSH2 0x14CE PUSH2 0x1504 JUMP JUMPDEST JUMPDEST POP SWAP2 SWAP1 POP JUMP JUMPDEST PUSH32 0x4E487B7100000000000000000000000000000000000000000000000000000000 PUSH1 0x0 MSTORE PUSH1 0x11 PUSH1 0x4 MSTORE PUSH1 0x24 PUSH1 0x0 REVERT JUMPDEST PUSH32 0x4E487B7100000000000000000000000000000000000000000000000000000000 PUSH1 0x0 MSTORE PUSH1 0x22 PUSH1 0x4 MSTORE PUSH1 0x24 PUSH1 0x0 REVERT JUMPDEST PUSH1 0x0 DUP1 REVERT JUMPDEST PUSH1 0x0 PUSH1 0x1F NOT PUSH1 0x1F DUP4 ADD AND SWAP1 POP SWAP2 SWAP1 POP JUMP JUMPDEST PUSH32 0x4E6F7420656E6F756768206D6F6E657900000000000000000000000000000000 PUSH1 0x0 DUP3 ADD MSTORE POP JUMP JUMPDEST PUSH32 0x546F6F206C697474656C206D6F6E657921000000000000000000000000000000 PUSH1 0x0 DUP3 ADD MSTORE POP JUMP JUMPDEST PUSH32 0x596F7520617265206E6F742061206D616E616765720000000000000000000000 PUSH1 0x0 DUP3 ADD MSTORE POP JUMP JUMPDEST PUSH32 0x5468697320707572636861736520776173207375636365737366756C2C20796F PUSH1 0x0 DUP3 ADD MSTORE PUSH32 0x752063616E6E6F74206D616B65206120726566756E6421000000000000000000 PUSH1 0x20 DUP3 ADD MSTORE POP JUMP JUMPDEST PUSH32 0x54686973207075726368617365206973206F7665722100000000000000000000 PUSH1 0x0 DUP3 ADD MSTORE POP JUMP JUMPDEST PUSH32 0x46756E6472616973696E672074696D65206973206E6F74206F76657221000000 PUSH1 0x0 DUP3 ADD MSTORE POP JUMP JUMPDEST PUSH32 0x596F7520617265206E6F74206120637573746F6D657220696E20746869732063 PUSH1 0x0 DUP3 ADD MSTORE PUSH32 0x6F6E747261637421000000000000000000000000000000000000000000000000 PUSH1 0x20 DUP3 ADD MSTORE POP JUMP JUMPDEST PUSH2 0x16BD DUP2 PUSH2 0x140E JUMP JUMPDEST DUP2 EQ PUSH2 0x16C8 JUMPI PUSH1 0x0 DUP1 REVERT JUMPDEST POP JUMP JUMPDEST PUSH2 0x16D4 DUP2 PUSH2 0x1460 JUMP JUMPDEST DUP2 EQ PUSH2 0x16DF JUMPI PUSH1 0x0 DUP1 REVERT JUMPDEST POP JUMP INVALID LOG2 PUSH5 0x6970667358 0x22 SLT KECCAK256 0x2B SMOD PUSH5 0x37ED0216E1 ADD CHAINID 0xAA DUP16 DUP15 SWAP3 DUP3 DUP15 DUP13 DUP14 0xD1 RETURN 0xB5 EXTCODESIZE PUSH32 0x65E3C2D098BD7336DD64736F6C63430008070033A2646970667358221220B8AC 0xDA DUP5 0xE CALLER DUP11 PUSH29 0x48D272BEC249248A76B65A00E85552B95E063B59F6D890DD64736F6C63 NUMBER STOP ADDMOD SMOD STOP CALLER "
		},
		"gasEstimates": {
			"creation": {
				"codeDepositCost": "3214800",
				"executionCost": "3563",
				"totalCost": "3218363"
			},
			"external": {
				"createHashPurchase(address,uint256,uint256,uint256,bytes32)": "infinite",
				"createStoragePurchase(address,uint256,uint256,uint256,string,string)": "infinite",
				"deployedPurchases(uint256)": "4978",
				"getDeployedPurchases()": "infinite"
			}
		},
		"methodIdentifiers": {
			"createHashPurchase(address,uint256,uint256,uint256,bytes32)": "1d7fb225",
			"createStoragePurchase(address,uint256,uint256,uint256,string,string)": "3f285951",
			"deployedPurchases(uint256)": "bca88e2e",
			"getDeployedPurchases()": "d84277ea"
		}
	},
	"abi": [
		{
			"inputs": [
				{
					"internalType": "address",
					"name": "_supplier",
					"type": "address"
				},
				{
					"internalType": "uint256",
					"name": "_priceForOneItem",
					"type": "uint256"
				},
				{
					"internalType": "uint256",
					"name": "_minItems",
					"type": "uint256"
				},
				{
					"internalType": "uint256",
					"name": "_fundraisingTime",
					"type": "uint256"
				},
				{
					"internalType": "bytes32",
					"name": "_hashOfAllPurchaseInfo",
					"type": "bytes32"
				}
			],
			"name": "createHashPurchase",
			"outputs": [],
			"stateMutability": "nonpayable",
			"type": "function"
		},
		{
			"inputs": [
				{
					"internalType": "address",
					"name": "_supplier",
					"type": "address"
				},
				{
					"internalType": "uint256",
					"name": "_priceForOneItem",
					"type": "uint256"
				},
				{
					"internalType": "uint256",
					"name": "_minItems",
					"type": "uint256"
				},
				{
					"internalType": "uint256",
					"name": "_fundraisingTime",
					"type": "uint256"
				},
				{
					"internalType": "string",
					"name": "_title",
					"type": "string"
				},
				{
					"internalType": "string",
					"name": "_desc",
					"type": "string"
				}
			],
			"name": "createStoragePurchase",
			"outputs": [],
			"stateMutability": "nonpayable",
			"type": "function"
		},
		{
			"inputs": [
				{
					"internalType": "uint256",
					"name": "",
					"type": "uint256"
				}
			],
			"name": "deployedPurchases",
			"outputs": [
				{
					"internalType": "address",
					"name": "",
					"type": "address"
				}
			],
			"stateMutability": "view",
			"type": "function"
		},
		{
			"inputs": [],
			"name": "getDeployedPurchases",
			"outputs": [
				{
					"internalType": "address[]",
					"name": "",
					"type": "address[]"
				}
			],
			"stateMutability": "view",
			"type": "function"
		}
	]
}