{
	"data": {
		"bytecode": {
			"linkReferences": {},
			"object": "608060405234801561001057600080fd5b506103f5806100206000396000f3fe608060405234801561001057600080fd5b50600436106100365760003560e01c806309bd5a601461003b5780630c4c428514610059575b600080fd5b610043610075565b60405161005091906102fc565b60405180910390f35b610073600480360381019061006e9190610287565b61007b565b005b60005481565b6100b96040518060400160405280601381526020017f3e3e3e3e3e3e3e3e3e3e3e3e3e3e3e3e3e3e3e00000000000000000000000000815250610117565b6100c46000546101b0565b806000819055506101096040518060400160405280601381526020017f3e3e3e3e3e3e3e3e3e3e3e3e3e3e3e3e3e3e3e00000000000000000000000000815250610117565b6101146000546101b0565b50565b6101ad8160405160240161012b9190610317565b6040516020818303038152906040527f41304fac000000000000000000000000000000000000000000000000000000007bffffffffffffffffffffffffffffffffffffffffffffffffffffffff19166020820180517bffffffffffffffffffffffffffffffffffffffffffffffffffffffff8381831617835250505050610249565b50565b610246816040516024016101c491906102fc565b6040516020818303038152906040527f27b7cf85000000000000000000000000000000000000000000000000000000007bffffffffffffffffffffffffffffffffffffffffffffffffffffffff19166020820180517bffffffffffffffffffffffffffffffffffffffffffffffffffffffff8381831617835250505050610249565b50565b60008151905060006a636f6e736f6c652e6c6f679050602083016000808483855afa5050505050565b600081359050610281816103a8565b92915050565b60006020828403121561029d5761029c610392565b5b60006102ab84828501610272565b91505092915050565b6102bd81610355565b82525050565b60006102ce82610339565b6102d88185610344565b93506102e881856020860161035f565b6102f181610397565b840191505092915050565b600060208201905061031160008301846102b4565b92915050565b6000602082019050818103600083015261033181846102c3565b905092915050565b600081519050919050565b600082825260208201905092915050565b6000819050919050565b60005b8381101561037d578082015181840152602081019050610362565b8381111561038c576000848401525b50505050565b600080fd5b6000601f19601f8301169050919050565b6103b181610355565b81146103bc57600080fd5b5056fea26469706673582212206e910a6186517a26e13dac039c911bc1794aa010599a52959ff748c72600c26f64736f6c63430008070033",
			"opcodes": "PUSH1 0x80 PUSH1 0x40 MSTORE CALLVALUE DUP1 ISZERO PUSH2 0x10 JUMPI PUSH1 0x0 DUP1 REVERT JUMPDEST POP PUSH2 0x3F5 DUP1 PUSH2 0x20 PUSH1 0x0 CODECOPY PUSH1 0x0 RETURN INVALID PUSH1 0x80 PUSH1 0x40 MSTORE CALLVALUE DUP1 ISZERO PUSH2 0x10 JUMPI PUSH1 0x0 DUP1 REVERT JUMPDEST POP PUSH1 0x4 CALLDATASIZE LT PUSH2 0x36 JUMPI PUSH1 0x0 CALLDATALOAD PUSH1 0xE0 SHR DUP1 PUSH4 0x9BD5A60 EQ PUSH2 0x3B JUMPI DUP1 PUSH4 0xC4C4285 EQ PUSH2 0x59 JUMPI JUMPDEST PUSH1 0x0 DUP1 REVERT JUMPDEST PUSH2 0x43 PUSH2 0x75 JUMP JUMPDEST PUSH1 0x40 MLOAD PUSH2 0x50 SWAP2 SWAP1 PUSH2 0x2FC JUMP JUMPDEST PUSH1 0x40 MLOAD DUP1 SWAP2 SUB SWAP1 RETURN JUMPDEST PUSH2 0x73 PUSH1 0x4 DUP1 CALLDATASIZE SUB DUP2 ADD SWAP1 PUSH2 0x6E SWAP2 SWAP1 PUSH2 0x287 JUMP JUMPDEST PUSH2 0x7B JUMP JUMPDEST STOP JUMPDEST PUSH1 0x0 SLOAD DUP2 JUMP JUMPDEST PUSH2 0xB9 PUSH1 0x40 MLOAD DUP1 PUSH1 0x40 ADD PUSH1 0x40 MSTORE DUP1 PUSH1 0x13 DUP2 MSTORE PUSH1 0x20 ADD PUSH32 0x3E3E3E3E3E3E3E3E3E3E3E3E3E3E3E3E3E3E3E00000000000000000000000000 DUP2 MSTORE POP PUSH2 0x117 JUMP JUMPDEST PUSH2 0xC4 PUSH1 0x0 SLOAD PUSH2 0x1B0 JUMP JUMPDEST DUP1 PUSH1 0x0 DUP2 SWAP1 SSTORE POP PUSH2 0x109 PUSH1 0x40 MLOAD DUP1 PUSH1 0x40 ADD PUSH1 0x40 MSTORE DUP1 PUSH1 0x13 DUP2 MSTORE PUSH1 0x20 ADD PUSH32 0x3E3E3E3E3E3E3E3E3E3E3E3E3E3E3E3E3E3E3E00000000000000000000000000 DUP2 MSTORE POP PUSH2 0x117 JUMP JUMPDEST PUSH2 0x114 PUSH1 0x0 SLOAD PUSH2 0x1B0 JUMP JUMPDEST POP JUMP JUMPDEST PUSH2 0x1AD DUP2 PUSH1 0x40 MLOAD PUSH1 0x24 ADD PUSH2 0x12B SWAP2 SWAP1 PUSH2 0x317 JUMP JUMPDEST PUSH1 0x40 MLOAD PUSH1 0x20 DUP2 DUP4 SUB SUB DUP2 MSTORE SWAP1 PUSH1 0x40 MSTORE PUSH32 0x41304FAC00000000000000000000000000000000000000000000000000000000 PUSH28 0xFFFFFFFFFFFFFFFFFFFFFFFFFFFFFFFFFFFFFFFFFFFFFFFFFFFFFFFF NOT AND PUSH1 0x20 DUP3 ADD DUP1 MLOAD PUSH28 0xFFFFFFFFFFFFFFFFFFFFFFFFFFFFFFFFFFFFFFFFFFFFFFFFFFFFFFFF DUP4 DUP2 DUP4 AND OR DUP4 MSTORE POP POP POP POP PUSH2 0x249 JUMP JUMPDEST POP JUMP JUMPDEST PUSH2 0x246 DUP2 PUSH1 0x40 MLOAD PUSH1 0x24 ADD PUSH2 0x1C4 SWAP2 SWAP1 PUSH2 0x2FC JUMP JUMPDEST PUSH1 0x40 MLOAD PUSH1 0x20 DUP2 DUP4 SUB SUB DUP2 MSTORE SWAP1 PUSH1 0x40 MSTORE PUSH32 0x27B7CF8500000000000000000000000000000000000000000000000000000000 PUSH28 0xFFFFFFFFFFFFFFFFFFFFFFFFFFFFFFFFFFFFFFFFFFFFFFFFFFFFFFFF NOT AND PUSH1 0x20 DUP3 ADD DUP1 MLOAD PUSH28 0xFFFFFFFFFFFFFFFFFFFFFFFFFFFFFFFFFFFFFFFFFFFFFFFFFFFFFFFF DUP4 DUP2 DUP4 AND OR DUP4 MSTORE POP POP POP POP PUSH2 0x249 JUMP JUMPDEST POP JUMP JUMPDEST PUSH1 0x0 DUP2 MLOAD SWAP1 POP PUSH1 0x0 PUSH11 0x636F6E736F6C652E6C6F67 SWAP1 POP PUSH1 0x20 DUP4 ADD PUSH1 0x0 DUP1 DUP5 DUP4 DUP6 GAS STATICCALL POP POP POP POP POP JUMP JUMPDEST PUSH1 0x0 DUP2 CALLDATALOAD SWAP1 POP PUSH2 0x281 DUP2 PUSH2 0x3A8 JUMP JUMPDEST SWAP3 SWAP2 POP POP JUMP JUMPDEST PUSH1 0x0 PUSH1 0x20 DUP3 DUP5 SUB SLT ISZERO PUSH2 0x29D JUMPI PUSH2 0x29C PUSH2 0x392 JUMP JUMPDEST JUMPDEST PUSH1 0x0 PUSH2 0x2AB DUP5 DUP3 DUP6 ADD PUSH2 0x272 JUMP JUMPDEST SWAP2 POP POP SWAP3 SWAP2 POP POP JUMP JUMPDEST PUSH2 0x2BD DUP2 PUSH2 0x355 JUMP JUMPDEST DUP3 MSTORE POP POP JUMP JUMPDEST PUSH1 0x0 PUSH2 0x2CE DUP3 PUSH2 0x339 JUMP JUMPDEST PUSH2 0x2D8 DUP2 DUP6 PUSH2 0x344 JUMP JUMPDEST SWAP4 POP PUSH2 0x2E8 DUP2 DUP6 PUSH1 0x20 DUP7 ADD PUSH2 0x35F JUMP JUMPDEST PUSH2 0x2F1 DUP2 PUSH2 0x397 JUMP JUMPDEST DUP5 ADD SWAP2 POP POP SWAP3 SWAP2 POP POP JUMP JUMPDEST PUSH1 0x0 PUSH1 0x20 DUP3 ADD SWAP1 POP PUSH2 0x311 PUSH1 0x0 DUP4 ADD DUP5 PUSH2 0x2B4 JUMP JUMPDEST SWAP3 SWAP2 POP POP JUMP JUMPDEST PUSH1 0x0 PUSH1 0x20 DUP3 ADD SWAP1 POP DUP2 DUP2 SUB PUSH1 0x0 DUP4 ADD MSTORE PUSH2 0x331 DUP2 DUP5 PUSH2 0x2C3 JUMP JUMPDEST SWAP1 POP SWAP3 SWAP2 POP POP JUMP JUMPDEST PUSH1 0x0 DUP2 MLOAD SWAP1 POP SWAP2 SWAP1 POP JUMP JUMPDEST PUSH1 0x0 DUP3 DUP3 MSTORE PUSH1 0x20 DUP3 ADD SWAP1 POP SWAP3 SWAP2 POP POP JUMP JUMPDEST PUSH1 0x0 DUP2 SWAP1 POP SWAP2 SWAP1 POP JUMP JUMPDEST PUSH1 0x0 JUMPDEST DUP4 DUP2 LT ISZERO PUSH2 0x37D JUMPI DUP1 DUP3 ADD MLOAD DUP2 DUP5 ADD MSTORE PUSH1 0x20 DUP2 ADD SWAP1 POP PUSH2 0x362 JUMP JUMPDEST DUP4 DUP2 GT ISZERO PUSH2 0x38C JUMPI PUSH1 0x0 DUP5 DUP5 ADD MSTORE JUMPDEST POP POP POP POP JUMP JUMPDEST PUSH1 0x0 DUP1 REVERT JUMPDEST PUSH1 0x0 PUSH1 0x1F NOT PUSH1 0x1F DUP4 ADD AND SWAP1 POP SWAP2 SWAP1 POP JUMP JUMPDEST PUSH2 0x3B1 DUP2 PUSH2 0x355 JUMP JUMPDEST DUP2 EQ PUSH2 0x3BC JUMPI PUSH1 0x0 DUP1 REVERT JUMPDEST POP JUMP INVALID LOG2 PUSH5 0x6970667358 0x22 SLT KECCAK256 PUSH15 0x910A6186517A26E13DAC039C911BC1 PUSH26 0x4AA010599A52959FF748C72600C26F64736F6C63430008070033 "
		},
		"gasEstimates": {
			"creation": {
				"codeDepositCost": "202600",
				"executionCost": "245",
				"totalCost": "202845"
			},
			"external": {
				"hash()": "2407",
				"setHash(bytes32)": "infinite"
			}
		},
		"methodIdentifiers": {
			"hash()": "09bd5a60",
			"setHash(bytes32)": "0c4c4285"
		}
	},
	"abi": [
		{
			"inputs": [],
			"name": "hash",
			"outputs": [
				{
					"internalType": "bytes32",
					"name": "",
					"type": "bytes32"
				}
			],
			"stateMutability": "view",
			"type": "function"
		},
		{
			"inputs": [
				{
					"internalType": "bytes32",
					"name": "_hash",
					"type": "bytes32"
				}
			],
			"name": "setHash",
			"outputs": [],
			"stateMutability": "nonpayable",
			"type": "function"
		}
	]
}